{
	"公共政策平台/EthVoting.sol": {
		"EthVoting": {
			"abi": [
				{
					"anonymous": false,
					"inputs": [
						{
							"indexed": true,
							"internalType": "string",
							"name": "eventType",
							"type": "string"
						},
						{
							"indexed": false,
							"internalType": "uint256",
							"name": "_proposalId",
							"type": "uint256"
						},
						{
							"indexed": false,
							"internalType": "uint256",
							"name": "_limitTime",
							"type": "uint256"
						}
					],
					"name": "ProposeEvt",
					"type": "event"
				},
				{
					"anonymous": false,
					"inputs": [
						{
							"indexed": true,
							"internalType": "string",
							"name": "eventType",
							"type": "string"
						},
						{
							"indexed": false,
							"internalType": "address",
							"name": "_voter",
							"type": "address"
						},
						{
							"indexed": false,
							"internalType": "uint256",
							"name": "timestamp",
							"type": "uint256"
						}
					],
					"name": "VoteEvt",
					"type": "event"
				},
				{
					"inputs": [
						{
							"internalType": "string",
							"name": "_pName",
							"type": "string"
						},
						{
							"internalType": "string",
							"name": "_pCtx",
							"type": "string"
						},
						{
							"internalType": "uint256",
							"name": "_limitTime",
							"type": "uint256"
						}
					],
					"name": "createProposal",
					"outputs": [
						{
							"internalType": "uint256",
							"name": "",
							"type": "uint256"
						}
					],
					"stateMutability": "nonpayable",
					"type": "function"
				},
				{
					"inputs": [
						{
							"internalType": "uint256",
							"name": "pId",
							"type": "uint256"
						}
					],
					"name": "doVoting",
					"outputs": [],
					"stateMutability": "nonpayable",
					"type": "function"
				},
				{
					"inputs": [],
					"name": "getBlockTime",
					"outputs": [
						{
							"internalType": "uint256",
							"name": "t",
							"type": "uint256"
						}
					],
					"stateMutability": "view",
					"type": "function"
				},
				{
					"inputs": [
						{
							"internalType": "uint256",
							"name": "pId",
							"type": "uint256"
						}
					],
					"name": "getProposalCtx",
					"outputs": [
						{
							"internalType": "string",
							"name": "s",
							"type": "string"
						}
					],
					"stateMutability": "view",
					"type": "function"
				},
				{
					"inputs": [
						{
							"internalType": "uint256",
							"name": "pId",
							"type": "uint256"
						}
					],
					"name": "getProposalLimit",
					"outputs": [
						{
							"internalType": "uint256",
							"name": "t",
							"type": "uint256"
						}
					],
					"stateMutability": "view",
					"type": "function"
				},
				{
					"inputs": [
						{
							"internalType": "uint256",
							"name": "pId",
							"type": "uint256"
						}
					],
					"name": "getProposalName",
					"outputs": [
						{
							"internalType": "string",
							"name": "s",
							"type": "string"
						}
					],
					"stateMutability": "view",
					"type": "function"
				},
				{
					"inputs": [
						{
							"internalType": "uint256",
							"name": "pId",
							"type": "uint256"
						}
					],
					"name": "getProposalVCnt",
					"outputs": [
						{
							"internalType": "uint256",
							"name": "v",
							"type": "uint256"
						}
					],
					"stateMutability": "view",
					"type": "function"
				},
				{
					"inputs": [
						{
							"internalType": "uint256",
							"name": "",
							"type": "uint256"
						}
					],
					"name": "proposals",
					"outputs": [
						{
							"internalType": "string",
							"name": "pName",
							"type": "string"
						},
						{
							"internalType": "string",
							"name": "pCtx",
							"type": "string"
						},
						{
							"internalType": "address",
							"name": "chairperson",
							"type": "address"
						},
						{
							"internalType": "uint256",
							"name": "voteCount",
							"type": "uint256"
						},
						{
							"internalType": "bool",
							"name": "initialized",
							"type": "bool"
						},
						{
							"internalType": "uint256",
							"name": "limitTime",
							"type": "uint256"
						}
					],
					"stateMutability": "view",
					"type": "function"
				},
				{
					"inputs": [
						{
							"internalType": "uint256",
							"name": "pId",
							"type": "uint256"
						},
						{
							"internalType": "address",
							"name": "voterAddr",
							"type": "address"
						}
					],
					"name": "queryVoting",
					"outputs": [
						{
							"internalType": "uint256",
							"name": "",
							"type": "uint256"
						}
					],
					"stateMutability": "view",
					"type": "function"
				}
			],
			"devdoc": {
				"kind": "dev",
				"methods": {},
				"version": 1
			},
			"evm": {
				"assembly": "    /* \"\\xe5\\x85\\xac\\xe5\\x85\\xb1\\xe6\\x94\\xbf\\xe7\\xad\\x96\\xe5\\xb9\\xb3\\xe5\\x8f\\xb0/EthVoting.sol\":66:3258  contract EthVoting  {... */\n  mstore(0x40, 0x80)\n  callvalue\n  dup1\n  iszero\n  tag_1\n  jumpi\n  0x00\n  dup1\n  revert\ntag_1:\n  pop\n  dataSize(sub_0)\n  dup1\n  dataOffset(sub_0)\n  0x00\n  codecopy\n  0x00\n  return\nstop\n\nsub_0: assembly {\n        /* \"\\xe5\\x85\\xac\\xe5\\x85\\xb1\\xe6\\x94\\xbf\\xe7\\xad\\x96\\xe5\\xb9\\xb3\\xe5\\x8f\\xb0/EthVoting.sol\":66:3258  contract EthVoting  {... */\n      mstore(0x40, 0x80)\n      callvalue\n      dup1\n      iszero\n      tag_1\n      jumpi\n      0x00\n      dup1\n      revert\n    tag_1:\n      pop\n      jumpi(tag_2, lt(calldatasize, 0x04))\n      shr(0xe0, calldataload(0x00))\n      dup1\n      0x3c795afc\n      gt\n      tag_12\n      jumpi\n      dup1\n      0x3c795afc\n      eq\n      tag_7\n      jumpi\n      dup1\n      0x429b92bf\n      eq\n      tag_8\n      jumpi\n      dup1\n      0x6f2a064c\n      eq\n      tag_9\n      jumpi\n      dup1\n      0x87ceff09\n      eq\n      tag_10\n      jumpi\n      dup1\n      0xe9511c6e\n      eq\n      tag_11\n      jumpi\n      jump(tag_2)\n    tag_12:\n      dup1\n      0x013cf08b\n      eq\n      tag_3\n      jumpi\n      dup1\n      0x0ce0ebf4\n      eq\n      tag_4\n      jumpi\n      dup1\n      0x101778d4\n      eq\n      tag_5\n      jumpi\n      dup1\n      0x33311aee\n      eq\n      tag_6\n      jumpi\n    tag_2:\n      0x00\n      dup1\n      revert\n        /* \"\\xe5\\x85\\xac\\xe5\\x85\\xb1\\xe6\\x94\\xbf\\xe7\\xad\\x96\\xe5\\xb9\\xb3\\xe5\\x8f\\xb0/EthVoting.sol\":692:734  mapping(uint => Proposal) public proposals */\n    tag_3:\n      tag_13\n      0x04\n      dup1\n      calldatasize\n      sub\n      dup2\n      add\n      swap1\n      tag_14\n      swap2\n      swap1\n      tag_15\n      jump\t// in\n    tag_14:\n      tag_16\n      jump\t// in\n    tag_13:\n      mload(0x40)\n      tag_17\n      swap7\n      swap6\n      swap5\n      swap4\n      swap3\n      swap2\n      swap1\n      tag_18\n      jump\t// in\n    tag_17:\n      mload(0x40)\n      dup1\n      swap2\n      sub\n      swap1\n      return\n        /* \"\\xe5\\x85\\xac\\xe5\\x85\\xb1\\xe6\\x94\\xbf\\xe7\\xad\\x96\\xe5\\xb9\\xb3\\xe5\\x8f\\xb0/EthVoting.sol\":957:1482  function createProposal(string  memory _pName, string memory  _pCtx, uint _limitTime) public returns (uint){... */\n    tag_4:\n      tag_19\n      0x04\n      dup1\n      calldatasize\n      sub\n      dup2\n      add\n      swap1\n      tag_20\n      swap2\n      swap1\n      tag_21\n      jump\t// in\n    tag_20:\n      tag_22\n      jump\t// in\n    tag_19:\n      mload(0x40)\n      tag_23\n      swap2\n      swap1\n      tag_24\n      jump\t// in\n    tag_23:\n      mload(0x40)\n      dup1\n      swap2\n      sub\n      swap1\n      return\n        /* \"\\xe5\\x85\\xac\\xe5\\x85\\xb1\\xe6\\x94\\xbf\\xe7\\xad\\x96\\xe5\\xb9\\xb3\\xe5\\x8f\\xb0/EthVoting.sol\":3004:3113  function getProposalVCnt(uint pId) public view returns (uint v) { ... */\n    tag_5:\n      tag_25\n      0x04\n      dup1\n      calldatasize\n      sub\n      dup2\n      add\n      swap1\n      tag_26\n      swap2\n      swap1\n      tag_15\n      jump\t// in\n    tag_26:\n      tag_27\n      jump\t// in\n    tag_25:\n      mload(0x40)\n      tag_28\n      swap2\n      swap1\n      tag_24\n      jump\t// in\n    tag_28:\n      mload(0x40)\n      dup1\n      swap2\n      sub\n      swap1\n      return\n        /* \"\\xe5\\x85\\xac\\xe5\\x85\\xb1\\xe6\\x94\\xbf\\xe7\\xad\\x96\\xe5\\xb9\\xb3\\xe5\\x8f\\xb0/EthVoting.sol\":2860:2972  function getProposalCtx(uint pId) public view returns (string memory s) { ... */\n    tag_6:\n      tag_29\n      0x04\n      dup1\n      calldatasize\n      sub\n      dup2\n      add\n      swap1\n      tag_30\n      swap2\n      swap1\n      tag_15\n      jump\t// in\n    tag_30:\n      tag_31\n      jump\t// in\n    tag_29:\n      mload(0x40)\n      tag_32\n      swap2\n      swap1\n      tag_33\n      jump\t// in\n    tag_32:\n      mload(0x40)\n      dup1\n      swap2\n      sub\n      swap1\n      return\n        /* \"\\xe5\\x85\\xac\\xe5\\x85\\xb1\\xe6\\x94\\xbf\\xe7\\xad\\x96\\xe5\\xb9\\xb3\\xe5\\x8f\\xb0/EthVoting.sol\":2277:2553  function queryVoting(uint pId, address voterAddr) public view returns (uint){... */\n    tag_7:\n      tag_34\n      0x04\n      dup1\n      calldatasize\n      sub\n      dup2\n      add\n      swap1\n      tag_35\n      swap2\n      swap1\n      tag_36\n      jump\t// in\n    tag_35:\n      tag_37\n      jump\t// in\n    tag_34:\n      mload(0x40)\n      tag_38\n      swap2\n      swap1\n      tag_24\n      jump\t// in\n    tag_38:\n      mload(0x40)\n      dup1\n      swap2\n      sub\n      swap1\n      return\n        /* \"\\xe5\\x85\\xac\\xe5\\x85\\xb1\\xe6\\x94\\xbf\\xe7\\xad\\x96\\xe5\\xb9\\xb3\\xe5\\x8f\\xb0/EthVoting.sol\":2712:2826  function getProposalName(uint pId) public view returns (string memory s) { ... */\n    tag_8:\n      tag_39\n      0x04\n      dup1\n      calldatasize\n      sub\n      dup2\n      add\n      swap1\n      tag_40\n      swap2\n      swap1\n      tag_15\n      jump\t// in\n    tag_40:\n      tag_41\n      jump\t// in\n    tag_39:\n      mload(0x40)\n      tag_42\n      swap2\n      swap1\n      tag_33\n      jump\t// in\n    tag_42:\n      mload(0x40)\n      dup1\n      swap2\n      sub\n      swap1\n      return\n        /* \"\\xe5\\x85\\xac\\xe5\\x85\\xb1\\xe6\\x94\\xbf\\xe7\\xad\\x96\\xe5\\xb9\\xb3\\xe5\\x8f\\xb0/EthVoting.sol\":3145:3255  function getProposalLimit(uint pId) public view returns (uint t) { ... */\n    tag_9:\n      tag_43\n      0x04\n      dup1\n      calldatasize\n      sub\n      dup2\n      add\n      swap1\n      tag_44\n      swap2\n      swap1\n      tag_15\n      jump\t// in\n    tag_44:\n      tag_45\n      jump\t// in\n    tag_43:\n      mload(0x40)\n      tag_46\n      swap2\n      swap1\n      tag_24\n      jump\t// in\n    tag_46:\n      mload(0x40)\n      dup1\n      swap2\n      sub\n      swap1\n      return\n        /* \"\\xe5\\x85\\xac\\xe5\\x85\\xb1\\xe6\\x94\\xbf\\xe7\\xad\\x96\\xe5\\xb9\\xb3\\xe5\\x8f\\xb0/EthVoting.sol\":2589:2678  function getBlockTime() public view returns (uint t) { ... */\n    tag_10:\n      tag_47\n      tag_48\n      jump\t// in\n    tag_47:\n      mload(0x40)\n      tag_49\n      swap2\n      swap1\n      tag_24\n      jump\t// in\n    tag_49:\n      mload(0x40)\n      dup1\n      swap2\n      sub\n      swap1\n      return\n        /* \"\\xe5\\x85\\xac\\xe5\\x85\\xb1\\xe6\\x94\\xbf\\xe7\\xad\\x96\\xe5\\xb9\\xb3\\xe5\\x8f\\xb0/EthVoting.sol\":1505:2247  function doVoting(uint pId) public {... */\n    tag_11:\n      tag_50\n      0x04\n      dup1\n      calldatasize\n      sub\n      dup2\n      add\n      swap1\n      tag_51\n      swap2\n      swap1\n      tag_15\n      jump\t// in\n    tag_51:\n      tag_52\n      jump\t// in\n    tag_50:\n      stop\n        /* \"\\xe5\\x85\\xac\\xe5\\x85\\xb1\\xe6\\x94\\xbf\\xe7\\xad\\x96\\xe5\\xb9\\xb3\\xe5\\x8f\\xb0/EthVoting.sol\":692:734  mapping(uint => Proposal) public proposals */\n    tag_16:\n      mstore(0x20, 0x00)\n      dup1\n      0x00\n      mstore\n      keccak256(0x00, 0x40)\n      0x00\n      swap2\n      pop\n      swap1\n      pop\n      dup1\n      0x00\n      add\n      dup1\n      sload\n      tag_53\n      swap1\n      tag_54\n      jump\t// in\n    tag_53:\n      dup1\n      0x1f\n      add\n      0x20\n      dup1\n      swap2\n      div\n      mul\n      0x20\n      add\n      mload(0x40)\n      swap1\n      dup2\n      add\n      0x40\n      mstore\n      dup1\n      swap3\n      swap2\n      swap1\n      dup2\n      dup2\n      mstore\n      0x20\n      add\n      dup3\n      dup1\n      sload\n      tag_55\n      swap1\n      tag_54\n      jump\t// in\n    tag_55:\n      dup1\n      iszero\n      tag_56\n      jumpi\n      dup1\n      0x1f\n      lt\n      tag_57\n      jumpi\n      0x0100\n      dup1\n      dup4\n      sload\n      div\n      mul\n      dup4\n      mstore\n      swap2\n      0x20\n      add\n      swap2\n      jump(tag_56)\n    tag_57:\n      dup3\n      add\n      swap2\n      swap1\n      0x00\n      mstore\n      keccak256(0x00, 0x20)\n      swap1\n    tag_58:\n      dup2\n      sload\n      dup2\n      mstore\n      swap1\n      0x01\n      add\n      swap1\n      0x20\n      add\n      dup1\n      dup4\n      gt\n      tag_58\n      jumpi\n      dup3\n      swap1\n      sub\n      0x1f\n      and\n      dup3\n      add\n      swap2\n    tag_56:\n      pop\n      pop\n      pop\n      pop\n      pop\n      swap1\n      dup1\n      0x01\n      add\n      dup1\n      sload\n      tag_59\n      swap1\n      tag_54\n      jump\t// in\n    tag_59:\n      dup1\n      0x1f\n      add\n      0x20\n      dup1\n      swap2\n      div\n      mul\n      0x20\n      add\n      mload(0x40)\n      swap1\n      dup2\n      add\n      0x40\n      mstore\n      dup1\n      swap3\n      swap2\n      swap1\n      dup2\n      dup2\n      mstore\n      0x20\n      add\n      dup3\n      dup1\n      sload\n      tag_60\n      swap1\n      tag_54\n      jump\t// in\n    tag_60:\n      dup1\n      iszero\n      tag_61\n      jumpi\n      dup1\n      0x1f\n      lt\n      tag_62\n      jumpi\n      0x0100\n      dup1\n      dup4\n      sload\n      div\n      mul\n      dup4\n      mstore\n      swap2\n      0x20\n      add\n      swap2\n      jump(tag_61)\n    tag_62:\n      dup3\n      add\n      swap2\n      swap1\n      0x00\n      mstore\n      keccak256(0x00, 0x20)\n      swap1\n    tag_63:\n      dup2\n      sload\n      dup2\n      mstore\n      swap1\n      0x01\n      add\n      swap1\n      0x20\n      add\n      dup1\n      dup4\n      gt\n      tag_63\n      jumpi\n      dup3\n      swap1\n      sub\n      0x1f\n      and\n      dup3\n      add\n      swap2\n    tag_61:\n      pop\n      pop\n      pop\n      pop\n      pop\n      swap1\n      dup1\n      0x02\n      add\n      0x00\n      swap1\n      sload\n      swap1\n      0x0100\n      exp\n      swap1\n      div\n      0xffffffffffffffffffffffffffffffffffffffff\n      and\n      swap1\n      dup1\n      0x03\n      add\n      sload\n      swap1\n      dup1\n      0x04\n      add\n      0x00\n      swap1\n      sload\n      swap1\n      0x0100\n      exp\n      swap1\n      div\n      0xff\n      and\n      swap1\n      dup1\n      0x05\n      add\n      sload\n      swap1\n      pop\n      dup7\n      jump\t// out\n        /* \"\\xe5\\x85\\xac\\xe5\\x85\\xb1\\xe6\\x94\\xbf\\xe7\\xad\\x96\\xe5\\xb9\\xb3\\xe5\\x8f\\xb0/EthVoting.sol\":957:1482  function createProposal(string  memory _pName, string memory  _pCtx, uint _limitTime) public returns (uint){... */\n    tag_22:\n        /* \"\\xe5\\x85\\xac\\xe5\\x85\\xb1\\xe6\\x94\\xbf\\xe7\\xad\\x96\\xe5\\xb9\\xb3\\xe5\\x8f\\xb0/EthVoting.sol\":1059:1063  uint */\n      0x00\n        /* \"\\xe5\\x85\\xac\\xe5\\x85\\xb1\\xe6\\x94\\xbf\\xe7\\xad\\x96\\xe5\\xb9\\xb3\\xe5\\x8f\\xb0/EthVoting.sol\":1083:1091  uint pId */\n      dup1\n        /* \"\\xe5\\x85\\xac\\xe5\\x85\\xb1\\xe6\\x94\\xbf\\xe7\\xad\\x96\\xe5\\xb9\\xb3\\xe5\\x8f\\xb0/EthVoting.sol\":1094:1109  block.timestamp */\n      timestamp\n        /* \"\\xe5\\x85\\xac\\xe5\\x85\\xb1\\xe6\\x94\\xbf\\xe7\\xad\\x96\\xe5\\xb9\\xb3\\xe5\\x8f\\xb0/EthVoting.sol\":1083:1109  uint pId = block.timestamp */\n      swap1\n      pop\n        /* \"\\xe5\\x85\\xac\\xe5\\x85\\xb1\\xe6\\x94\\xbf\\xe7\\xad\\x96\\xe5\\xb9\\xb3\\xe5\\x8f\\xb0/EthVoting.sol\":1123:1149  Proposal storage _proposal */\n      0x00\n        /* \"\\xe5\\x85\\xac\\xe5\\x85\\xb1\\xe6\\x94\\xbf\\xe7\\xad\\x96\\xe5\\xb9\\xb3\\xe5\\x8f\\xb0/EthVoting.sol\":1152:1161  proposals */\n      dup1\n        /* \"\\xe5\\x85\\xac\\xe5\\x85\\xb1\\xe6\\x94\\xbf\\xe7\\xad\\x96\\xe5\\xb9\\xb3\\xe5\\x8f\\xb0/EthVoting.sol\":1152:1166  proposals[pId] */\n      0x00\n        /* \"\\xe5\\x85\\xac\\xe5\\x85\\xb1\\xe6\\x94\\xbf\\xe7\\xad\\x96\\xe5\\xb9\\xb3\\xe5\\x8f\\xb0/EthVoting.sol\":1162:1165  pId */\n      dup4\n        /* \"\\xe5\\x85\\xac\\xe5\\x85\\xb1\\xe6\\x94\\xbf\\xe7\\xad\\x96\\xe5\\xb9\\xb3\\xe5\\x8f\\xb0/EthVoting.sol\":1152:1166  proposals[pId] */\n      dup2\n      mstore\n      0x20\n      add\n      swap1\n      dup2\n      mstore\n      0x20\n      add\n      0x00\n      keccak256\n        /* \"\\xe5\\x85\\xac\\xe5\\x85\\xb1\\xe6\\x94\\xbf\\xe7\\xad\\x96\\xe5\\xb9\\xb3\\xe5\\x8f\\xb0/EthVoting.sol\":1123:1166  Proposal storage _proposal = proposals[pId] */\n      swap1\n      pop\n        /* \"\\xe5\\x85\\xac\\xe5\\x85\\xb1\\xe6\\x94\\xbf\\xe7\\xad\\x96\\xe5\\xb9\\xb3\\xe5\\x8f\\xb0/EthVoting.sol\":1194:1200  _pName */\n      dup6\n        /* \"\\xe5\\x85\\xac\\xe5\\x85\\xb1\\xe6\\x94\\xbf\\xe7\\xad\\x96\\xe5\\xb9\\xb3\\xe5\\x8f\\xb0/EthVoting.sol\":1176:1185  _proposal */\n      dup2\n        /* \"\\xe5\\x85\\xac\\xe5\\x85\\xb1\\xe6\\x94\\xbf\\xe7\\xad\\x96\\xe5\\xb9\\xb3\\xe5\\x8f\\xb0/EthVoting.sol\":1176:1191  _proposal.pName */\n      0x00\n      add\n        /* \"\\xe5\\x85\\xac\\xe5\\x85\\xb1\\xe6\\x94\\xbf\\xe7\\xad\\x96\\xe5\\xb9\\xb3\\xe5\\x8f\\xb0/EthVoting.sol\":1176:1200  _proposal.pName = _pName */\n      swap1\n      dup2\n      tag_65\n      swap2\n      swap1\n      tag_66\n      jump\t// in\n    tag_65:\n      pop\n        /* \"\\xe5\\x85\\xac\\xe5\\x85\\xb1\\xe6\\x94\\xbf\\xe7\\xad\\x96\\xe5\\xb9\\xb3\\xe5\\x8f\\xb0/EthVoting.sol\":1227:1232  _pCtx */\n      dup5\n        /* \"\\xe5\\x85\\xac\\xe5\\x85\\xb1\\xe6\\x94\\xbf\\xe7\\xad\\x96\\xe5\\xb9\\xb3\\xe5\\x8f\\xb0/EthVoting.sol\":1210:1219  _proposal */\n      dup2\n        /* \"\\xe5\\x85\\xac\\xe5\\x85\\xb1\\xe6\\x94\\xbf\\xe7\\xad\\x96\\xe5\\xb9\\xb3\\xe5\\x8f\\xb0/EthVoting.sol\":1210:1224  _proposal.pCtx */\n      0x01\n      add\n        /* \"\\xe5\\x85\\xac\\xe5\\x85\\xb1\\xe6\\x94\\xbf\\xe7\\xad\\x96\\xe5\\xb9\\xb3\\xe5\\x8f\\xb0/EthVoting.sol\":1210:1232  _proposal.pCtx = _pCtx */\n      swap1\n      dup2\n      tag_67\n      swap2\n      swap1\n      tag_66\n      jump\t// in\n    tag_67:\n      pop\n        /* \"\\xe5\\x85\\xac\\xe5\\x85\\xb1\\xe6\\x94\\xbf\\xe7\\xad\\x96\\xe5\\xb9\\xb3\\xe5\\x8f\\xb0/EthVoting.sol\":1266:1276  msg.sender */\n      caller\n        /* \"\\xe5\\x85\\xac\\xe5\\x85\\xb1\\xe6\\x94\\xbf\\xe7\\xad\\x96\\xe5\\xb9\\xb3\\xe5\\x8f\\xb0/EthVoting.sol\":1242:1251  _proposal */\n      dup2\n        /* \"\\xe5\\x85\\xac\\xe5\\x85\\xb1\\xe6\\x94\\xbf\\xe7\\xad\\x96\\xe5\\xb9\\xb3\\xe5\\x8f\\xb0/EthVoting.sol\":1242:1263  _proposal.chairperson */\n      0x02\n      add\n      0x00\n        /* \"\\xe5\\x85\\xac\\xe5\\x85\\xb1\\xe6\\x94\\xbf\\xe7\\xad\\x96\\xe5\\xb9\\xb3\\xe5\\x8f\\xb0/EthVoting.sol\":1242:1276  _proposal.chairperson = msg.sender */\n      0x0100\n      exp\n      dup2\n      sload\n      dup2\n      0xffffffffffffffffffffffffffffffffffffffff\n      mul\n      not\n      and\n      swap1\n      dup4\n      0xffffffffffffffffffffffffffffffffffffffff\n      and\n      mul\n      or\n      swap1\n      sstore\n      pop\n        /* \"\\xe5\\x85\\xac\\xe5\\x85\\xb1\\xe6\\x94\\xbf\\xe7\\xad\\x96\\xe5\\xb9\\xb3\\xe5\\x8f\\xb0/EthVoting.sol\":1310:1314  true */\n      0x01\n        /* \"\\xe5\\x85\\xac\\xe5\\x85\\xb1\\xe6\\x94\\xbf\\xe7\\xad\\x96\\xe5\\xb9\\xb3\\xe5\\x8f\\xb0/EthVoting.sol\":1286:1295  _proposal */\n      dup2\n        /* \"\\xe5\\x85\\xac\\xe5\\x85\\xb1\\xe6\\x94\\xbf\\xe7\\xad\\x96\\xe5\\xb9\\xb3\\xe5\\x8f\\xb0/EthVoting.sol\":1286:1307  _proposal.initialized */\n      0x04\n      add\n      0x00\n        /* \"\\xe5\\x85\\xac\\xe5\\x85\\xb1\\xe6\\x94\\xbf\\xe7\\xad\\x96\\xe5\\xb9\\xb3\\xe5\\x8f\\xb0/EthVoting.sol\":1286:1314  _proposal.initialized = true */\n      0x0100\n      exp\n      dup2\n      sload\n      dup2\n      0xff\n      mul\n      not\n      and\n      swap1\n      dup4\n      iszero\n      iszero\n      mul\n      or\n      swap1\n      sstore\n      pop\n        /* \"\\xe5\\x85\\xac\\xe5\\x85\\xb1\\xe6\\x94\\xbf\\xe7\\xad\\x96\\xe5\\xb9\\xb3\\xe5\\x8f\\xb0/EthVoting.sol\":1345:1355  _limitTime */\n      dup4\n        /* \"\\xe5\\x85\\xac\\xe5\\x85\\xb1\\xe6\\x94\\xbf\\xe7\\xad\\x96\\xe5\\xb9\\xb3\\xe5\\x8f\\xb0/EthVoting.sol\":1324:1333  _proposal */\n      dup2\n        /* \"\\xe5\\x85\\xac\\xe5\\x85\\xb1\\xe6\\x94\\xbf\\xe7\\xad\\x96\\xe5\\xb9\\xb3\\xe5\\x8f\\xb0/EthVoting.sol\":1324:1343  _proposal.limitTime */\n      0x05\n      add\n        /* \"\\xe5\\x85\\xac\\xe5\\x85\\xb1\\xe6\\x94\\xbf\\xe7\\xad\\x96\\xe5\\xb9\\xb3\\xe5\\x8f\\xb0/EthVoting.sol\":1324:1355  _proposal.limitTime= _limitTime */\n      dup2\n      swap1\n      sstore\n      pop\n        /* \"\\xe5\\x85\\xac\\xe5\\x85\\xb1\\xe6\\x94\\xbf\\xe7\\xad\\x96\\xe5\\xb9\\xb3\\xe5\\x8f\\xb0/EthVoting.sol\":1387:1388  0 */\n      0x00\n        /* \"\\xe5\\x85\\xac\\xe5\\x85\\xb1\\xe6\\x94\\xbf\\xe7\\xad\\x96\\xe5\\xb9\\xb3\\xe5\\x8f\\xb0/EthVoting.sol\":1365:1374  _proposal */\n      dup2\n        /* \"\\xe5\\x85\\xac\\xe5\\x85\\xb1\\xe6\\x94\\xbf\\xe7\\xad\\x96\\xe5\\xb9\\xb3\\xe5\\x8f\\xb0/EthVoting.sol\":1365:1384  _proposal.voteCount */\n      0x03\n      add\n        /* \"\\xe5\\x85\\xac\\xe5\\x85\\xb1\\xe6\\x94\\xbf\\xe7\\xad\\x96\\xe5\\xb9\\xb3\\xe5\\x8f\\xb0/EthVoting.sol\":1365:1388  _proposal.voteCount = 0 */\n      dup2\n      swap1\n      sstore\n      pop\n        /* \"\\xe5\\x85\\xac\\xe5\\x85\\xb1\\xe6\\x94\\xbf\\xe7\\xad\\x96\\xe5\\xb9\\xb3\\xe5\\x8f\\xb0/EthVoting.sol\":1404:1442  ProposeEvt(\"propose\", pId, _limitTime) */\n      mload(0x40)\n      tag_68\n      swap1\n      tag_69\n      jump\t// in\n    tag_68:\n      mload(0x40)\n      dup1\n      swap2\n      sub\n      swap1\n      keccak256\n      0xbc0e6e5d3bae05319a46934c70314dba18cc2304e08b29496d03832071aff7e0\n        /* \"\\xe5\\x85\\xac\\xe5\\x85\\xb1\\xe6\\x94\\xbf\\xe7\\xad\\x96\\xe5\\xb9\\xb3\\xe5\\x8f\\xb0/EthVoting.sol\":1426:1429  pId */\n      dup4\n        /* \"\\xe5\\x85\\xac\\xe5\\x85\\xb1\\xe6\\x94\\xbf\\xe7\\xad\\x96\\xe5\\xb9\\xb3\\xe5\\x8f\\xb0/EthVoting.sol\":1431:1441  _limitTime */\n      dup7\n        /* \"\\xe5\\x85\\xac\\xe5\\x85\\xb1\\xe6\\x94\\xbf\\xe7\\xad\\x96\\xe5\\xb9\\xb3\\xe5\\x8f\\xb0/EthVoting.sol\":1404:1442  ProposeEvt(\"propose\", pId, _limitTime) */\n      mload(0x40)\n      tag_70\n      swap3\n      swap2\n      swap1\n      tag_71\n      jump\t// in\n    tag_70:\n      mload(0x40)\n      dup1\n      swap2\n      sub\n      swap1\n      log2\n        /* \"\\xe5\\x85\\xac\\xe5\\x85\\xb1\\xe6\\x94\\xbf\\xe7\\xad\\x96\\xe5\\xb9\\xb3\\xe5\\x8f\\xb0/EthVoting.sol\":1466:1469  pId */\n      dup2\n        /* \"\\xe5\\x85\\xac\\xe5\\x85\\xb1\\xe6\\x94\\xbf\\xe7\\xad\\x96\\xe5\\xb9\\xb3\\xe5\\x8f\\xb0/EthVoting.sol\":1459:1469  return pId */\n      swap3\n      pop\n      pop\n      pop\n        /* \"\\xe5\\x85\\xac\\xe5\\x85\\xb1\\xe6\\x94\\xbf\\xe7\\xad\\x96\\xe5\\xb9\\xb3\\xe5\\x8f\\xb0/EthVoting.sol\":957:1482  function createProposal(string  memory _pName, string memory  _pCtx, uint _limitTime) public returns (uint){... */\n      swap4\n      swap3\n      pop\n      pop\n      pop\n      jump\t// out\n        /* \"\\xe5\\x85\\xac\\xe5\\x85\\xb1\\xe6\\x94\\xbf\\xe7\\xad\\x96\\xe5\\xb9\\xb3\\xe5\\x8f\\xb0/EthVoting.sol\":3004:3113  function getProposalVCnt(uint pId) public view returns (uint v) { ... */\n    tag_27:\n        /* \"\\xe5\\x85\\xac\\xe5\\x85\\xb1\\xe6\\x94\\xbf\\xe7\\xad\\x96\\xe5\\xb9\\xb3\\xe5\\x8f\\xb0/EthVoting.sol\":3060:3066  uint v */\n      0x00\n        /* \"\\xe5\\x85\\xac\\xe5\\x85\\xb1\\xe6\\x94\\xbf\\xe7\\xad\\x96\\xe5\\xb9\\xb3\\xe5\\x8f\\xb0/EthVoting.sol\":3081:3090  proposals */\n      dup1\n        /* \"\\xe5\\x85\\xac\\xe5\\x85\\xb1\\xe6\\x94\\xbf\\xe7\\xad\\x96\\xe5\\xb9\\xb3\\xe5\\x8f\\xb0/EthVoting.sol\":3081:3095  proposals[pId] */\n      0x00\n        /* \"\\xe5\\x85\\xac\\xe5\\x85\\xb1\\xe6\\x94\\xbf\\xe7\\xad\\x96\\xe5\\xb9\\xb3\\xe5\\x8f\\xb0/EthVoting.sol\":3091:3094  pId */\n      dup4\n        /* \"\\xe5\\x85\\xac\\xe5\\x85\\xb1\\xe6\\x94\\xbf\\xe7\\xad\\x96\\xe5\\xb9\\xb3\\xe5\\x8f\\xb0/EthVoting.sol\":3081:3095  proposals[pId] */\n      dup2\n      mstore\n      0x20\n      add\n      swap1\n      dup2\n      mstore\n      0x20\n      add\n      0x00\n      keccak256\n        /* \"\\xe5\\x85\\xac\\xe5\\x85\\xb1\\xe6\\x94\\xbf\\xe7\\xad\\x96\\xe5\\xb9\\xb3\\xe5\\x8f\\xb0/EthVoting.sol\":3081:3105  proposals[pId].voteCount */\n      0x03\n      add\n      sload\n        /* \"\\xe5\\x85\\xac\\xe5\\x85\\xb1\\xe6\\x94\\xbf\\xe7\\xad\\x96\\xe5\\xb9\\xb3\\xe5\\x8f\\xb0/EthVoting.sol\":3077:3105  v = proposals[pId].voteCount */\n      swap1\n      pop\n        /* \"\\xe5\\x85\\xac\\xe5\\x85\\xb1\\xe6\\x94\\xbf\\xe7\\xad\\x96\\xe5\\xb9\\xb3\\xe5\\x8f\\xb0/EthVoting.sol\":3004:3113  function getProposalVCnt(uint pId) public view returns (uint v) { ... */\n      swap2\n      swap1\n      pop\n      jump\t// out\n        /* \"\\xe5\\x85\\xac\\xe5\\x85\\xb1\\xe6\\x94\\xbf\\xe7\\xad\\x96\\xe5\\xb9\\xb3\\xe5\\x8f\\xb0/EthVoting.sol\":2860:2972  function getProposalCtx(uint pId) public view returns (string memory s) { ... */\n    tag_31:\n        /* \"\\xe5\\x85\\xac\\xe5\\x85\\xb1\\xe6\\x94\\xbf\\xe7\\xad\\x96\\xe5\\xb9\\xb3\\xe5\\x8f\\xb0/EthVoting.sol\":2915:2930  string memory s */\n      0x60\n        /* \"\\xe5\\x85\\xac\\xe5\\x85\\xb1\\xe6\\x94\\xbf\\xe7\\xad\\x96\\xe5\\xb9\\xb3\\xe5\\x8f\\xb0/EthVoting.sol\":2945:2954  proposals */\n      0x00\n        /* \"\\xe5\\x85\\xac\\xe5\\x85\\xb1\\xe6\\x94\\xbf\\xe7\\xad\\x96\\xe5\\xb9\\xb3\\xe5\\x8f\\xb0/EthVoting.sol\":2945:2959  proposals[pId] */\n      dup1\n        /* \"\\xe5\\x85\\xac\\xe5\\x85\\xb1\\xe6\\x94\\xbf\\xe7\\xad\\x96\\xe5\\xb9\\xb3\\xe5\\x8f\\xb0/EthVoting.sol\":2955:2958  pId */\n      dup4\n        /* \"\\xe5\\x85\\xac\\xe5\\x85\\xb1\\xe6\\x94\\xbf\\xe7\\xad\\x96\\xe5\\xb9\\xb3\\xe5\\x8f\\xb0/EthVoting.sol\":2945:2959  proposals[pId] */\n      dup2\n      mstore\n      0x20\n      add\n      swap1\n      dup2\n      mstore\n      0x20\n      add\n      0x00\n      keccak256\n        /* \"\\xe5\\x85\\xac\\xe5\\x85\\xb1\\xe6\\x94\\xbf\\xe7\\xad\\x96\\xe5\\xb9\\xb3\\xe5\\x8f\\xb0/EthVoting.sol\":2945:2964  proposals[pId].pCtx */\n      0x01\n      add\n        /* \"\\xe5\\x85\\xac\\xe5\\x85\\xb1\\xe6\\x94\\xbf\\xe7\\xad\\x96\\xe5\\xb9\\xb3\\xe5\\x8f\\xb0/EthVoting.sol\":2941:2964  s = proposals[pId].pCtx */\n      dup1\n      sload\n      tag_74\n      swap1\n      tag_54\n      jump\t// in\n    tag_74:\n      dup1\n      0x1f\n      add\n      0x20\n      dup1\n      swap2\n      div\n      mul\n      0x20\n      add\n      mload(0x40)\n      swap1\n      dup2\n      add\n      0x40\n      mstore\n      dup1\n      swap3\n      swap2\n      swap1\n      dup2\n      dup2\n      mstore\n      0x20\n      add\n      dup3\n      dup1\n      sload\n      tag_75\n      swap1\n      tag_54\n      jump\t// in\n    tag_75:\n      dup1\n      iszero\n      tag_76\n      jumpi\n      dup1\n      0x1f\n      lt\n      tag_77\n      jumpi\n      0x0100\n      dup1\n      dup4\n      sload\n      div\n      mul\n      dup4\n      mstore\n      swap2\n      0x20\n      add\n      swap2\n      jump(tag_76)\n    tag_77:\n      dup3\n      add\n      swap2\n      swap1\n      0x00\n      mstore\n      keccak256(0x00, 0x20)\n      swap1\n    tag_78:\n      dup2\n      sload\n      dup2\n      mstore\n      swap1\n      0x01\n      add\n      swap1\n      0x20\n      add\n      dup1\n      dup4\n      gt\n      tag_78\n      jumpi\n      dup3\n      swap1\n      sub\n      0x1f\n      and\n      dup3\n      add\n      swap2\n    tag_76:\n      pop\n      pop\n      pop\n      pop\n      pop\n      swap1\n      pop\n        /* \"\\xe5\\x85\\xac\\xe5\\x85\\xb1\\xe6\\x94\\xbf\\xe7\\xad\\x96\\xe5\\xb9\\xb3\\xe5\\x8f\\xb0/EthVoting.sol\":2860:2972  function getProposalCtx(uint pId) public view returns (string memory s) { ... */\n      swap2\n      swap1\n      pop\n      jump\t// out\n        /* \"\\xe5\\x85\\xac\\xe5\\x85\\xb1\\xe6\\x94\\xbf\\xe7\\xad\\x96\\xe5\\xb9\\xb3\\xe5\\x8f\\xb0/EthVoting.sol\":2277:2553  function queryVoting(uint pId, address voterAddr) public view returns (uint){... */\n    tag_37:\n        /* \"\\xe5\\x85\\xac\\xe5\\x85\\xb1\\xe6\\x94\\xbf\\xe7\\xad\\x96\\xe5\\xb9\\xb3\\xe5\\x8f\\xb0/EthVoting.sol\":2348:2352  uint */\n      0x00\n        /* \"\\xe5\\x85\\xac\\xe5\\x85\\xb1\\xe6\\x94\\xbf\\xe7\\xad\\x96\\xe5\\xb9\\xb3\\xe5\\x8f\\xb0/EthVoting.sol\":2418:2423  false */\n      dup1\n        /* \"\\xe5\\x85\\xac\\xe5\\x85\\xb1\\xe6\\x94\\xbf\\xe7\\xad\\x96\\xe5\\xb9\\xb3\\xe5\\x8f\\xb0/EthVoting.sol\":2388:2423  proposals[pId].initialized == false */\n      iszero\n      iszero\n        /* \"\\xe5\\x85\\xac\\xe5\\x85\\xb1\\xe6\\x94\\xbf\\xe7\\xad\\x96\\xe5\\xb9\\xb3\\xe5\\x8f\\xb0/EthVoting.sol\":2388:2397  proposals */\n      0x00\n        /* \"\\xe5\\x85\\xac\\xe5\\x85\\xb1\\xe6\\x94\\xbf\\xe7\\xad\\x96\\xe5\\xb9\\xb3\\xe5\\x8f\\xb0/EthVoting.sol\":2388:2402  proposals[pId] */\n      dup1\n        /* \"\\xe5\\x85\\xac\\xe5\\x85\\xb1\\xe6\\x94\\xbf\\xe7\\xad\\x96\\xe5\\xb9\\xb3\\xe5\\x8f\\xb0/EthVoting.sol\":2398:2401  pId */\n      dup6\n        /* \"\\xe5\\x85\\xac\\xe5\\x85\\xb1\\xe6\\x94\\xbf\\xe7\\xad\\x96\\xe5\\xb9\\xb3\\xe5\\x8f\\xb0/EthVoting.sol\":2388:2402  proposals[pId] */\n      dup2\n      mstore\n      0x20\n      add\n      swap1\n      dup2\n      mstore\n      0x20\n      add\n      0x00\n      keccak256\n        /* \"\\xe5\\x85\\xac\\xe5\\x85\\xb1\\xe6\\x94\\xbf\\xe7\\xad\\x96\\xe5\\xb9\\xb3\\xe5\\x8f\\xb0/EthVoting.sol\":2388:2414  proposals[pId].initialized */\n      0x04\n      add\n      0x00\n      swap1\n      sload\n      swap1\n      0x0100\n      exp\n      swap1\n      div\n      0xff\n      and\n        /* \"\\xe5\\x85\\xac\\xe5\\x85\\xb1\\xe6\\x94\\xbf\\xe7\\xad\\x96\\xe5\\xb9\\xb3\\xe5\\x8f\\xb0/EthVoting.sol\":2388:2423  proposals[pId].initialized == false */\n      iszero\n      iszero\n      sub\n        /* \"\\xe5\\x85\\xac\\xe5\\x85\\xb1\\xe6\\x94\\xbf\\xe7\\xad\\x96\\xe5\\xb9\\xb3\\xe5\\x8f\\xb0/EthVoting.sol\":2384:2459  if (proposals[pId].initialized == false)... */\n      tag_80\n      jumpi\n        /* \"\\xe5\\x85\\xac\\xe5\\x85\\xb1\\xe6\\x94\\xbf\\xe7\\xad\\x96\\xe5\\xb9\\xb3\\xe5\\x8f\\xb0/EthVoting.sol\":2431:2459  revert(\"proposal not exist\") */\n      mload(0x40)\n      0x08c379a000000000000000000000000000000000000000000000000000000000\n      dup2\n      mstore\n      0x04\n      add\n      tag_81\n      swap1\n      tag_82\n      jump\t// in\n    tag_81:\n      mload(0x40)\n      dup1\n      swap2\n      sub\n      swap1\n      revert\n        /* \"\\xe5\\x85\\xac\\xe5\\x85\\xb1\\xe6\\x94\\xbf\\xe7\\xad\\x96\\xe5\\xb9\\xb3\\xe5\\x8f\\xb0/EthVoting.sol\":2384:2459  if (proposals[pId].initialized == false)... */\n    tag_80:\n        /* \"\\xe5\\x85\\xac\\xe5\\x85\\xb1\\xe6\\x94\\xbf\\xe7\\xad\\x96\\xe5\\xb9\\xb3\\xe5\\x8f\\xb0/EthVoting.sol\":2502:2511  proposals */\n      0x00\n        /* \"\\xe5\\x85\\xac\\xe5\\x85\\xb1\\xe6\\x94\\xbf\\xe7\\xad\\x96\\xe5\\xb9\\xb3\\xe5\\x8f\\xb0/EthVoting.sol\":2502:2516  proposals[pId] */\n      dup1\n        /* \"\\xe5\\x85\\xac\\xe5\\x85\\xb1\\xe6\\x94\\xbf\\xe7\\xad\\x96\\xe5\\xb9\\xb3\\xe5\\x8f\\xb0/EthVoting.sol\":2512:2515  pId */\n      dup5\n        /* \"\\xe5\\x85\\xac\\xe5\\x85\\xb1\\xe6\\x94\\xbf\\xe7\\xad\\x96\\xe5\\xb9\\xb3\\xe5\\x8f\\xb0/EthVoting.sol\":2502:2516  proposals[pId] */\n      dup2\n      mstore\n      0x20\n      add\n      swap1\n      dup2\n      mstore\n      0x20\n      add\n      0x00\n      keccak256\n        /* \"\\xe5\\x85\\xac\\xe5\\x85\\xb1\\xe6\\x94\\xbf\\xe7\\xad\\x96\\xe5\\xb9\\xb3\\xe5\\x8f\\xb0/EthVoting.sol\":2502:2523  proposals[pId].voters */\n      0x06\n      add\n        /* \"\\xe5\\x85\\xac\\xe5\\x85\\xb1\\xe6\\x94\\xbf\\xe7\\xad\\x96\\xe5\\xb9\\xb3\\xe5\\x8f\\xb0/EthVoting.sol\":2502:2534  proposals[pId].voters[voterAddr] */\n      0x00\n        /* \"\\xe5\\x85\\xac\\xe5\\x85\\xb1\\xe6\\x94\\xbf\\xe7\\xad\\x96\\xe5\\xb9\\xb3\\xe5\\x8f\\xb0/EthVoting.sol\":2524:2533  voterAddr */\n      dup4\n        /* \"\\xe5\\x85\\xac\\xe5\\x85\\xb1\\xe6\\x94\\xbf\\xe7\\xad\\x96\\xe5\\xb9\\xb3\\xe5\\x8f\\xb0/EthVoting.sol\":2502:2534  proposals[pId].voters[voterAddr] */\n      0xffffffffffffffffffffffffffffffffffffffff\n      and\n      0xffffffffffffffffffffffffffffffffffffffff\n      and\n      dup2\n      mstore\n      0x20\n      add\n      swap1\n      dup2\n      mstore\n      0x20\n      add\n      0x00\n      keccak256\n        /* \"\\xe5\\x85\\xac\\xe5\\x85\\xb1\\xe6\\x94\\xbf\\xe7\\xad\\x96\\xe5\\xb9\\xb3\\xe5\\x8f\\xb0/EthVoting.sol\":2502:2548  proposals[pId].voters[voterAddr].voteTimeStamp */\n      0x00\n      add\n      sload\n        /* \"\\xe5\\x85\\xac\\xe5\\x85\\xb1\\xe6\\x94\\xbf\\xe7\\xad\\x96\\xe5\\xb9\\xb3\\xe5\\x8f\\xb0/EthVoting.sol\":2495:2548  return proposals[pId].voters[voterAddr].voteTimeStamp */\n      swap1\n      pop\n        /* \"\\xe5\\x85\\xac\\xe5\\x85\\xb1\\xe6\\x94\\xbf\\xe7\\xad\\x96\\xe5\\xb9\\xb3\\xe5\\x8f\\xb0/EthVoting.sol\":2277:2553  function queryVoting(uint pId, address voterAddr) public view returns (uint){... */\n      swap3\n      swap2\n      pop\n      pop\n      jump\t// out\n        /* \"\\xe5\\x85\\xac\\xe5\\x85\\xb1\\xe6\\x94\\xbf\\xe7\\xad\\x96\\xe5\\xb9\\xb3\\xe5\\x8f\\xb0/EthVoting.sol\":2712:2826  function getProposalName(uint pId) public view returns (string memory s) { ... */\n    tag_41:\n        /* \"\\xe5\\x85\\xac\\xe5\\x85\\xb1\\xe6\\x94\\xbf\\xe7\\xad\\x96\\xe5\\xb9\\xb3\\xe5\\x8f\\xb0/EthVoting.sol\":2768:2783  string memory s */\n      0x60\n        /* \"\\xe5\\x85\\xac\\xe5\\x85\\xb1\\xe6\\x94\\xbf\\xe7\\xad\\x96\\xe5\\xb9\\xb3\\xe5\\x8f\\xb0/EthVoting.sol\":2798:2807  proposals */\n      0x00\n        /* \"\\xe5\\x85\\xac\\xe5\\x85\\xb1\\xe6\\x94\\xbf\\xe7\\xad\\x96\\xe5\\xb9\\xb3\\xe5\\x8f\\xb0/EthVoting.sol\":2798:2812  proposals[pId] */\n      dup1\n        /* \"\\xe5\\x85\\xac\\xe5\\x85\\xb1\\xe6\\x94\\xbf\\xe7\\xad\\x96\\xe5\\xb9\\xb3\\xe5\\x8f\\xb0/EthVoting.sol\":2808:2811  pId */\n      dup4\n        /* \"\\xe5\\x85\\xac\\xe5\\x85\\xb1\\xe6\\x94\\xbf\\xe7\\xad\\x96\\xe5\\xb9\\xb3\\xe5\\x8f\\xb0/EthVoting.sol\":2798:2812  proposals[pId] */\n      dup2\n      mstore\n      0x20\n      add\n      swap1\n      dup2\n      mstore\n      0x20\n      add\n      0x00\n      keccak256\n        /* \"\\xe5\\x85\\xac\\xe5\\x85\\xb1\\xe6\\x94\\xbf\\xe7\\xad\\x96\\xe5\\xb9\\xb3\\xe5\\x8f\\xb0/EthVoting.sol\":2798:2818  proposals[pId].pName */\n      0x00\n      add\n        /* \"\\xe5\\x85\\xac\\xe5\\x85\\xb1\\xe6\\x94\\xbf\\xe7\\xad\\x96\\xe5\\xb9\\xb3\\xe5\\x8f\\xb0/EthVoting.sol\":2794:2818  s = proposals[pId].pName */\n      dup1\n      sload\n      tag_84\n      swap1\n      tag_54\n      jump\t// in\n    tag_84:\n      dup1\n      0x1f\n      add\n      0x20\n      dup1\n      swap2\n      div\n      mul\n      0x20\n      add\n      mload(0x40)\n      swap1\n      dup2\n      add\n      0x40\n      mstore\n      dup1\n      swap3\n      swap2\n      swap1\n      dup2\n      dup2\n      mstore\n      0x20\n      add\n      dup3\n      dup1\n      sload\n      tag_85\n      swap1\n      tag_54\n      jump\t// in\n    tag_85:\n      dup1\n      iszero\n      tag_86\n      jumpi\n      dup1\n      0x1f\n      lt\n      tag_87\n      jumpi\n      0x0100\n      dup1\n      dup4\n      sload\n      div\n      mul\n      dup4\n      mstore\n      swap2\n      0x20\n      add\n      swap2\n      jump(tag_86)\n    tag_87:\n      dup3\n      add\n      swap2\n      swap1\n      0x00\n      mstore\n      keccak256(0x00, 0x20)\n      swap1\n    tag_88:\n      dup2\n      sload\n      dup2\n      mstore\n      swap1\n      0x01\n      add\n      swap1\n      0x20\n      add\n      dup1\n      dup4\n      gt\n      tag_88\n      jumpi\n      dup3\n      swap1\n      sub\n      0x1f\n      and\n      dup3\n      add\n      swap2\n    tag_86:\n      pop\n      pop\n      pop\n      pop\n      pop\n      swap1\n      pop\n        /* \"\\xe5\\x85\\xac\\xe5\\x85\\xb1\\xe6\\x94\\xbf\\xe7\\xad\\x96\\xe5\\xb9\\xb3\\xe5\\x8f\\xb0/EthVoting.sol\":2712:2826  function getProposalName(uint pId) public view returns (string memory s) { ... */\n      swap2\n      swap1\n      pop\n      jump\t// out\n        /* \"\\xe5\\x85\\xac\\xe5\\x85\\xb1\\xe6\\x94\\xbf\\xe7\\xad\\x96\\xe5\\xb9\\xb3\\xe5\\x8f\\xb0/EthVoting.sol\":3145:3255  function getProposalLimit(uint pId) public view returns (uint t) { ... */\n    tag_45:\n        /* \"\\xe5\\x85\\xac\\xe5\\x85\\xb1\\xe6\\x94\\xbf\\xe7\\xad\\x96\\xe5\\xb9\\xb3\\xe5\\x8f\\xb0/EthVoting.sol\":3202:3208  uint t */\n      0x00\n        /* \"\\xe5\\x85\\xac\\xe5\\x85\\xb1\\xe6\\x94\\xbf\\xe7\\xad\\x96\\xe5\\xb9\\xb3\\xe5\\x8f\\xb0/EthVoting.sol\":3223:3232  proposals */\n      dup1\n        /* \"\\xe5\\x85\\xac\\xe5\\x85\\xb1\\xe6\\x94\\xbf\\xe7\\xad\\x96\\xe5\\xb9\\xb3\\xe5\\x8f\\xb0/EthVoting.sol\":3223:3237  proposals[pId] */\n      0x00\n        /* \"\\xe5\\x85\\xac\\xe5\\x85\\xb1\\xe6\\x94\\xbf\\xe7\\xad\\x96\\xe5\\xb9\\xb3\\xe5\\x8f\\xb0/EthVoting.sol\":3233:3236  pId */\n      dup4\n        /* \"\\xe5\\x85\\xac\\xe5\\x85\\xb1\\xe6\\x94\\xbf\\xe7\\xad\\x96\\xe5\\xb9\\xb3\\xe5\\x8f\\xb0/EthVoting.sol\":3223:3237  proposals[pId] */\n      dup2\n      mstore\n      0x20\n      add\n      swap1\n      dup2\n      mstore\n      0x20\n      add\n      0x00\n      keccak256\n        /* \"\\xe5\\x85\\xac\\xe5\\x85\\xb1\\xe6\\x94\\xbf\\xe7\\xad\\x96\\xe5\\xb9\\xb3\\xe5\\x8f\\xb0/EthVoting.sol\":3223:3247  proposals[pId].limitTime */\n      0x05\n      add\n      sload\n        /* \"\\xe5\\x85\\xac\\xe5\\x85\\xb1\\xe6\\x94\\xbf\\xe7\\xad\\x96\\xe5\\xb9\\xb3\\xe5\\x8f\\xb0/EthVoting.sol\":3219:3247  t = proposals[pId].limitTime */\n      swap1\n      pop\n        /* \"\\xe5\\x85\\xac\\xe5\\x85\\xb1\\xe6\\x94\\xbf\\xe7\\xad\\x96\\xe5\\xb9\\xb3\\xe5\\x8f\\xb0/EthVoting.sol\":3145:3255  function getProposalLimit(uint pId) public view returns (uint t) { ... */\n      swap2\n      swap1\n      pop\n      jump\t// out\n        /* \"\\xe5\\x85\\xac\\xe5\\x85\\xb1\\xe6\\x94\\xbf\\xe7\\xad\\x96\\xe5\\xb9\\xb3\\xe5\\x8f\\xb0/EthVoting.sol\":2589:2678  function getBlockTime() public view returns (uint t) { ... */\n    tag_48:\n        /* \"\\xe5\\x85\\xac\\xe5\\x85\\xb1\\xe6\\x94\\xbf\\xe7\\xad\\x96\\xe5\\xb9\\xb3\\xe5\\x8f\\xb0/EthVoting.sol\":2634:2640  uint t */\n      0x00\n        /* \"\\xe5\\x85\\xac\\xe5\\x85\\xb1\\xe6\\x94\\xbf\\xe7\\xad\\x96\\xe5\\xb9\\xb3\\xe5\\x8f\\xb0/EthVoting.sol\":2655:2670  block.timestamp */\n      timestamp\n        /* \"\\xe5\\x85\\xac\\xe5\\x85\\xb1\\xe6\\x94\\xbf\\xe7\\xad\\x96\\xe5\\xb9\\xb3\\xe5\\x8f\\xb0/EthVoting.sol\":2651:2670  t = block.timestamp */\n      swap1\n      pop\n        /* \"\\xe5\\x85\\xac\\xe5\\x85\\xb1\\xe6\\x94\\xbf\\xe7\\xad\\x96\\xe5\\xb9\\xb3\\xe5\\x8f\\xb0/EthVoting.sol\":2589:2678  function getBlockTime() public view returns (uint t) { ... */\n      swap1\n      jump\t// out\n        /* \"\\xe5\\x85\\xac\\xe5\\x85\\xb1\\xe6\\x94\\xbf\\xe7\\xad\\x96\\xe5\\xb9\\xb3\\xe5\\x8f\\xb0/EthVoting.sol\":1505:2247  function doVoting(uint pId) public {... */\n    tag_52:\n        /* \"\\xe5\\x85\\xac\\xe5\\x85\\xb1\\xe6\\x94\\xbf\\xe7\\xad\\x96\\xe5\\xb9\\xb3\\xe5\\x8f\\xb0/EthVoting.sol\":1605:1610  false */\n      0x00\n        /* \"\\xe5\\x85\\xac\\xe5\\x85\\xb1\\xe6\\x94\\xbf\\xe7\\xad\\x96\\xe5\\xb9\\xb3\\xe5\\x8f\\xb0/EthVoting.sol\":1575:1610  proposals[pId].initialized == false */\n      iszero\n      iszero\n        /* \"\\xe5\\x85\\xac\\xe5\\x85\\xb1\\xe6\\x94\\xbf\\xe7\\xad\\x96\\xe5\\xb9\\xb3\\xe5\\x8f\\xb0/EthVoting.sol\":1575:1584  proposals */\n      0x00\n        /* \"\\xe5\\x85\\xac\\xe5\\x85\\xb1\\xe6\\x94\\xbf\\xe7\\xad\\x96\\xe5\\xb9\\xb3\\xe5\\x8f\\xb0/EthVoting.sol\":1575:1589  proposals[pId] */\n      dup1\n        /* \"\\xe5\\x85\\xac\\xe5\\x85\\xb1\\xe6\\x94\\xbf\\xe7\\xad\\x96\\xe5\\xb9\\xb3\\xe5\\x8f\\xb0/EthVoting.sol\":1585:1588  pId */\n      dup4\n        /* \"\\xe5\\x85\\xac\\xe5\\x85\\xb1\\xe6\\x94\\xbf\\xe7\\xad\\x96\\xe5\\xb9\\xb3\\xe5\\x8f\\xb0/EthVoting.sol\":1575:1589  proposals[pId] */\n      dup2\n      mstore\n      0x20\n      add\n      swap1\n      dup2\n      mstore\n      0x20\n      add\n      0x00\n      keccak256\n        /* \"\\xe5\\x85\\xac\\xe5\\x85\\xb1\\xe6\\x94\\xbf\\xe7\\xad\\x96\\xe5\\xb9\\xb3\\xe5\\x8f\\xb0/EthVoting.sol\":1575:1601  proposals[pId].initialized */\n      0x04\n      add\n      0x00\n      swap1\n      sload\n      swap1\n      0x0100\n      exp\n      swap1\n      div\n      0xff\n      and\n        /* \"\\xe5\\x85\\xac\\xe5\\x85\\xb1\\xe6\\x94\\xbf\\xe7\\xad\\x96\\xe5\\xb9\\xb3\\xe5\\x8f\\xb0/EthVoting.sol\":1575:1610  proposals[pId].initialized == false */\n      iszero\n      iszero\n      sub\n        /* \"\\xe5\\x85\\xac\\xe5\\x85\\xb1\\xe6\\x94\\xbf\\xe7\\xad\\x96\\xe5\\xb9\\xb3\\xe5\\x8f\\xb0/EthVoting.sol\":1571:1646  if (proposals[pId].initialized == false)... */\n      tag_92\n      jumpi\n        /* \"\\xe5\\x85\\xac\\xe5\\x85\\xb1\\xe6\\x94\\xbf\\xe7\\xad\\x96\\xe5\\xb9\\xb3\\xe5\\x8f\\xb0/EthVoting.sol\":1618:1646  revert(\"proposal not exist\") */\n      mload(0x40)\n      0x08c379a000000000000000000000000000000000000000000000000000000000\n      dup2\n      mstore\n      0x04\n      add\n      tag_93\n      swap1\n      tag_82\n      jump\t// in\n    tag_93:\n      mload(0x40)\n      dup1\n      swap2\n      sub\n      swap1\n      revert\n        /* \"\\xe5\\x85\\xac\\xe5\\x85\\xb1\\xe6\\x94\\xbf\\xe7\\xad\\x96\\xe5\\xb9\\xb3\\xe5\\x8f\\xb0/EthVoting.sol\":1571:1646  if (proposals[pId].initialized == false)... */\n    tag_92:\n        /* \"\\xe5\\x85\\xac\\xe5\\x85\\xb1\\xe6\\x94\\xbf\\xe7\\xad\\x96\\xe5\\xb9\\xb3\\xe5\\x8f\\xb0/EthVoting.sol\":1657:1673  uint currentTime */\n      0x00\n        /* \"\\xe5\\x85\\xac\\xe5\\x85\\xb1\\xe6\\x94\\xbf\\xe7\\xad\\x96\\xe5\\xb9\\xb3\\xe5\\x8f\\xb0/EthVoting.sol\":1676:1691  block.timestamp */\n      timestamp\n        /* \"\\xe5\\x85\\xac\\xe5\\x85\\xb1\\xe6\\x94\\xbf\\xe7\\xad\\x96\\xe5\\xb9\\xb3\\xe5\\x8f\\xb0/EthVoting.sol\":1657:1691  uint currentTime = block.timestamp */\n      swap1\n      pop\n        /* \"\\xe5\\x85\\xac\\xe5\\x85\\xb1\\xe6\\x94\\xbf\\xe7\\xad\\x96\\xe5\\xb9\\xb3\\xe5\\x8f\\xb0/EthVoting.sol\":1767:1778  currentTime */\n      dup1\n        /* \"\\xe5\\x85\\xac\\xe5\\x85\\xb1\\xe6\\x94\\xbf\\xe7\\xad\\x96\\xe5\\xb9\\xb3\\xe5\\x8f\\xb0/EthVoting.sol\":1740:1749  proposals */\n      0x00\n        /* \"\\xe5\\x85\\xac\\xe5\\x85\\xb1\\xe6\\x94\\xbf\\xe7\\xad\\x96\\xe5\\xb9\\xb3\\xe5\\x8f\\xb0/EthVoting.sol\":1740:1754  proposals[pId] */\n      dup1\n        /* \"\\xe5\\x85\\xac\\xe5\\x85\\xb1\\xe6\\x94\\xbf\\xe7\\xad\\x96\\xe5\\xb9\\xb3\\xe5\\x8f\\xb0/EthVoting.sol\":1750:1753  pId */\n      dup5\n        /* \"\\xe5\\x85\\xac\\xe5\\x85\\xb1\\xe6\\x94\\xbf\\xe7\\xad\\x96\\xe5\\xb9\\xb3\\xe5\\x8f\\xb0/EthVoting.sol\":1740:1754  proposals[pId] */\n      dup2\n      mstore\n      0x20\n      add\n      swap1\n      dup2\n      mstore\n      0x20\n      add\n      0x00\n      keccak256\n        /* \"\\xe5\\x85\\xac\\xe5\\x85\\xb1\\xe6\\x94\\xbf\\xe7\\xad\\x96\\xe5\\xb9\\xb3\\xe5\\x8f\\xb0/EthVoting.sol\":1740:1764  proposals[pId].limitTime */\n      0x05\n      add\n      sload\n        /* \"\\xe5\\x85\\xac\\xe5\\x85\\xb1\\xe6\\x94\\xbf\\xe7\\xad\\x96\\xe5\\xb9\\xb3\\xe5\\x8f\\xb0/EthVoting.sol\":1740:1778  proposals[pId].limitTime < currentTime */\n      lt\n        /* \"\\xe5\\x85\\xac\\xe5\\x85\\xb1\\xe6\\x94\\xbf\\xe7\\xad\\x96\\xe5\\xb9\\xb3\\xe5\\x8f\\xb0/EthVoting.sol\":1736:1814  if (proposals[pId].limitTime < currentTime)... */\n      iszero\n      tag_94\n      jumpi\n        /* \"\\xe5\\x85\\xac\\xe5\\x85\\xb1\\xe6\\x94\\xbf\\xe7\\xad\\x96\\xe5\\xb9\\xb3\\xe5\\x8f\\xb0/EthVoting.sol\":1786:1814  revert(\"exceed voting time\") */\n      mload(0x40)\n      0x08c379a000000000000000000000000000000000000000000000000000000000\n      dup2\n      mstore\n      0x04\n      add\n      tag_95\n      swap1\n      tag_96\n      jump\t// in\n    tag_95:\n      mload(0x40)\n      dup1\n      swap2\n      sub\n      swap1\n      revert\n        /* \"\\xe5\\x85\\xac\\xe5\\x85\\xb1\\xe6\\x94\\xbf\\xe7\\xad\\x96\\xe5\\xb9\\xb3\\xe5\\x8f\\xb0/EthVoting.sol\":1736:1814  if (proposals[pId].limitTime < currentTime)... */\n    tag_94:\n        /* \"\\xe5\\x85\\xac\\xe5\\x85\\xb1\\xe6\\x94\\xbf\\xe7\\xad\\x96\\xe5\\xb9\\xb3\\xe5\\x8f\\xb0/EthVoting.sol\":1906:1910  true */\n      0x01\n        /* \"\\xe5\\x85\\xac\\xe5\\x85\\xb1\\xe6\\x94\\xbf\\xe7\\xad\\x96\\xe5\\xb9\\xb3\\xe5\\x8f\\xb0/EthVoting.sol\":1857:1910  proposals[pId].voters[msg.sender].initialized == true */\n      iszero\n      iszero\n        /* \"\\xe5\\x85\\xac\\xe5\\x85\\xb1\\xe6\\x94\\xbf\\xe7\\xad\\x96\\xe5\\xb9\\xb3\\xe5\\x8f\\xb0/EthVoting.sol\":1857:1866  proposals */\n      0x00\n        /* \"\\xe5\\x85\\xac\\xe5\\x85\\xb1\\xe6\\x94\\xbf\\xe7\\xad\\x96\\xe5\\xb9\\xb3\\xe5\\x8f\\xb0/EthVoting.sol\":1857:1871  proposals[pId] */\n      dup1\n        /* \"\\xe5\\x85\\xac\\xe5\\x85\\xb1\\xe6\\x94\\xbf\\xe7\\xad\\x96\\xe5\\xb9\\xb3\\xe5\\x8f\\xb0/EthVoting.sol\":1867:1870  pId */\n      dup5\n        /* \"\\xe5\\x85\\xac\\xe5\\x85\\xb1\\xe6\\x94\\xbf\\xe7\\xad\\x96\\xe5\\xb9\\xb3\\xe5\\x8f\\xb0/EthVoting.sol\":1857:1871  proposals[pId] */\n      dup2\n      mstore\n      0x20\n      add\n      swap1\n      dup2\n      mstore\n      0x20\n      add\n      0x00\n      keccak256\n        /* \"\\xe5\\x85\\xac\\xe5\\x85\\xb1\\xe6\\x94\\xbf\\xe7\\xad\\x96\\xe5\\xb9\\xb3\\xe5\\x8f\\xb0/EthVoting.sol\":1857:1878  proposals[pId].voters */\n      0x06\n      add\n        /* \"\\xe5\\x85\\xac\\xe5\\x85\\xb1\\xe6\\x94\\xbf\\xe7\\xad\\x96\\xe5\\xb9\\xb3\\xe5\\x8f\\xb0/EthVoting.sol\":1857:1890  proposals[pId].voters[msg.sender] */\n      0x00\n        /* \"\\xe5\\x85\\xac\\xe5\\x85\\xb1\\xe6\\x94\\xbf\\xe7\\xad\\x96\\xe5\\xb9\\xb3\\xe5\\x8f\\xb0/EthVoting.sol\":1879:1889  msg.sender */\n      caller\n        /* \"\\xe5\\x85\\xac\\xe5\\x85\\xb1\\xe6\\x94\\xbf\\xe7\\xad\\x96\\xe5\\xb9\\xb3\\xe5\\x8f\\xb0/EthVoting.sol\":1857:1890  proposals[pId].voters[msg.sender] */\n      0xffffffffffffffffffffffffffffffffffffffff\n      and\n      0xffffffffffffffffffffffffffffffffffffffff\n      and\n      dup2\n      mstore\n      0x20\n      add\n      swap1\n      dup2\n      mstore\n      0x20\n      add\n      0x00\n      keccak256\n        /* \"\\xe5\\x85\\xac\\xe5\\x85\\xb1\\xe6\\x94\\xbf\\xe7\\xad\\x96\\xe5\\xb9\\xb3\\xe5\\x8f\\xb0/EthVoting.sol\":1857:1902  proposals[pId].voters[msg.sender].initialized */\n      0x01\n      add\n      0x00\n      swap1\n      sload\n      swap1\n      0x0100\n      exp\n      swap1\n      div\n      0xff\n      and\n        /* \"\\xe5\\x85\\xac\\xe5\\x85\\xb1\\xe6\\x94\\xbf\\xe7\\xad\\x96\\xe5\\xb9\\xb3\\xe5\\x8f\\xb0/EthVoting.sol\":1857:1910  proposals[pId].voters[msg.sender].initialized == true */\n      iszero\n      iszero\n      sub\n        /* \"\\xe5\\x85\\xac\\xe5\\x85\\xb1\\xe6\\x94\\xbf\\xe7\\xad\\x96\\xe5\\xb9\\xb3\\xe5\\x8f\\xb0/EthVoting.sol\":1853:1939  if (proposals[pId].voters[msg.sender].initialized == true)... */\n      tag_97\n      jumpi\n        /* \"\\xe5\\x85\\xac\\xe5\\x85\\xb1\\xe6\\x94\\xbf\\xe7\\xad\\x96\\xe5\\xb9\\xb3\\xe5\\x8f\\xb0/EthVoting.sol\":1917:1939  revert(\"already vote\") */\n      mload(0x40)\n      0x08c379a000000000000000000000000000000000000000000000000000000000\n      dup2\n      mstore\n      0x04\n      add\n      tag_98\n      swap1\n      tag_99\n      jump\t// in\n    tag_98:\n      mload(0x40)\n      dup1\n      swap2\n      sub\n      swap1\n      revert\n        /* \"\\xe5\\x85\\xac\\xe5\\x85\\xb1\\xe6\\x94\\xbf\\xe7\\xad\\x96\\xe5\\xb9\\xb3\\xe5\\x8f\\xb0/EthVoting.sol\":1853:1939  if (proposals[pId].voters[msg.sender].initialized == true)... */\n    tag_97:\n        /* \"\\xe5\\x85\\xac\\xe5\\x85\\xb1\\xe6\\x94\\xbf\\xe7\\xad\\x96\\xe5\\xb9\\xb3\\xe5\\x8f\\xb0/EthVoting.sol\":1972:1990  Voter memory voter */\n      0x00\n        /* \"\\xe5\\x85\\xac\\xe5\\x85\\xb1\\xe6\\x94\\xbf\\xe7\\xad\\x96\\xe5\\xb9\\xb3\\xe5\\x8f\\xb0/EthVoting.sol\":1993:2071  Voter({... */\n      mload(0x40)\n      dup1\n      0x40\n      add\n      0x40\n      mstore\n      dup1\n        /* \"\\xe5\\x85\\xac\\xe5\\x85\\xb1\\xe6\\x94\\xbf\\xe7\\xad\\x96\\xe5\\xb9\\xb3\\xe5\\x8f\\xb0/EthVoting.sol\":2023:2038  block.timestamp */\n      timestamp\n        /* \"\\xe5\\x85\\xac\\xe5\\x85\\xb1\\xe6\\x94\\xbf\\xe7\\xad\\x96\\xe5\\xb9\\xb3\\xe5\\x8f\\xb0/EthVoting.sol\":1993:2071  Voter({... */\n      dup2\n      mstore\n      0x20\n      add\n        /* \"\\xe5\\x85\\xac\\xe5\\x85\\xb1\\xe6\\x94\\xbf\\xe7\\xad\\x96\\xe5\\xb9\\xb3\\xe5\\x8f\\xb0/EthVoting.sol\":2060:2064  true */\n      0x01\n        /* \"\\xe5\\x85\\xac\\xe5\\x85\\xb1\\xe6\\x94\\xbf\\xe7\\xad\\x96\\xe5\\xb9\\xb3\\xe5\\x8f\\xb0/EthVoting.sol\":1993:2071  Voter({... */\n      iszero\n      iszero\n      dup2\n      mstore\n      pop\n        /* \"\\xe5\\x85\\xac\\xe5\\x85\\xb1\\xe6\\x94\\xbf\\xe7\\xad\\x96\\xe5\\xb9\\xb3\\xe5\\x8f\\xb0/EthVoting.sol\":1972:2071  Voter memory voter = Voter({... */\n      swap1\n      pop\n        /* \"\\xe5\\x85\\xac\\xe5\\x85\\xb1\\xe6\\x94\\xbf\\xe7\\xad\\x96\\xe5\\xb9\\xb3\\xe5\\x8f\\xb0/EthVoting.sol\":2144:2149  voter */\n      dup1\n        /* \"\\xe5\\x85\\xac\\xe5\\x85\\xb1\\xe6\\x94\\xbf\\xe7\\xad\\x96\\xe5\\xb9\\xb3\\xe5\\x8f\\xb0/EthVoting.sol\":2108:2117  proposals */\n      0x00\n        /* \"\\xe5\\x85\\xac\\xe5\\x85\\xb1\\xe6\\x94\\xbf\\xe7\\xad\\x96\\xe5\\xb9\\xb3\\xe5\\x8f\\xb0/EthVoting.sol\":2108:2122  proposals[pId] */\n      dup1\n        /* \"\\xe5\\x85\\xac\\xe5\\x85\\xb1\\xe6\\x94\\xbf\\xe7\\xad\\x96\\xe5\\xb9\\xb3\\xe5\\x8f\\xb0/EthVoting.sol\":2118:2121  pId */\n      dup6\n        /* \"\\xe5\\x85\\xac\\xe5\\x85\\xb1\\xe6\\x94\\xbf\\xe7\\xad\\x96\\xe5\\xb9\\xb3\\xe5\\x8f\\xb0/EthVoting.sol\":2108:2122  proposals[pId] */\n      dup2\n      mstore\n      0x20\n      add\n      swap1\n      dup2\n      mstore\n      0x20\n      add\n      0x00\n      keccak256\n        /* \"\\xe5\\x85\\xac\\xe5\\x85\\xb1\\xe6\\x94\\xbf\\xe7\\xad\\x96\\xe5\\xb9\\xb3\\xe5\\x8f\\xb0/EthVoting.sol\":2108:2129  proposals[pId].voters */\n      0x06\n      add\n        /* \"\\xe5\\x85\\xac\\xe5\\x85\\xb1\\xe6\\x94\\xbf\\xe7\\xad\\x96\\xe5\\xb9\\xb3\\xe5\\x8f\\xb0/EthVoting.sol\":2108:2141  proposals[pId].voters[msg.sender] */\n      0x00\n        /* \"\\xe5\\x85\\xac\\xe5\\x85\\xb1\\xe6\\x94\\xbf\\xe7\\xad\\x96\\xe5\\xb9\\xb3\\xe5\\x8f\\xb0/EthVoting.sol\":2130:2140  msg.sender */\n      caller\n        /* \"\\xe5\\x85\\xac\\xe5\\x85\\xb1\\xe6\\x94\\xbf\\xe7\\xad\\x96\\xe5\\xb9\\xb3\\xe5\\x8f\\xb0/EthVoting.sol\":2108:2141  proposals[pId].voters[msg.sender] */\n      0xffffffffffffffffffffffffffffffffffffffff\n      and\n      0xffffffffffffffffffffffffffffffffffffffff\n      and\n      dup2\n      mstore\n      0x20\n      add\n      swap1\n      dup2\n      mstore\n      0x20\n      add\n      0x00\n      keccak256\n        /* \"\\xe5\\x85\\xac\\xe5\\x85\\xb1\\xe6\\x94\\xbf\\xe7\\xad\\x96\\xe5\\xb9\\xb3\\xe5\\x8f\\xb0/EthVoting.sol\":2108:2149  proposals[pId].voters[msg.sender] = voter */\n      0x00\n      dup3\n      add\n      mload\n      dup2\n      0x00\n      add\n      sstore\n      0x20\n      dup3\n      add\n      mload\n      dup2\n      0x01\n      add\n      exp(0x0100, 0x00)\n      dup2\n      sload\n      dup2\n      0xff\n      mul\n      not\n      and\n      swap1\n      dup4\n      iszero\n      iszero\n      mul\n      or\n      swap1\n      sstore\n      pop\n      swap1\n      pop\n      pop\n        /* \"\\xe5\\x85\\xac\\xe5\\x85\\xb1\\xe6\\x94\\xbf\\xe7\\xad\\x96\\xe5\\xb9\\xb3\\xe5\\x8f\\xb0/EthVoting.sol\":2181:2182  1 */\n      0x01\n        /* \"\\xe5\\x85\\xac\\xe5\\x85\\xb1\\xe6\\x94\\xbf\\xe7\\xad\\x96\\xe5\\xb9\\xb3\\xe5\\x8f\\xb0/EthVoting.sol\":2155:2164  proposals */\n      0x00\n        /* \"\\xe5\\x85\\xac\\xe5\\x85\\xb1\\xe6\\x94\\xbf\\xe7\\xad\\x96\\xe5\\xb9\\xb3\\xe5\\x8f\\xb0/EthVoting.sol\":2155:2169  proposals[pId] */\n      dup1\n        /* \"\\xe5\\x85\\xac\\xe5\\x85\\xb1\\xe6\\x94\\xbf\\xe7\\xad\\x96\\xe5\\xb9\\xb3\\xe5\\x8f\\xb0/EthVoting.sol\":2165:2168  pId */\n      dup6\n        /* \"\\xe5\\x85\\xac\\xe5\\x85\\xb1\\xe6\\x94\\xbf\\xe7\\xad\\x96\\xe5\\xb9\\xb3\\xe5\\x8f\\xb0/EthVoting.sol\":2155:2169  proposals[pId] */\n      dup2\n      mstore\n      0x20\n      add\n      swap1\n      dup2\n      mstore\n      0x20\n      add\n      0x00\n      keccak256\n        /* \"\\xe5\\x85\\xac\\xe5\\x85\\xb1\\xe6\\x94\\xbf\\xe7\\xad\\x96\\xe5\\xb9\\xb3\\xe5\\x8f\\xb0/EthVoting.sol\":2155:2179  proposals[pId].voteCount */\n      0x03\n      add\n      0x00\n        /* \"\\xe5\\x85\\xac\\xe5\\x85\\xb1\\xe6\\x94\\xbf\\xe7\\xad\\x96\\xe5\\xb9\\xb3\\xe5\\x8f\\xb0/EthVoting.sol\":2155:2182  proposals[pId].voteCount+=1 */\n      dup3\n      dup3\n      sload\n      tag_100\n      swap2\n      swap1\n      tag_101\n      jump\t// in\n    tag_100:\n      swap3\n      pop\n      pop\n      dup2\n      swap1\n      sstore\n      pop\n        /* \"\\xe5\\x85\\xac\\xe5\\x85\\xb1\\xe6\\x94\\xbf\\xe7\\xad\\x96\\xe5\\xb9\\xb3\\xe5\\x8f\\xb0/EthVoting.sol\":2198:2242  VoteEvt(\"vote\", msg.sender, block.timestamp) */\n      mload(0x40)\n      tag_102\n      swap1\n      tag_103\n      jump\t// in\n    tag_102:\n      mload(0x40)\n      dup1\n      swap2\n      sub\n      swap1\n      keccak256\n      0x6e1d6794e13b69f31305f22ea91ab03481b376fdf800c35bb36b6b582c25f193\n        /* \"\\xe5\\x85\\xac\\xe5\\x85\\xb1\\xe6\\x94\\xbf\\xe7\\xad\\x96\\xe5\\xb9\\xb3\\xe5\\x8f\\xb0/EthVoting.sol\":2214:2224  msg.sender */\n      caller\n        /* \"\\xe5\\x85\\xac\\xe5\\x85\\xb1\\xe6\\x94\\xbf\\xe7\\xad\\x96\\xe5\\xb9\\xb3\\xe5\\x8f\\xb0/EthVoting.sol\":2226:2241  block.timestamp */\n      timestamp\n        /* \"\\xe5\\x85\\xac\\xe5\\x85\\xb1\\xe6\\x94\\xbf\\xe7\\xad\\x96\\xe5\\xb9\\xb3\\xe5\\x8f\\xb0/EthVoting.sol\":2198:2242  VoteEvt(\"vote\", msg.sender, block.timestamp) */\n      mload(0x40)\n      tag_104\n      swap3\n      swap2\n      swap1\n      tag_105\n      jump\t// in\n    tag_104:\n      mload(0x40)\n      dup1\n      swap2\n      sub\n      swap1\n      log2\n        /* \"\\xe5\\x85\\xac\\xe5\\x85\\xb1\\xe6\\x94\\xbf\\xe7\\xad\\x96\\xe5\\xb9\\xb3\\xe5\\x8f\\xb0/EthVoting.sol\":1540:2247  {... */\n      pop\n      pop\n        /* \"\\xe5\\x85\\xac\\xe5\\x85\\xb1\\xe6\\x94\\xbf\\xe7\\xad\\x96\\xe5\\xb9\\xb3\\xe5\\x8f\\xb0/EthVoting.sol\":1505:2247  function doVoting(uint pId) public {... */\n      pop\n      jump\t// out\n        /* \"#utility.yul\":7:82   */\n    tag_106:\n        /* \"#utility.yul\":40:46   */\n      0x00\n        /* \"#utility.yul\":73:75   */\n      0x40\n        /* \"#utility.yul\":67:76   */\n      mload\n        /* \"#utility.yul\":57:76   */\n      swap1\n      pop\n        /* \"#utility.yul\":7:82   */\n      swap1\n      jump\t// out\n        /* \"#utility.yul\":88:205   */\n    tag_107:\n        /* \"#utility.yul\":197:198   */\n      0x00\n        /* \"#utility.yul\":194:195   */\n      dup1\n        /* \"#utility.yul\":187:199   */\n      revert\n        /* \"#utility.yul\":211:328   */\n    tag_108:\n        /* \"#utility.yul\":320:321   */\n      0x00\n        /* \"#utility.yul\":317:318   */\n      dup1\n        /* \"#utility.yul\":310:322   */\n      revert\n        /* \"#utility.yul\":334:411   */\n    tag_109:\n        /* \"#utility.yul\":371:378   */\n      0x00\n        /* \"#utility.yul\":400:405   */\n      dup2\n        /* \"#utility.yul\":389:405   */\n      swap1\n      pop\n        /* \"#utility.yul\":334:411   */\n      swap2\n      swap1\n      pop\n      jump\t// out\n        /* \"#utility.yul\":417:539   */\n    tag_110:\n        /* \"#utility.yul\":490:514   */\n      tag_168\n        /* \"#utility.yul\":508:513   */\n      dup2\n        /* \"#utility.yul\":490:514   */\n      tag_109\n      jump\t// in\n    tag_168:\n        /* \"#utility.yul\":483:488   */\n      dup2\n        /* \"#utility.yul\":480:515   */\n      eq\n        /* \"#utility.yul\":470:533   */\n      tag_169\n      jumpi\n        /* \"#utility.yul\":529:530   */\n      0x00\n        /* \"#utility.yul\":526:527   */\n      dup1\n        /* \"#utility.yul\":519:531   */\n      revert\n        /* \"#utility.yul\":470:533   */\n    tag_169:\n        /* \"#utility.yul\":417:539   */\n      pop\n      jump\t// out\n        /* \"#utility.yul\":545:684   */\n    tag_111:\n        /* \"#utility.yul\":591:596   */\n      0x00\n        /* \"#utility.yul\":629:635   */\n      dup2\n        /* \"#utility.yul\":616:636   */\n      calldataload\n        /* \"#utility.yul\":607:636   */\n      swap1\n      pop\n        /* \"#utility.yul\":645:678   */\n      tag_171\n        /* \"#utility.yul\":672:677   */\n      dup2\n        /* \"#utility.yul\":645:678   */\n      tag_110\n      jump\t// in\n    tag_171:\n        /* \"#utility.yul\":545:684   */\n      swap3\n      swap2\n      pop\n      pop\n      jump\t// out\n        /* \"#utility.yul\":690:1019   */\n    tag_15:\n        /* \"#utility.yul\":749:755   */\n      0x00\n        /* \"#utility.yul\":798:800   */\n      0x20\n        /* \"#utility.yul\":786:795   */\n      dup3\n        /* \"#utility.yul\":777:784   */\n      dup5\n        /* \"#utility.yul\":773:796   */\n      sub\n        /* \"#utility.yul\":769:801   */\n      slt\n        /* \"#utility.yul\":766:885   */\n      iszero\n      tag_173\n      jumpi\n        /* \"#utility.yul\":804:883   */\n      tag_174\n      tag_107\n      jump\t// in\n    tag_174:\n        /* \"#utility.yul\":766:885   */\n    tag_173:\n        /* \"#utility.yul\":924:925   */\n      0x00\n        /* \"#utility.yul\":949:1002   */\n      tag_175\n        /* \"#utility.yul\":994:1001   */\n      dup5\n        /* \"#utility.yul\":985:991   */\n      dup3\n        /* \"#utility.yul\":974:983   */\n      dup6\n        /* \"#utility.yul\":970:992   */\n      add\n        /* \"#utility.yul\":949:1002   */\n      tag_111\n      jump\t// in\n    tag_175:\n        /* \"#utility.yul\":939:1002   */\n      swap2\n      pop\n        /* \"#utility.yul\":895:1012   */\n      pop\n        /* \"#utility.yul\":690:1019   */\n      swap3\n      swap2\n      pop\n      pop\n      jump\t// out\n        /* \"#utility.yul\":1025:1124   */\n    tag_112:\n        /* \"#utility.yul\":1077:1083   */\n      0x00\n        /* \"#utility.yul\":1111:1116   */\n      dup2\n        /* \"#utility.yul\":1105:1117   */\n      mload\n        /* \"#utility.yul\":1095:1117   */\n      swap1\n      pop\n        /* \"#utility.yul\":1025:1124   */\n      swap2\n      swap1\n      pop\n      jump\t// out\n        /* \"#utility.yul\":1130:1299   */\n    tag_113:\n        /* \"#utility.yul\":1214:1225   */\n      0x00\n        /* \"#utility.yul\":1248:1254   */\n      dup3\n        /* \"#utility.yul\":1243:1246   */\n      dup3\n        /* \"#utility.yul\":1236:1255   */\n      mstore\n        /* \"#utility.yul\":1288:1292   */\n      0x20\n        /* \"#utility.yul\":1283:1286   */\n      dup3\n        /* \"#utility.yul\":1279:1293   */\n      add\n        /* \"#utility.yul\":1264:1293   */\n      swap1\n      pop\n        /* \"#utility.yul\":1130:1299   */\n      swap3\n      swap2\n      pop\n      pop\n      jump\t// out\n        /* \"#utility.yul\":1305:1551   */\n    tag_114:\n        /* \"#utility.yul\":1386:1387   */\n      0x00\n        /* \"#utility.yul\":1396:1509   */\n    tag_179:\n        /* \"#utility.yul\":1410:1416   */\n      dup4\n        /* \"#utility.yul\":1407:1408   */\n      dup2\n        /* \"#utility.yul\":1404:1417   */\n      lt\n        /* \"#utility.yul\":1396:1509   */\n      iszero\n      tag_181\n      jumpi\n        /* \"#utility.yul\":1495:1496   */\n      dup1\n        /* \"#utility.yul\":1490:1493   */\n      dup3\n        /* \"#utility.yul\":1486:1497   */\n      add\n        /* \"#utility.yul\":1480:1498   */\n      mload\n        /* \"#utility.yul\":1476:1477   */\n      dup2\n        /* \"#utility.yul\":1471:1474   */\n      dup5\n        /* \"#utility.yul\":1467:1478   */\n      add\n        /* \"#utility.yul\":1460:1499   */\n      mstore\n        /* \"#utility.yul\":1432:1434   */\n      0x20\n        /* \"#utility.yul\":1429:1430   */\n      dup2\n        /* \"#utility.yul\":1425:1435   */\n      add\n        /* \"#utility.yul\":1420:1435   */\n      swap1\n      pop\n        /* \"#utility.yul\":1396:1509   */\n      jump(tag_179)\n    tag_181:\n        /* \"#utility.yul\":1543:1544   */\n      0x00\n        /* \"#utility.yul\":1534:1540   */\n      dup5\n        /* \"#utility.yul\":1529:1532   */\n      dup5\n        /* \"#utility.yul\":1525:1541   */\n      add\n        /* \"#utility.yul\":1518:1545   */\n      mstore\n        /* \"#utility.yul\":1367:1551   */\n      pop\n        /* \"#utility.yul\":1305:1551   */\n      pop\n      pop\n      pop\n      jump\t// out\n        /* \"#utility.yul\":1557:1659   */\n    tag_115:\n        /* \"#utility.yul\":1598:1604   */\n      0x00\n        /* \"#utility.yul\":1649:1651   */\n      0x1f\n        /* \"#utility.yul\":1645:1652   */\n      not\n        /* \"#utility.yul\":1640:1642   */\n      0x1f\n        /* \"#utility.yul\":1633:1638   */\n      dup4\n        /* \"#utility.yul\":1629:1643   */\n      add\n        /* \"#utility.yul\":1625:1653   */\n      and\n        /* \"#utility.yul\":1615:1653   */\n      swap1\n      pop\n        /* \"#utility.yul\":1557:1659   */\n      swap2\n      swap1\n      pop\n      jump\t// out\n        /* \"#utility.yul\":1665:2042   */\n    tag_116:\n        /* \"#utility.yul\":1753:1756   */\n      0x00\n        /* \"#utility.yul\":1781:1820   */\n      tag_184\n        /* \"#utility.yul\":1814:1819   */\n      dup3\n        /* \"#utility.yul\":1781:1820   */\n      tag_112\n      jump\t// in\n    tag_184:\n        /* \"#utility.yul\":1836:1907   */\n      tag_185\n        /* \"#utility.yul\":1900:1906   */\n      dup2\n        /* \"#utility.yul\":1895:1898   */\n      dup6\n        /* \"#utility.yul\":1836:1907   */\n      tag_113\n      jump\t// in\n    tag_185:\n        /* \"#utility.yul\":1829:1907   */\n      swap4\n      pop\n        /* \"#utility.yul\":1916:1981   */\n      tag_186\n        /* \"#utility.yul\":1974:1980   */\n      dup2\n        /* \"#utility.yul\":1969:1972   */\n      dup6\n        /* \"#utility.yul\":1962:1966   */\n      0x20\n        /* \"#utility.yul\":1955:1960   */\n      dup7\n        /* \"#utility.yul\":1951:1967   */\n      add\n        /* \"#utility.yul\":1916:1981   */\n      tag_114\n      jump\t// in\n    tag_186:\n        /* \"#utility.yul\":2006:2035   */\n      tag_187\n        /* \"#utility.yul\":2028:2034   */\n      dup2\n        /* \"#utility.yul\":2006:2035   */\n      tag_115\n      jump\t// in\n    tag_187:\n        /* \"#utility.yul\":2001:2004   */\n      dup5\n        /* \"#utility.yul\":1997:2036   */\n      add\n        /* \"#utility.yul\":1990:2036   */\n      swap2\n      pop\n        /* \"#utility.yul\":1757:2042   */\n      pop\n        /* \"#utility.yul\":1665:2042   */\n      swap3\n      swap2\n      pop\n      pop\n      jump\t// out\n        /* \"#utility.yul\":2048:2174   */\n    tag_117:\n        /* \"#utility.yul\":2085:2092   */\n      0x00\n        /* \"#utility.yul\":2125:2167   */\n      0xffffffffffffffffffffffffffffffffffffffff\n        /* \"#utility.yul\":2118:2123   */\n      dup3\n        /* \"#utility.yul\":2114:2168   */\n      and\n        /* \"#utility.yul\":2103:2168   */\n      swap1\n      pop\n        /* \"#utility.yul\":2048:2174   */\n      swap2\n      swap1\n      pop\n      jump\t// out\n        /* \"#utility.yul\":2180:2276   */\n    tag_118:\n        /* \"#utility.yul\":2217:2224   */\n      0x00\n        /* \"#utility.yul\":2246:2270   */\n      tag_190\n        /* \"#utility.yul\":2264:2269   */\n      dup3\n        /* \"#utility.yul\":2246:2270   */\n      tag_117\n      jump\t// in\n    tag_190:\n        /* \"#utility.yul\":2235:2270   */\n      swap1\n      pop\n        /* \"#utility.yul\":2180:2276   */\n      swap2\n      swap1\n      pop\n      jump\t// out\n        /* \"#utility.yul\":2282:2400   */\n    tag_119:\n        /* \"#utility.yul\":2369:2393   */\n      tag_192\n        /* \"#utility.yul\":2387:2392   */\n      dup2\n        /* \"#utility.yul\":2369:2393   */\n      tag_118\n      jump\t// in\n    tag_192:\n        /* \"#utility.yul\":2364:2367   */\n      dup3\n        /* \"#utility.yul\":2357:2394   */\n      mstore\n        /* \"#utility.yul\":2282:2400   */\n      pop\n      pop\n      jump\t// out\n        /* \"#utility.yul\":2406:2524   */\n    tag_120:\n        /* \"#utility.yul\":2493:2517   */\n      tag_194\n        /* \"#utility.yul\":2511:2516   */\n      dup2\n        /* \"#utility.yul\":2493:2517   */\n      tag_109\n      jump\t// in\n    tag_194:\n        /* \"#utility.yul\":2488:2491   */\n      dup3\n        /* \"#utility.yul\":2481:2518   */\n      mstore\n        /* \"#utility.yul\":2406:2524   */\n      pop\n      pop\n      jump\t// out\n        /* \"#utility.yul\":2530:2620   */\n    tag_121:\n        /* \"#utility.yul\":2564:2571   */\n      0x00\n        /* \"#utility.yul\":2607:2612   */\n      dup2\n        /* \"#utility.yul\":2600:2613   */\n      iszero\n        /* \"#utility.yul\":2593:2614   */\n      iszero\n        /* \"#utility.yul\":2582:2614   */\n      swap1\n      pop\n        /* \"#utility.yul\":2530:2620   */\n      swap2\n      swap1\n      pop\n      jump\t// out\n        /* \"#utility.yul\":2626:2735   */\n    tag_122:\n        /* \"#utility.yul\":2707:2728   */\n      tag_197\n        /* \"#utility.yul\":2722:2727   */\n      dup2\n        /* \"#utility.yul\":2707:2728   */\n      tag_121\n      jump\t// in\n    tag_197:\n        /* \"#utility.yul\":2702:2705   */\n      dup3\n        /* \"#utility.yul\":2695:2729   */\n      mstore\n        /* \"#utility.yul\":2626:2735   */\n      pop\n      pop\n      jump\t// out\n        /* \"#utility.yul\":2741:3686   */\n    tag_18:\n        /* \"#utility.yul\":3008:3012   */\n      0x00\n        /* \"#utility.yul\":3046:3049   */\n      0xc0\n        /* \"#utility.yul\":3035:3044   */\n      dup3\n        /* \"#utility.yul\":3031:3050   */\n      add\n        /* \"#utility.yul\":3023:3050   */\n      swap1\n      pop\n        /* \"#utility.yul\":3096:3105   */\n      dup2\n        /* \"#utility.yul\":3090:3094   */\n      dup2\n        /* \"#utility.yul\":3086:3106   */\n      sub\n        /* \"#utility.yul\":3082:3083   */\n      0x00\n        /* \"#utility.yul\":3071:3080   */\n      dup4\n        /* \"#utility.yul\":3067:3084   */\n      add\n        /* \"#utility.yul\":3060:3107   */\n      mstore\n        /* \"#utility.yul\":3124:3202   */\n      tag_199\n        /* \"#utility.yul\":3197:3201   */\n      dup2\n        /* \"#utility.yul\":3188:3194   */\n      dup10\n        /* \"#utility.yul\":3124:3202   */\n      tag_116\n      jump\t// in\n    tag_199:\n        /* \"#utility.yul\":3116:3202   */\n      swap1\n      pop\n        /* \"#utility.yul\":3249:3258   */\n      dup2\n        /* \"#utility.yul\":3243:3247   */\n      dup2\n        /* \"#utility.yul\":3239:3259   */\n      sub\n        /* \"#utility.yul\":3234:3236   */\n      0x20\n        /* \"#utility.yul\":3223:3232   */\n      dup4\n        /* \"#utility.yul\":3219:3237   */\n      add\n        /* \"#utility.yul\":3212:3260   */\n      mstore\n        /* \"#utility.yul\":3277:3355   */\n      tag_200\n        /* \"#utility.yul\":3350:3354   */\n      dup2\n        /* \"#utility.yul\":3341:3347   */\n      dup9\n        /* \"#utility.yul\":3277:3355   */\n      tag_116\n      jump\t// in\n    tag_200:\n        /* \"#utility.yul\":3269:3355   */\n      swap1\n      pop\n        /* \"#utility.yul\":3365:3437   */\n      tag_201\n        /* \"#utility.yul\":3433:3435   */\n      0x40\n        /* \"#utility.yul\":3422:3431   */\n      dup4\n        /* \"#utility.yul\":3418:3436   */\n      add\n        /* \"#utility.yul\":3409:3415   */\n      dup8\n        /* \"#utility.yul\":3365:3437   */\n      tag_119\n      jump\t// in\n    tag_201:\n        /* \"#utility.yul\":3447:3519   */\n      tag_202\n        /* \"#utility.yul\":3515:3517   */\n      0x60\n        /* \"#utility.yul\":3504:3513   */\n      dup4\n        /* \"#utility.yul\":3500:3518   */\n      add\n        /* \"#utility.yul\":3491:3497   */\n      dup7\n        /* \"#utility.yul\":3447:3519   */\n      tag_120\n      jump\t// in\n    tag_202:\n        /* \"#utility.yul\":3529:3596   */\n      tag_203\n        /* \"#utility.yul\":3591:3594   */\n      0x80\n        /* \"#utility.yul\":3580:3589   */\n      dup4\n        /* \"#utility.yul\":3576:3595   */\n      add\n        /* \"#utility.yul\":3567:3573   */\n      dup6\n        /* \"#utility.yul\":3529:3596   */\n      tag_122\n      jump\t// in\n    tag_203:\n        /* \"#utility.yul\":3606:3679   */\n      tag_204\n        /* \"#utility.yul\":3674:3677   */\n      0xa0\n        /* \"#utility.yul\":3663:3672   */\n      dup4\n        /* \"#utility.yul\":3659:3678   */\n      add\n        /* \"#utility.yul\":3650:3656   */\n      dup5\n        /* \"#utility.yul\":3606:3679   */\n      tag_120\n      jump\t// in\n    tag_204:\n        /* \"#utility.yul\":2741:3686   */\n      swap8\n      swap7\n      pop\n      pop\n      pop\n      pop\n      pop\n      pop\n      pop\n      jump\t// out\n        /* \"#utility.yul\":3692:3809   */\n    tag_123:\n        /* \"#utility.yul\":3801:3802   */\n      0x00\n        /* \"#utility.yul\":3798:3799   */\n      dup1\n        /* \"#utility.yul\":3791:3803   */\n      revert\n        /* \"#utility.yul\":3815:3932   */\n    tag_124:\n        /* \"#utility.yul\":3924:3925   */\n      0x00\n        /* \"#utility.yul\":3921:3922   */\n      dup1\n        /* \"#utility.yul\":3914:3926   */\n      revert\n        /* \"#utility.yul\":3938:4118   */\n    tag_125:\n        /* \"#utility.yul\":3986:4063   */\n      0x4e487b7100000000000000000000000000000000000000000000000000000000\n        /* \"#utility.yul\":3983:3984   */\n      0x00\n        /* \"#utility.yul\":3976:4064   */\n      mstore\n        /* \"#utility.yul\":4083:4087   */\n      0x41\n        /* \"#utility.yul\":4080:4081   */\n      0x04\n        /* \"#utility.yul\":4073:4088   */\n      mstore\n        /* \"#utility.yul\":4107:4111   */\n      0x24\n        /* \"#utility.yul\":4104:4105   */\n      0x00\n        /* \"#utility.yul\":4097:4112   */\n      revert\n        /* \"#utility.yul\":4124:4405   */\n    tag_126:\n        /* \"#utility.yul\":4207:4234   */\n      tag_209\n        /* \"#utility.yul\":4229:4233   */\n      dup3\n        /* \"#utility.yul\":4207:4234   */\n      tag_115\n      jump\t// in\n    tag_209:\n        /* \"#utility.yul\":4199:4205   */\n      dup2\n        /* \"#utility.yul\":4195:4235   */\n      add\n        /* \"#utility.yul\":4337:4343   */\n      dup2\n        /* \"#utility.yul\":4325:4335   */\n      dup2\n        /* \"#utility.yul\":4322:4344   */\n      lt\n        /* \"#utility.yul\":4301:4319   */\n      0xffffffffffffffff\n        /* \"#utility.yul\":4289:4299   */\n      dup3\n        /* \"#utility.yul\":4286:4320   */\n      gt\n        /* \"#utility.yul\":4283:4345   */\n      or\n        /* \"#utility.yul\":4280:4368   */\n      iszero\n      tag_210\n      jumpi\n        /* \"#utility.yul\":4348:4366   */\n      tag_211\n      tag_125\n      jump\t// in\n    tag_211:\n        /* \"#utility.yul\":4280:4368   */\n    tag_210:\n        /* \"#utility.yul\":4388:4398   */\n      dup1\n        /* \"#utility.yul\":4384:4386   */\n      0x40\n        /* \"#utility.yul\":4377:4399   */\n      mstore\n        /* \"#utility.yul\":4167:4405   */\n      pop\n        /* \"#utility.yul\":4124:4405   */\n      pop\n      pop\n      jump\t// out\n        /* \"#utility.yul\":4411:4540   */\n    tag_127:\n        /* \"#utility.yul\":4445:4451   */\n      0x00\n        /* \"#utility.yul\":4472:4492   */\n      tag_213\n      tag_106\n      jump\t// in\n    tag_213:\n        /* \"#utility.yul\":4462:4492   */\n      swap1\n      pop\n        /* \"#utility.yul\":4501:4534   */\n      tag_214\n        /* \"#utility.yul\":4529:4533   */\n      dup3\n        /* \"#utility.yul\":4521:4527   */\n      dup3\n        /* \"#utility.yul\":4501:4534   */\n      tag_126\n      jump\t// in\n    tag_214:\n        /* \"#utility.yul\":4411:4540   */\n      swap2\n      swap1\n      pop\n      jump\t// out\n        /* \"#utility.yul\":4546:4854   */\n    tag_128:\n        /* \"#utility.yul\":4608:4612   */\n      0x00\n        /* \"#utility.yul\":4698:4716   */\n      0xffffffffffffffff\n        /* \"#utility.yul\":4690:4696   */\n      dup3\n        /* \"#utility.yul\":4687:4717   */\n      gt\n        /* \"#utility.yul\":4684:4740   */\n      iszero\n      tag_216\n      jumpi\n        /* \"#utility.yul\":4720:4738   */\n      tag_217\n      tag_125\n      jump\t// in\n    tag_217:\n        /* \"#utility.yul\":4684:4740   */\n    tag_216:\n        /* \"#utility.yul\":4758:4787   */\n      tag_218\n        /* \"#utility.yul\":4780:4786   */\n      dup3\n        /* \"#utility.yul\":4758:4787   */\n      tag_115\n      jump\t// in\n    tag_218:\n        /* \"#utility.yul\":4750:4787   */\n      swap1\n      pop\n        /* \"#utility.yul\":4842:4846   */\n      0x20\n        /* \"#utility.yul\":4836:4840   */\n      dup2\n        /* \"#utility.yul\":4832:4847   */\n      add\n        /* \"#utility.yul\":4824:4847   */\n      swap1\n      pop\n        /* \"#utility.yul\":4546:4854   */\n      swap2\n      swap1\n      pop\n      jump\t// out\n        /* \"#utility.yul\":4860:5006   */\n    tag_129:\n        /* \"#utility.yul\":4957:4963   */\n      dup3\n        /* \"#utility.yul\":4952:4955   */\n      dup2\n        /* \"#utility.yul\":4947:4950   */\n      dup4\n        /* \"#utility.yul\":4934:4964   */\n      calldatacopy\n        /* \"#utility.yul\":4998:4999   */\n      0x00\n        /* \"#utility.yul\":4989:4995   */\n      dup4\n        /* \"#utility.yul\":4984:4987   */\n      dup4\n        /* \"#utility.yul\":4980:4996   */\n      add\n        /* \"#utility.yul\":4973:5000   */\n      mstore\n        /* \"#utility.yul\":4860:5006   */\n      pop\n      pop\n      pop\n      jump\t// out\n        /* \"#utility.yul\":5012:5437   */\n    tag_130:\n        /* \"#utility.yul\":5090:5095   */\n      0x00\n        /* \"#utility.yul\":5115:5181   */\n      tag_221\n        /* \"#utility.yul\":5131:5180   */\n      tag_222\n        /* \"#utility.yul\":5173:5179   */\n      dup5\n        /* \"#utility.yul\":5131:5180   */\n      tag_128\n      jump\t// in\n    tag_222:\n        /* \"#utility.yul\":5115:5181   */\n      tag_127\n      jump\t// in\n    tag_221:\n        /* \"#utility.yul\":5106:5181   */\n      swap1\n      pop\n        /* \"#utility.yul\":5204:5210   */\n      dup3\n        /* \"#utility.yul\":5197:5202   */\n      dup2\n        /* \"#utility.yul\":5190:5211   */\n      mstore\n        /* \"#utility.yul\":5242:5246   */\n      0x20\n        /* \"#utility.yul\":5235:5240   */\n      dup2\n        /* \"#utility.yul\":5231:5247   */\n      add\n        /* \"#utility.yul\":5280:5283   */\n      dup5\n        /* \"#utility.yul\":5271:5277   */\n      dup5\n        /* \"#utility.yul\":5266:5269   */\n      dup5\n        /* \"#utility.yul\":5262:5278   */\n      add\n        /* \"#utility.yul\":5259:5284   */\n      gt\n        /* \"#utility.yul\":5256:5368   */\n      iszero\n      tag_223\n      jumpi\n        /* \"#utility.yul\":5287:5366   */\n      tag_224\n      tag_124\n      jump\t// in\n    tag_224:\n        /* \"#utility.yul\":5256:5368   */\n    tag_223:\n        /* \"#utility.yul\":5377:5431   */\n      tag_225\n        /* \"#utility.yul\":5424:5430   */\n      dup5\n        /* \"#utility.yul\":5419:5422   */\n      dup3\n        /* \"#utility.yul\":5414:5417   */\n      dup6\n        /* \"#utility.yul\":5377:5431   */\n      tag_129\n      jump\t// in\n    tag_225:\n        /* \"#utility.yul\":5096:5437   */\n      pop\n        /* \"#utility.yul\":5012:5437   */\n      swap4\n      swap3\n      pop\n      pop\n      pop\n      jump\t// out\n        /* \"#utility.yul\":5457:5797   */\n    tag_131:\n        /* \"#utility.yul\":5513:5518   */\n      0x00\n        /* \"#utility.yul\":5562:5565   */\n      dup3\n        /* \"#utility.yul\":5555:5559   */\n      0x1f\n        /* \"#utility.yul\":5547:5553   */\n      dup4\n        /* \"#utility.yul\":5543:5560   */\n      add\n        /* \"#utility.yul\":5539:5566   */\n      slt\n        /* \"#utility.yul\":5529:5651   */\n      tag_227\n      jumpi\n        /* \"#utility.yul\":5570:5649   */\n      tag_228\n      tag_123\n      jump\t// in\n    tag_228:\n        /* \"#utility.yul\":5529:5651   */\n    tag_227:\n        /* \"#utility.yul\":5687:5693   */\n      dup2\n        /* \"#utility.yul\":5674:5694   */\n      calldataload\n        /* \"#utility.yul\":5712:5791   */\n      tag_229\n        /* \"#utility.yul\":5787:5790   */\n      dup5\n        /* \"#utility.yul\":5779:5785   */\n      dup3\n        /* \"#utility.yul\":5772:5776   */\n      0x20\n        /* \"#utility.yul\":5764:5770   */\n      dup7\n        /* \"#utility.yul\":5760:5777   */\n      add\n        /* \"#utility.yul\":5712:5791   */\n      tag_130\n      jump\t// in\n    tag_229:\n        /* \"#utility.yul\":5703:5791   */\n      swap2\n      pop\n        /* \"#utility.yul\":5519:5797   */\n      pop\n        /* \"#utility.yul\":5457:5797   */\n      swap3\n      swap2\n      pop\n      pop\n      jump\t// out\n        /* \"#utility.yul\":5803:6782   */\n    tag_21:\n        /* \"#utility.yul\":5900:5906   */\n      0x00\n        /* \"#utility.yul\":5908:5914   */\n      dup1\n        /* \"#utility.yul\":5916:5922   */\n      0x00\n        /* \"#utility.yul\":5965:5967   */\n      0x60\n        /* \"#utility.yul\":5953:5962   */\n      dup5\n        /* \"#utility.yul\":5944:5951   */\n      dup7\n        /* \"#utility.yul\":5940:5963   */\n      sub\n        /* \"#utility.yul\":5936:5968   */\n      slt\n        /* \"#utility.yul\":5933:6052   */\n      iszero\n      tag_231\n      jumpi\n        /* \"#utility.yul\":5971:6050   */\n      tag_232\n      tag_107\n      jump\t// in\n    tag_232:\n        /* \"#utility.yul\":5933:6052   */\n    tag_231:\n        /* \"#utility.yul\":6119:6120   */\n      0x00\n        /* \"#utility.yul\":6108:6117   */\n      dup5\n        /* \"#utility.yul\":6104:6121   */\n      add\n        /* \"#utility.yul\":6091:6122   */\n      calldataload\n        /* \"#utility.yul\":6149:6167   */\n      0xffffffffffffffff\n        /* \"#utility.yul\":6141:6147   */\n      dup2\n        /* \"#utility.yul\":6138:6168   */\n      gt\n        /* \"#utility.yul\":6135:6252   */\n      iszero\n      tag_233\n      jumpi\n        /* \"#utility.yul\":6171:6250   */\n      tag_234\n      tag_108\n      jump\t// in\n    tag_234:\n        /* \"#utility.yul\":6135:6252   */\n    tag_233:\n        /* \"#utility.yul\":6276:6339   */\n      tag_235\n        /* \"#utility.yul\":6331:6338   */\n      dup7\n        /* \"#utility.yul\":6322:6328   */\n      dup3\n        /* \"#utility.yul\":6311:6320   */\n      dup8\n        /* \"#utility.yul\":6307:6329   */\n      add\n        /* \"#utility.yul\":6276:6339   */\n      tag_131\n      jump\t// in\n    tag_235:\n        /* \"#utility.yul\":6266:6339   */\n      swap4\n      pop\n        /* \"#utility.yul\":6062:6349   */\n      pop\n        /* \"#utility.yul\":6416:6418   */\n      0x20\n        /* \"#utility.yul\":6405:6414   */\n      dup5\n        /* \"#utility.yul\":6401:6419   */\n      add\n        /* \"#utility.yul\":6388:6420   */\n      calldataload\n        /* \"#utility.yul\":6447:6465   */\n      0xffffffffffffffff\n        /* \"#utility.yul\":6439:6445   */\n      dup2\n        /* \"#utility.yul\":6436:6466   */\n      gt\n        /* \"#utility.yul\":6433:6550   */\n      iszero\n      tag_236\n      jumpi\n        /* \"#utility.yul\":6469:6548   */\n      tag_237\n      tag_108\n      jump\t// in\n    tag_237:\n        /* \"#utility.yul\":6433:6550   */\n    tag_236:\n        /* \"#utility.yul\":6574:6637   */\n      tag_238\n        /* \"#utility.yul\":6629:6636   */\n      dup7\n        /* \"#utility.yul\":6620:6626   */\n      dup3\n        /* \"#utility.yul\":6609:6618   */\n      dup8\n        /* \"#utility.yul\":6605:6627   */\n      add\n        /* \"#utility.yul\":6574:6637   */\n      tag_131\n      jump\t// in\n    tag_238:\n        /* \"#utility.yul\":6564:6637   */\n      swap3\n      pop\n        /* \"#utility.yul\":6359:6647   */\n      pop\n        /* \"#utility.yul\":6686:6688   */\n      0x40\n        /* \"#utility.yul\":6712:6765   */\n      tag_239\n        /* \"#utility.yul\":6757:6764   */\n      dup7\n        /* \"#utility.yul\":6748:6754   */\n      dup3\n        /* \"#utility.yul\":6737:6746   */\n      dup8\n        /* \"#utility.yul\":6733:6755   */\n      add\n        /* \"#utility.yul\":6712:6765   */\n      tag_111\n      jump\t// in\n    tag_239:\n        /* \"#utility.yul\":6702:6765   */\n      swap2\n      pop\n        /* \"#utility.yul\":6657:6775   */\n      pop\n        /* \"#utility.yul\":5803:6782   */\n      swap3\n      pop\n      swap3\n      pop\n      swap3\n      jump\t// out\n        /* \"#utility.yul\":6788:7010   */\n    tag_24:\n        /* \"#utility.yul\":6881:6885   */\n      0x00\n        /* \"#utility.yul\":6919:6921   */\n      0x20\n        /* \"#utility.yul\":6908:6917   */\n      dup3\n        /* \"#utility.yul\":6904:6922   */\n      add\n        /* \"#utility.yul\":6896:6922   */\n      swap1\n      pop\n        /* \"#utility.yul\":6932:7003   */\n      tag_241\n        /* \"#utility.yul\":7000:7001   */\n      0x00\n        /* \"#utility.yul\":6989:6998   */\n      dup4\n        /* \"#utility.yul\":6985:7002   */\n      add\n        /* \"#utility.yul\":6976:6982   */\n      dup5\n        /* \"#utility.yul\":6932:7003   */\n      tag_120\n      jump\t// in\n    tag_241:\n        /* \"#utility.yul\":6788:7010   */\n      swap3\n      swap2\n      pop\n      pop\n      jump\t// out\n        /* \"#utility.yul\":7016:7329   */\n    tag_33:\n        /* \"#utility.yul\":7129:7133   */\n      0x00\n        /* \"#utility.yul\":7167:7169   */\n      0x20\n        /* \"#utility.yul\":7156:7165   */\n      dup3\n        /* \"#utility.yul\":7152:7170   */\n      add\n        /* \"#utility.yul\":7144:7170   */\n      swap1\n      pop\n        /* \"#utility.yul\":7216:7225   */\n      dup2\n        /* \"#utility.yul\":7210:7214   */\n      dup2\n        /* \"#utility.yul\":7206:7226   */\n      sub\n        /* \"#utility.yul\":7202:7203   */\n      0x00\n        /* \"#utility.yul\":7191:7200   */\n      dup4\n        /* \"#utility.yul\":7187:7204   */\n      add\n        /* \"#utility.yul\":7180:7227   */\n      mstore\n        /* \"#utility.yul\":7244:7322   */\n      tag_243\n        /* \"#utility.yul\":7317:7321   */\n      dup2\n        /* \"#utility.yul\":7308:7314   */\n      dup5\n        /* \"#utility.yul\":7244:7322   */\n      tag_116\n      jump\t// in\n    tag_243:\n        /* \"#utility.yul\":7236:7322   */\n      swap1\n      pop\n        /* \"#utility.yul\":7016:7329   */\n      swap3\n      swap2\n      pop\n      pop\n      jump\t// out\n        /* \"#utility.yul\":7335:7457   */\n    tag_132:\n        /* \"#utility.yul\":7408:7432   */\n      tag_245\n        /* \"#utility.yul\":7426:7431   */\n      dup2\n        /* \"#utility.yul\":7408:7432   */\n      tag_118\n      jump\t// in\n    tag_245:\n        /* \"#utility.yul\":7401:7406   */\n      dup2\n        /* \"#utility.yul\":7398:7433   */\n      eq\n        /* \"#utility.yul\":7388:7451   */\n      tag_246\n      jumpi\n        /* \"#utility.yul\":7447:7448   */\n      0x00\n        /* \"#utility.yul\":7444:7445   */\n      dup1\n        /* \"#utility.yul\":7437:7449   */\n      revert\n        /* \"#utility.yul\":7388:7451   */\n    tag_246:\n        /* \"#utility.yul\":7335:7457   */\n      pop\n      jump\t// out\n        /* \"#utility.yul\":7463:7602   */\n    tag_133:\n        /* \"#utility.yul\":7509:7514   */\n      0x00\n        /* \"#utility.yul\":7547:7553   */\n      dup2\n        /* \"#utility.yul\":7534:7554   */\n      calldataload\n        /* \"#utility.yul\":7525:7554   */\n      swap1\n      pop\n        /* \"#utility.yul\":7563:7596   */\n      tag_248\n        /* \"#utility.yul\":7590:7595   */\n      dup2\n        /* \"#utility.yul\":7563:7596   */\n      tag_132\n      jump\t// in\n    tag_248:\n        /* \"#utility.yul\":7463:7602   */\n      swap3\n      swap2\n      pop\n      pop\n      jump\t// out\n        /* \"#utility.yul\":7608:8082   */\n    tag_36:\n        /* \"#utility.yul\":7676:7682   */\n      0x00\n        /* \"#utility.yul\":7684:7690   */\n      dup1\n        /* \"#utility.yul\":7733:7735   */\n      0x40\n        /* \"#utility.yul\":7721:7730   */\n      dup4\n        /* \"#utility.yul\":7712:7719   */\n      dup6\n        /* \"#utility.yul\":7708:7731   */\n      sub\n        /* \"#utility.yul\":7704:7736   */\n      slt\n        /* \"#utility.yul\":7701:7820   */\n      iszero\n      tag_250\n      jumpi\n        /* \"#utility.yul\":7739:7818   */\n      tag_251\n      tag_107\n      jump\t// in\n    tag_251:\n        /* \"#utility.yul\":7701:7820   */\n    tag_250:\n        /* \"#utility.yul\":7859:7860   */\n      0x00\n        /* \"#utility.yul\":7884:7937   */\n      tag_252\n        /* \"#utility.yul\":7929:7936   */\n      dup6\n        /* \"#utility.yul\":7920:7926   */\n      dup3\n        /* \"#utility.yul\":7909:7918   */\n      dup7\n        /* \"#utility.yul\":7905:7927   */\n      add\n        /* \"#utility.yul\":7884:7937   */\n      tag_111\n      jump\t// in\n    tag_252:\n        /* \"#utility.yul\":7874:7937   */\n      swap3\n      pop\n        /* \"#utility.yul\":7830:7947   */\n      pop\n        /* \"#utility.yul\":7986:7988   */\n      0x20\n        /* \"#utility.yul\":8012:8065   */\n      tag_253\n        /* \"#utility.yul\":8057:8064   */\n      dup6\n        /* \"#utility.yul\":8048:8054   */\n      dup3\n        /* \"#utility.yul\":8037:8046   */\n      dup7\n        /* \"#utility.yul\":8033:8055   */\n      add\n        /* \"#utility.yul\":8012:8065   */\n      tag_133\n      jump\t// in\n    tag_253:\n        /* \"#utility.yul\":8002:8065   */\n      swap2\n      pop\n        /* \"#utility.yul\":7957:8075   */\n      pop\n        /* \"#utility.yul\":7608:8082   */\n      swap3\n      pop\n      swap3\n      swap1\n      pop\n      jump\t// out\n        /* \"#utility.yul\":8088:8268   */\n    tag_134:\n        /* \"#utility.yul\":8136:8213   */\n      0x4e487b7100000000000000000000000000000000000000000000000000000000\n        /* \"#utility.yul\":8133:8134   */\n      0x00\n        /* \"#utility.yul\":8126:8214   */\n      mstore\n        /* \"#utility.yul\":8233:8237   */\n      0x22\n        /* \"#utility.yul\":8230:8231   */\n      0x04\n        /* \"#utility.yul\":8223:8238   */\n      mstore\n        /* \"#utility.yul\":8257:8261   */\n      0x24\n        /* \"#utility.yul\":8254:8255   */\n      0x00\n        /* \"#utility.yul\":8247:8262   */\n      revert\n        /* \"#utility.yul\":8274:8594   */\n    tag_54:\n        /* \"#utility.yul\":8318:8324   */\n      0x00\n        /* \"#utility.yul\":8355:8356   */\n      0x02\n        /* \"#utility.yul\":8349:8353   */\n      dup3\n        /* \"#utility.yul\":8345:8357   */\n      div\n        /* \"#utility.yul\":8335:8357   */\n      swap1\n      pop\n        /* \"#utility.yul\":8402:8403   */\n      0x01\n        /* \"#utility.yul\":8396:8400   */\n      dup3\n        /* \"#utility.yul\":8392:8404   */\n      and\n        /* \"#utility.yul\":8423:8441   */\n      dup1\n        /* \"#utility.yul\":8413:8494   */\n      tag_256\n      jumpi\n        /* \"#utility.yul\":8479:8483   */\n      0x7f\n        /* \"#utility.yul\":8471:8477   */\n      dup3\n        /* \"#utility.yul\":8467:8484   */\n      and\n        /* \"#utility.yul\":8457:8484   */\n      swap2\n      pop\n        /* \"#utility.yul\":8413:8494   */\n    tag_256:\n        /* \"#utility.yul\":8541:8543   */\n      0x20\n        /* \"#utility.yul\":8533:8539   */\n      dup3\n        /* \"#utility.yul\":8530:8544   */\n      lt\n        /* \"#utility.yul\":8510:8528   */\n      dup2\n        /* \"#utility.yul\":8507:8545   */\n      sub\n        /* \"#utility.yul\":8504:8588   */\n      tag_257\n      jumpi\n        /* \"#utility.yul\":8560:8578   */\n      tag_258\n      tag_134\n      jump\t// in\n    tag_258:\n        /* \"#utility.yul\":8504:8588   */\n    tag_257:\n        /* \"#utility.yul\":8325:8594   */\n      pop\n        /* \"#utility.yul\":8274:8594   */\n      swap2\n      swap1\n      pop\n      jump\t// out\n        /* \"#utility.yul\":8600:8741   */\n    tag_135:\n        /* \"#utility.yul\":8649:8653   */\n      0x00\n        /* \"#utility.yul\":8672:8675   */\n      dup2\n        /* \"#utility.yul\":8664:8675   */\n      swap1\n      pop\n        /* \"#utility.yul\":8695:8698   */\n      dup2\n        /* \"#utility.yul\":8692:8693   */\n      0x00\n        /* \"#utility.yul\":8685:8699   */\n      mstore\n        /* \"#utility.yul\":8729:8733   */\n      0x20\n        /* \"#utility.yul\":8726:8727   */\n      0x00\n        /* \"#utility.yul\":8716:8734   */\n      keccak256\n        /* \"#utility.yul\":8708:8734   */\n      swap1\n      pop\n        /* \"#utility.yul\":8600:8741   */\n      swap2\n      swap1\n      pop\n      jump\t// out\n        /* \"#utility.yul\":8747:8840   */\n    tag_136:\n        /* \"#utility.yul\":8784:8790   */\n      0x00\n        /* \"#utility.yul\":8831:8833   */\n      0x20\n        /* \"#utility.yul\":8826:8828   */\n      0x1f\n        /* \"#utility.yul\":8819:8824   */\n      dup4\n        /* \"#utility.yul\":8815:8829   */\n      add\n        /* \"#utility.yul\":8811:8834   */\n      div\n        /* \"#utility.yul\":8801:8834   */\n      swap1\n      pop\n        /* \"#utility.yul\":8747:8840   */\n      swap2\n      swap1\n      pop\n      jump\t// out\n        /* \"#utility.yul\":8846:8953   */\n    tag_137:\n        /* \"#utility.yul\":8890:8898   */\n      0x00\n        /* \"#utility.yul\":8940:8945   */\n      dup3\n        /* \"#utility.yul\":8934:8938   */\n      dup3\n        /* \"#utility.yul\":8930:8946   */\n      shl\n        /* \"#utility.yul\":8909:8946   */\n      swap1\n      pop\n        /* \"#utility.yul\":8846:8953   */\n      swap3\n      swap2\n      pop\n      pop\n      jump\t// out\n        /* \"#utility.yul\":8959:9352   */\n    tag_138:\n        /* \"#utility.yul\":9028:9034   */\n      0x00\n        /* \"#utility.yul\":9078:9079   */\n      0x08\n        /* \"#utility.yul\":9066:9076   */\n      dup4\n        /* \"#utility.yul\":9062:9080   */\n      mul\n        /* \"#utility.yul\":9101:9198   */\n      tag_263\n        /* \"#utility.yul\":9131:9197   */\n      0xffffffffffffffffffffffffffffffffffffffffffffffffffffffffffffffff\n        /* \"#utility.yul\":9120:9129   */\n      dup3\n        /* \"#utility.yul\":9101:9198   */\n      tag_137\n      jump\t// in\n    tag_263:\n        /* \"#utility.yul\":9219:9258   */\n      tag_264\n        /* \"#utility.yul\":9249:9257   */\n      dup7\n        /* \"#utility.yul\":9238:9247   */\n      dup4\n        /* \"#utility.yul\":9219:9258   */\n      tag_137\n      jump\t// in\n    tag_264:\n        /* \"#utility.yul\":9207:9258   */\n      swap6\n      pop\n        /* \"#utility.yul\":9291:9295   */\n      dup1\n        /* \"#utility.yul\":9287:9296   */\n      not\n        /* \"#utility.yul\":9280:9285   */\n      dup5\n        /* \"#utility.yul\":9276:9297   */\n      and\n        /* \"#utility.yul\":9267:9297   */\n      swap4\n      pop\n        /* \"#utility.yul\":9340:9344   */\n      dup1\n        /* \"#utility.yul\":9330:9338   */\n      dup7\n        /* \"#utility.yul\":9326:9345   */\n      and\n        /* \"#utility.yul\":9319:9324   */\n      dup5\n        /* \"#utility.yul\":9316:9346   */\n      or\n        /* \"#utility.yul\":9306:9346   */\n      swap3\n      pop\n        /* \"#utility.yul\":9035:9352   */\n      pop\n      pop\n        /* \"#utility.yul\":8959:9352   */\n      swap4\n      swap3\n      pop\n      pop\n      pop\n      jump\t// out\n        /* \"#utility.yul\":9358:9418   */\n    tag_139:\n        /* \"#utility.yul\":9386:9389   */\n      0x00\n        /* \"#utility.yul\":9407:9412   */\n      dup2\n        /* \"#utility.yul\":9400:9412   */\n      swap1\n      pop\n        /* \"#utility.yul\":9358:9418   */\n      swap2\n      swap1\n      pop\n      jump\t// out\n        /* \"#utility.yul\":9424:9566   */\n    tag_140:\n        /* \"#utility.yul\":9474:9483   */\n      0x00\n        /* \"#utility.yul\":9507:9560   */\n      tag_267\n        /* \"#utility.yul\":9525:9559   */\n      tag_268\n        /* \"#utility.yul\":9534:9558   */\n      tag_269\n        /* \"#utility.yul\":9552:9557   */\n      dup5\n        /* \"#utility.yul\":9534:9558   */\n      tag_109\n      jump\t// in\n    tag_269:\n        /* \"#utility.yul\":9525:9559   */\n      tag_139\n      jump\t// in\n    tag_268:\n        /* \"#utility.yul\":9507:9560   */\n      tag_109\n      jump\t// in\n    tag_267:\n        /* \"#utility.yul\":9494:9560   */\n      swap1\n      pop\n        /* \"#utility.yul\":9424:9566   */\n      swap2\n      swap1\n      pop\n      jump\t// out\n        /* \"#utility.yul\":9572:9647   */\n    tag_141:\n        /* \"#utility.yul\":9615:9618   */\n      0x00\n        /* \"#utility.yul\":9636:9641   */\n      dup2\n        /* \"#utility.yul\":9629:9641   */\n      swap1\n      pop\n        /* \"#utility.yul\":9572:9647   */\n      swap2\n      swap1\n      pop\n      jump\t// out\n        /* \"#utility.yul\":9653:9922   */\n    tag_142:\n        /* \"#utility.yul\":9763:9802   */\n      tag_272\n        /* \"#utility.yul\":9794:9801   */\n      dup4\n        /* \"#utility.yul\":9763:9802   */\n      tag_140\n      jump\t// in\n    tag_272:\n        /* \"#utility.yul\":9824:9915   */\n      tag_273\n        /* \"#utility.yul\":9873:9914   */\n      tag_274\n        /* \"#utility.yul\":9897:9913   */\n      dup3\n        /* \"#utility.yul\":9873:9914   */\n      tag_141\n      jump\t// in\n    tag_274:\n        /* \"#utility.yul\":9865:9871   */\n      dup5\n        /* \"#utility.yul\":9858:9862   */\n      dup5\n        /* \"#utility.yul\":9852:9863   */\n      sload\n        /* \"#utility.yul\":9824:9915   */\n      tag_138\n      jump\t// in\n    tag_273:\n        /* \"#utility.yul\":9818:9822   */\n      dup3\n        /* \"#utility.yul\":9811:9916   */\n      sstore\n        /* \"#utility.yul\":9729:9922   */\n      pop\n        /* \"#utility.yul\":9653:9922   */\n      pop\n      pop\n      pop\n      jump\t// out\n        /* \"#utility.yul\":9928:10001   */\n    tag_143:\n        /* \"#utility.yul\":9973:9976   */\n      0x00\n        /* \"#utility.yul\":9928:10001   */\n      swap1\n      jump\t// out\n        /* \"#utility.yul\":10007:10196   */\n    tag_144:\n        /* \"#utility.yul\":10084:10116   */\n      tag_277\n      tag_143\n      jump\t// in\n    tag_277:\n        /* \"#utility.yul\":10125:10190   */\n      tag_278\n        /* \"#utility.yul\":10183:10189   */\n      dup2\n        /* \"#utility.yul\":10175:10181   */\n      dup5\n        /* \"#utility.yul\":10169:10173   */\n      dup5\n        /* \"#utility.yul\":10125:10190   */\n      tag_142\n      jump\t// in\n    tag_278:\n        /* \"#utility.yul\":10060:10196   */\n      pop\n        /* \"#utility.yul\":10007:10196   */\n      pop\n      pop\n      jump\t// out\n        /* \"#utility.yul\":10202:10388   */\n    tag_145:\n        /* \"#utility.yul\":10262:10382   */\n    tag_280:\n        /* \"#utility.yul\":10279:10282   */\n      dup2\n        /* \"#utility.yul\":10272:10277   */\n      dup2\n        /* \"#utility.yul\":10269:10283   */\n      lt\n        /* \"#utility.yul\":10262:10382   */\n      iszero\n      tag_282\n      jumpi\n        /* \"#utility.yul\":10333:10372   */\n      tag_283\n        /* \"#utility.yul\":10370:10371   */\n      0x00\n        /* \"#utility.yul\":10363:10368   */\n      dup3\n        /* \"#utility.yul\":10333:10372   */\n      tag_144\n      jump\t// in\n    tag_283:\n        /* \"#utility.yul\":10306:10307   */\n      0x01\n        /* \"#utility.yul\":10299:10304   */\n      dup2\n        /* \"#utility.yul\":10295:10308   */\n      add\n        /* \"#utility.yul\":10286:10308   */\n      swap1\n      pop\n        /* \"#utility.yul\":10262:10382   */\n      jump(tag_280)\n    tag_282:\n        /* \"#utility.yul\":10202:10388   */\n      pop\n      pop\n      jump\t// out\n        /* \"#utility.yul\":10394:10937   */\n    tag_146:\n        /* \"#utility.yul\":10495:10497   */\n      0x1f\n        /* \"#utility.yul\":10490:10493   */\n      dup3\n        /* \"#utility.yul\":10487:10498   */\n      gt\n        /* \"#utility.yul\":10484:10930   */\n      iszero\n      tag_285\n      jumpi\n        /* \"#utility.yul\":10529:10567   */\n      tag_286\n        /* \"#utility.yul\":10561:10566   */\n      dup2\n        /* \"#utility.yul\":10529:10567   */\n      tag_135\n      jump\t// in\n    tag_286:\n        /* \"#utility.yul\":10613:10642   */\n      tag_287\n        /* \"#utility.yul\":10631:10641   */\n      dup5\n        /* \"#utility.yul\":10613:10642   */\n      tag_136\n      jump\t// in\n    tag_287:\n        /* \"#utility.yul\":10603:10611   */\n      dup2\n        /* \"#utility.yul\":10599:10643   */\n      add\n        /* \"#utility.yul\":10796:10798   */\n      0x20\n        /* \"#utility.yul\":10784:10794   */\n      dup6\n        /* \"#utility.yul\":10781:10799   */\n      lt\n        /* \"#utility.yul\":10778:10827   */\n      iszero\n      tag_288\n      jumpi\n        /* \"#utility.yul\":10817:10825   */\n      dup2\n        /* \"#utility.yul\":10802:10825   */\n      swap1\n      pop\n        /* \"#utility.yul\":10778:10827   */\n    tag_288:\n        /* \"#utility.yul\":10840:10920   */\n      tag_289\n        /* \"#utility.yul\":10896:10918   */\n      tag_290\n        /* \"#utility.yul\":10914:10917   */\n      dup6\n        /* \"#utility.yul\":10896:10918   */\n      tag_136\n      jump\t// in\n    tag_290:\n        /* \"#utility.yul\":10886:10894   */\n      dup4\n        /* \"#utility.yul\":10882:10919   */\n      add\n        /* \"#utility.yul\":10869:10880   */\n      dup3\n        /* \"#utility.yul\":10840:10920   */\n      tag_145\n      jump\t// in\n    tag_289:\n        /* \"#utility.yul\":10499:10930   */\n      pop\n      pop\n        /* \"#utility.yul\":10484:10930   */\n    tag_285:\n        /* \"#utility.yul\":10394:10937   */\n      pop\n      pop\n      pop\n      jump\t// out\n        /* \"#utility.yul\":10943:11060   */\n    tag_147:\n        /* \"#utility.yul\":10997:11005   */\n      0x00\n        /* \"#utility.yul\":11047:11052   */\n      dup3\n        /* \"#utility.yul\":11041:11045   */\n      dup3\n        /* \"#utility.yul\":11037:11053   */\n      shr\n        /* \"#utility.yul\":11016:11053   */\n      swap1\n      pop\n        /* \"#utility.yul\":10943:11060   */\n      swap3\n      swap2\n      pop\n      pop\n      jump\t// out\n        /* \"#utility.yul\":11066:11235   */\n    tag_148:\n        /* \"#utility.yul\":11110:11116   */\n      0x00\n        /* \"#utility.yul\":11143:11194   */\n      tag_293\n        /* \"#utility.yul\":11191:11192   */\n      0x00\n        /* \"#utility.yul\":11187:11193   */\n      not\n        /* \"#utility.yul\":11179:11184   */\n      dup5\n        /* \"#utility.yul\":11176:11177   */\n      0x08\n        /* \"#utility.yul\":11172:11185   */\n      mul\n        /* \"#utility.yul\":11143:11194   */\n      tag_147\n      jump\t// in\n    tag_293:\n        /* \"#utility.yul\":11139:11195   */\n      not\n        /* \"#utility.yul\":11224:11228   */\n      dup1\n        /* \"#utility.yul\":11218:11222   */\n      dup4\n        /* \"#utility.yul\":11214:11229   */\n      and\n        /* \"#utility.yul\":11204:11229   */\n      swap2\n      pop\n        /* \"#utility.yul\":11117:11235   */\n      pop\n        /* \"#utility.yul\":11066:11235   */\n      swap3\n      swap2\n      pop\n      pop\n      jump\t// out\n        /* \"#utility.yul\":11240:11535   */\n    tag_149:\n        /* \"#utility.yul\":11316:11320   */\n      0x00\n        /* \"#utility.yul\":11462:11491   */\n      tag_295\n        /* \"#utility.yul\":11487:11490   */\n      dup4\n        /* \"#utility.yul\":11481:11485   */\n      dup4\n        /* \"#utility.yul\":11462:11491   */\n      tag_148\n      jump\t// in\n    tag_295:\n        /* \"#utility.yul\":11454:11491   */\n      swap2\n      pop\n        /* \"#utility.yul\":11524:11527   */\n      dup3\n        /* \"#utility.yul\":11521:11522   */\n      0x02\n        /* \"#utility.yul\":11517:11528   */\n      mul\n        /* \"#utility.yul\":11511:11515   */\n      dup3\n        /* \"#utility.yul\":11508:11529   */\n      or\n        /* \"#utility.yul\":11500:11529   */\n      swap1\n      pop\n        /* \"#utility.yul\":11240:11535   */\n      swap3\n      swap2\n      pop\n      pop\n      jump\t// out\n        /* \"#utility.yul\":11540:12935   */\n    tag_66:\n        /* \"#utility.yul\":11657:11694   */\n      tag_297\n        /* \"#utility.yul\":11690:11693   */\n      dup3\n        /* \"#utility.yul\":11657:11694   */\n      tag_112\n      jump\t// in\n    tag_297:\n        /* \"#utility.yul\":11759:11777   */\n      0xffffffffffffffff\n        /* \"#utility.yul\":11751:11757   */\n      dup2\n        /* \"#utility.yul\":11748:11778   */\n      gt\n        /* \"#utility.yul\":11745:11801   */\n      iszero\n      tag_298\n      jumpi\n        /* \"#utility.yul\":11781:11799   */\n      tag_299\n      tag_125\n      jump\t// in\n    tag_299:\n        /* \"#utility.yul\":11745:11801   */\n    tag_298:\n        /* \"#utility.yul\":11825:11863   */\n      tag_300\n        /* \"#utility.yul\":11857:11861   */\n      dup3\n        /* \"#utility.yul\":11851:11862   */\n      sload\n        /* \"#utility.yul\":11825:11863   */\n      tag_54\n      jump\t// in\n    tag_300:\n        /* \"#utility.yul\":11910:11977   */\n      tag_301\n        /* \"#utility.yul\":11970:11976   */\n      dup3\n        /* \"#utility.yul\":11962:11968   */\n      dup3\n        /* \"#utility.yul\":11956:11960   */\n      dup6\n        /* \"#utility.yul\":11910:11977   */\n      tag_146\n      jump\t// in\n    tag_301:\n        /* \"#utility.yul\":12004:12005   */\n      0x00\n        /* \"#utility.yul\":12028:12032   */\n      0x20\n        /* \"#utility.yul\":12015:12032   */\n      swap1\n      pop\n        /* \"#utility.yul\":12060:12062   */\n      0x1f\n        /* \"#utility.yul\":12052:12058   */\n      dup4\n        /* \"#utility.yul\":12049:12063   */\n      gt\n        /* \"#utility.yul\":12077:12078   */\n      0x01\n        /* \"#utility.yul\":12072:12690   */\n      dup2\n      eq\n      tag_303\n      jumpi\n        /* \"#utility.yul\":12734:12735   */\n      0x00\n        /* \"#utility.yul\":12751:12757   */\n      dup5\n        /* \"#utility.yul\":12748:12825   */\n      iszero\n      tag_304\n      jumpi\n        /* \"#utility.yul\":12800:12809   */\n      dup3\n        /* \"#utility.yul\":12795:12798   */\n      dup8\n        /* \"#utility.yul\":12791:12810   */\n      add\n        /* \"#utility.yul\":12785:12811   */\n      mload\n        /* \"#utility.yul\":12776:12811   */\n      swap1\n      pop\n        /* \"#utility.yul\":12748:12825   */\n    tag_304:\n        /* \"#utility.yul\":12851:12918   */\n      tag_305\n        /* \"#utility.yul\":12911:12917   */\n      dup6\n        /* \"#utility.yul\":12904:12909   */\n      dup3\n        /* \"#utility.yul\":12851:12918   */\n      tag_149\n      jump\t// in\n    tag_305:\n        /* \"#utility.yul\":12845:12849   */\n      dup7\n        /* \"#utility.yul\":12838:12919   */\n      sstore\n        /* \"#utility.yul\":12707:12929   */\n      pop\n        /* \"#utility.yul\":12042:12929   */\n      jump(tag_302)\n        /* \"#utility.yul\":12072:12690   */\n    tag_303:\n        /* \"#utility.yul\":12124:12128   */\n      0x1f\n        /* \"#utility.yul\":12120:12129   */\n      not\n        /* \"#utility.yul\":12112:12118   */\n      dup5\n        /* \"#utility.yul\":12108:12130   */\n      and\n        /* \"#utility.yul\":12158:12195   */\n      tag_306\n        /* \"#utility.yul\":12190:12194   */\n      dup7\n        /* \"#utility.yul\":12158:12195   */\n      tag_135\n      jump\t// in\n    tag_306:\n        /* \"#utility.yul\":12217:12218   */\n      0x00\n        /* \"#utility.yul\":12231:12439   */\n    tag_307:\n        /* \"#utility.yul\":12245:12252   */\n      dup3\n        /* \"#utility.yul\":12242:12243   */\n      dup2\n        /* \"#utility.yul\":12239:12253   */\n      lt\n        /* \"#utility.yul\":12231:12439   */\n      iszero\n      tag_309\n      jumpi\n        /* \"#utility.yul\":12324:12333   */\n      dup5\n        /* \"#utility.yul\":12319:12322   */\n      dup10\n        /* \"#utility.yul\":12315:12334   */\n      add\n        /* \"#utility.yul\":12309:12335   */\n      mload\n        /* \"#utility.yul\":12301:12307   */\n      dup3\n        /* \"#utility.yul\":12294:12336   */\n      sstore\n        /* \"#utility.yul\":12375:12376   */\n      0x01\n        /* \"#utility.yul\":12367:12373   */\n      dup3\n        /* \"#utility.yul\":12363:12377   */\n      add\n        /* \"#utility.yul\":12353:12377   */\n      swap2\n      pop\n        /* \"#utility.yul\":12422:12424   */\n      0x20\n        /* \"#utility.yul\":12411:12420   */\n      dup6\n        /* \"#utility.yul\":12407:12425   */\n      add\n        /* \"#utility.yul\":12394:12425   */\n      swap5\n      pop\n        /* \"#utility.yul\":12268:12272   */\n      0x20\n        /* \"#utility.yul\":12265:12266   */\n      dup2\n        /* \"#utility.yul\":12261:12273   */\n      add\n        /* \"#utility.yul\":12256:12273   */\n      swap1\n      pop\n        /* \"#utility.yul\":12231:12439   */\n      jump(tag_307)\n    tag_309:\n        /* \"#utility.yul\":12467:12473   */\n      dup7\n        /* \"#utility.yul\":12458:12465   */\n      dup4\n        /* \"#utility.yul\":12455:12474   */\n      lt\n        /* \"#utility.yul\":12452:12631   */\n      iszero\n      tag_310\n      jumpi\n        /* \"#utility.yul\":12525:12534   */\n      dup5\n        /* \"#utility.yul\":12520:12523   */\n      dup10\n        /* \"#utility.yul\":12516:12535   */\n      add\n        /* \"#utility.yul\":12510:12536   */\n      mload\n        /* \"#utility.yul\":12568:12616   */\n      tag_311\n        /* \"#utility.yul\":12610:12614   */\n      0x1f\n        /* \"#utility.yul\":12602:12608   */\n      dup10\n        /* \"#utility.yul\":12598:12615   */\n      and\n        /* \"#utility.yul\":12587:12596   */\n      dup3\n        /* \"#utility.yul\":12568:12616   */\n      tag_148\n      jump\t// in\n    tag_311:\n        /* \"#utility.yul\":12560:12566   */\n      dup4\n        /* \"#utility.yul\":12553:12617   */\n      sstore\n        /* \"#utility.yul\":12475:12631   */\n      pop\n        /* \"#utility.yul\":12452:12631   */\n    tag_310:\n        /* \"#utility.yul\":12677:12678   */\n      0x01\n        /* \"#utility.yul\":12673:12674   */\n      0x02\n        /* \"#utility.yul\":12665:12671   */\n      dup9\n        /* \"#utility.yul\":12661:12675   */\n      mul\n        /* \"#utility.yul\":12657:12679   */\n      add\n        /* \"#utility.yul\":12651:12655   */\n      dup9\n        /* \"#utility.yul\":12644:12680   */\n      sstore\n        /* \"#utility.yul\":12079:12690   */\n      pop\n      pop\n      pop\n        /* \"#utility.yul\":12042:12929   */\n    tag_302:\n      pop\n        /* \"#utility.yul\":11632:12935   */\n      pop\n      pop\n      pop\n        /* \"#utility.yul\":11540:12935   */\n      pop\n      pop\n      jump\t// out\n        /* \"#utility.yul\":12941:13089   */\n    tag_150:\n        /* \"#utility.yul\":13043:13054   */\n      0x00\n        /* \"#utility.yul\":13080:13083   */\n      dup2\n        /* \"#utility.yul\":13065:13083   */\n      swap1\n      pop\n        /* \"#utility.yul\":12941:13089   */\n      swap3\n      swap2\n      pop\n      pop\n      jump\t// out\n        /* \"#utility.yul\":13095:13252   */\n    tag_151:\n        /* \"#utility.yul\":13235:13244   */\n      0x70726f706f736500000000000000000000000000000000000000000000000000\n        /* \"#utility.yul\":13231:13232   */\n      0x00\n        /* \"#utility.yul\":13223:13229   */\n      dup3\n        /* \"#utility.yul\":13219:13233   */\n      add\n        /* \"#utility.yul\":13212:13245   */\n      mstore\n        /* \"#utility.yul\":13095:13252   */\n      pop\n      jump\t// out\n        /* \"#utility.yul\":13258:13658   */\n    tag_152:\n        /* \"#utility.yul\":13418:13421   */\n      0x00\n        /* \"#utility.yul\":13439:13523   */\n      tag_315\n        /* \"#utility.yul\":13521:13522   */\n      0x07\n        /* \"#utility.yul\":13516:13519   */\n      dup4\n        /* \"#utility.yul\":13439:13523   */\n      tag_150\n      jump\t// in\n    tag_315:\n        /* \"#utility.yul\":13432:13523   */\n      swap2\n      pop\n        /* \"#utility.yul\":13532:13625   */\n      tag_316\n        /* \"#utility.yul\":13621:13624   */\n      dup3\n        /* \"#utility.yul\":13532:13625   */\n      tag_151\n      jump\t// in\n    tag_316:\n        /* \"#utility.yul\":13650:13651   */\n      0x07\n        /* \"#utility.yul\":13645:13648   */\n      dup3\n        /* \"#utility.yul\":13641:13652   */\n      add\n        /* \"#utility.yul\":13634:13652   */\n      swap1\n      pop\n        /* \"#utility.yul\":13258:13658   */\n      swap2\n      swap1\n      pop\n      jump\t// out\n        /* \"#utility.yul\":13664:14045   */\n    tag_69:\n        /* \"#utility.yul\":13849:13852   */\n      0x00\n        /* \"#utility.yul\":13871:14019   */\n      tag_318\n        /* \"#utility.yul\":14015:14018   */\n      dup3\n        /* \"#utility.yul\":13871:14019   */\n      tag_152\n      jump\t// in\n    tag_318:\n        /* \"#utility.yul\":13864:14019   */\n      swap2\n      pop\n        /* \"#utility.yul\":14036:14039   */\n      dup2\n        /* \"#utility.yul\":14029:14039   */\n      swap1\n      pop\n        /* \"#utility.yul\":13664:14045   */\n      swap2\n      swap1\n      pop\n      jump\t// out\n        /* \"#utility.yul\":14051:14383   */\n    tag_71:\n        /* \"#utility.yul\":14172:14176   */\n      0x00\n        /* \"#utility.yul\":14210:14212   */\n      0x40\n        /* \"#utility.yul\":14199:14208   */\n      dup3\n        /* \"#utility.yul\":14195:14213   */\n      add\n        /* \"#utility.yul\":14187:14213   */\n      swap1\n      pop\n        /* \"#utility.yul\":14223:14294   */\n      tag_320\n        /* \"#utility.yul\":14291:14292   */\n      0x00\n        /* \"#utility.yul\":14280:14289   */\n      dup4\n        /* \"#utility.yul\":14276:14293   */\n      add\n        /* \"#utility.yul\":14267:14273   */\n      dup6\n        /* \"#utility.yul\":14223:14294   */\n      tag_120\n      jump\t// in\n    tag_320:\n        /* \"#utility.yul\":14304:14376   */\n      tag_321\n        /* \"#utility.yul\":14372:14374   */\n      0x20\n        /* \"#utility.yul\":14361:14370   */\n      dup4\n        /* \"#utility.yul\":14357:14375   */\n      add\n        /* \"#utility.yul\":14348:14354   */\n      dup5\n        /* \"#utility.yul\":14304:14376   */\n      tag_120\n      jump\t// in\n    tag_321:\n        /* \"#utility.yul\":14051:14383   */\n      swap4\n      swap3\n      pop\n      pop\n      pop\n      jump\t// out\n        /* \"#utility.yul\":14389:14557   */\n    tag_153:\n        /* \"#utility.yul\":14529:14549   */\n      0x70726f706f73616c206e6f742065786973740000000000000000000000000000\n        /* \"#utility.yul\":14525:14526   */\n      0x00\n        /* \"#utility.yul\":14517:14523   */\n      dup3\n        /* \"#utility.yul\":14513:14527   */\n      add\n        /* \"#utility.yul\":14506:14550   */\n      mstore\n        /* \"#utility.yul\":14389:14557   */\n      pop\n      jump\t// out\n        /* \"#utility.yul\":14563:14929   */\n    tag_154:\n        /* \"#utility.yul\":14705:14708   */\n      0x00\n        /* \"#utility.yul\":14726:14793   */\n      tag_324\n        /* \"#utility.yul\":14790:14792   */\n      0x12\n        /* \"#utility.yul\":14785:14788   */\n      dup4\n        /* \"#utility.yul\":14726:14793   */\n      tag_113\n      jump\t// in\n    tag_324:\n        /* \"#utility.yul\":14719:14793   */\n      swap2\n      pop\n        /* \"#utility.yul\":14802:14895   */\n      tag_325\n        /* \"#utility.yul\":14891:14894   */\n      dup3\n        /* \"#utility.yul\":14802:14895   */\n      tag_153\n      jump\t// in\n    tag_325:\n        /* \"#utility.yul\":14920:14922   */\n      0x20\n        /* \"#utility.yul\":14915:14918   */\n      dup3\n        /* \"#utility.yul\":14911:14923   */\n      add\n        /* \"#utility.yul\":14904:14923   */\n      swap1\n      pop\n        /* \"#utility.yul\":14563:14929   */\n      swap2\n      swap1\n      pop\n      jump\t// out\n        /* \"#utility.yul\":14935:15354   */\n    tag_82:\n        /* \"#utility.yul\":15101:15105   */\n      0x00\n        /* \"#utility.yul\":15139:15141   */\n      0x20\n        /* \"#utility.yul\":15128:15137   */\n      dup3\n        /* \"#utility.yul\":15124:15142   */\n      add\n        /* \"#utility.yul\":15116:15142   */\n      swap1\n      pop\n        /* \"#utility.yul\":15188:15197   */\n      dup2\n        /* \"#utility.yul\":15182:15186   */\n      dup2\n        /* \"#utility.yul\":15178:15198   */\n      sub\n        /* \"#utility.yul\":15174:15175   */\n      0x00\n        /* \"#utility.yul\":15163:15172   */\n      dup4\n        /* \"#utility.yul\":15159:15176   */\n      add\n        /* \"#utility.yul\":15152:15199   */\n      mstore\n        /* \"#utility.yul\":15216:15347   */\n      tag_327\n        /* \"#utility.yul\":15342:15346   */\n      dup2\n        /* \"#utility.yul\":15216:15347   */\n      tag_154\n      jump\t// in\n    tag_327:\n        /* \"#utility.yul\":15208:15347   */\n      swap1\n      pop\n        /* \"#utility.yul\":14935:15354   */\n      swap2\n      swap1\n      pop\n      jump\t// out\n        /* \"#utility.yul\":15360:15528   */\n    tag_155:\n        /* \"#utility.yul\":15500:15520   */\n      0x65786365656420766f74696e672074696d650000000000000000000000000000\n        /* \"#utility.yul\":15496:15497   */\n      0x00\n        /* \"#utility.yul\":15488:15494   */\n      dup3\n        /* \"#utility.yul\":15484:15498   */\n      add\n        /* \"#utility.yul\":15477:15521   */\n      mstore\n        /* \"#utility.yul\":15360:15528   */\n      pop\n      jump\t// out\n        /* \"#utility.yul\":15534:15900   */\n    tag_156:\n        /* \"#utility.yul\":15676:15679   */\n      0x00\n        /* \"#utility.yul\":15697:15764   */\n      tag_330\n        /* \"#utility.yul\":15761:15763   */\n      0x12\n        /* \"#utility.yul\":15756:15759   */\n      dup4\n        /* \"#utility.yul\":15697:15764   */\n      tag_113\n      jump\t// in\n    tag_330:\n        /* \"#utility.yul\":15690:15764   */\n      swap2\n      pop\n        /* \"#utility.yul\":15773:15866   */\n      tag_331\n        /* \"#utility.yul\":15862:15865   */\n      dup3\n        /* \"#utility.yul\":15773:15866   */\n      tag_155\n      jump\t// in\n    tag_331:\n        /* \"#utility.yul\":15891:15893   */\n      0x20\n        /* \"#utility.yul\":15886:15889   */\n      dup3\n        /* \"#utility.yul\":15882:15894   */\n      add\n        /* \"#utility.yul\":15875:15894   */\n      swap1\n      pop\n        /* \"#utility.yul\":15534:15900   */\n      swap2\n      swap1\n      pop\n      jump\t// out\n        /* \"#utility.yul\":15906:16325   */\n    tag_96:\n        /* \"#utility.yul\":16072:16076   */\n      0x00\n        /* \"#utility.yul\":16110:16112   */\n      0x20\n        /* \"#utility.yul\":16099:16108   */\n      dup3\n        /* \"#utility.yul\":16095:16113   */\n      add\n        /* \"#utility.yul\":16087:16113   */\n      swap1\n      pop\n        /* \"#utility.yul\":16159:16168   */\n      dup2\n        /* \"#utility.yul\":16153:16157   */\n      dup2\n        /* \"#utility.yul\":16149:16169   */\n      sub\n        /* \"#utility.yul\":16145:16146   */\n      0x00\n        /* \"#utility.yul\":16134:16143   */\n      dup4\n        /* \"#utility.yul\":16130:16147   */\n      add\n        /* \"#utility.yul\":16123:16170   */\n      mstore\n        /* \"#utility.yul\":16187:16318   */\n      tag_333\n        /* \"#utility.yul\":16313:16317   */\n      dup2\n        /* \"#utility.yul\":16187:16318   */\n      tag_156\n      jump\t// in\n    tag_333:\n        /* \"#utility.yul\":16179:16318   */\n      swap1\n      pop\n        /* \"#utility.yul\":15906:16325   */\n      swap2\n      swap1\n      pop\n      jump\t// out\n        /* \"#utility.yul\":16331:16493   */\n    tag_157:\n        /* \"#utility.yul\":16471:16485   */\n      0x616c726561647920766f74650000000000000000000000000000000000000000\n        /* \"#utility.yul\":16467:16468   */\n      0x00\n        /* \"#utility.yul\":16459:16465   */\n      dup3\n        /* \"#utility.yul\":16455:16469   */\n      add\n        /* \"#utility.yul\":16448:16486   */\n      mstore\n        /* \"#utility.yul\":16331:16493   */\n      pop\n      jump\t// out\n        /* \"#utility.yul\":16499:16865   */\n    tag_158:\n        /* \"#utility.yul\":16641:16644   */\n      0x00\n        /* \"#utility.yul\":16662:16729   */\n      tag_336\n        /* \"#utility.yul\":16726:16728   */\n      0x0c\n        /* \"#utility.yul\":16721:16724   */\n      dup4\n        /* \"#utility.yul\":16662:16729   */\n      tag_113\n      jump\t// in\n    tag_336:\n        /* \"#utility.yul\":16655:16729   */\n      swap2\n      pop\n        /* \"#utility.yul\":16738:16831   */\n      tag_337\n        /* \"#utility.yul\":16827:16830   */\n      dup3\n        /* \"#utility.yul\":16738:16831   */\n      tag_157\n      jump\t// in\n    tag_337:\n        /* \"#utility.yul\":16856:16858   */\n      0x20\n        /* \"#utility.yul\":16851:16854   */\n      dup3\n        /* \"#utility.yul\":16847:16859   */\n      add\n        /* \"#utility.yul\":16840:16859   */\n      swap1\n      pop\n        /* \"#utility.yul\":16499:16865   */\n      swap2\n      swap1\n      pop\n      jump\t// out\n        /* \"#utility.yul\":16871:17290   */\n    tag_99:\n        /* \"#utility.yul\":17037:17041   */\n      0x00\n        /* \"#utility.yul\":17075:17077   */\n      0x20\n        /* \"#utility.yul\":17064:17073   */\n      dup3\n        /* \"#utility.yul\":17060:17078   */\n      add\n        /* \"#utility.yul\":17052:17078   */\n      swap1\n      pop\n        /* \"#utility.yul\":17124:17133   */\n      dup2\n        /* \"#utility.yul\":17118:17122   */\n      dup2\n        /* \"#utility.yul\":17114:17134   */\n      sub\n        /* \"#utility.yul\":17110:17111   */\n      0x00\n        /* \"#utility.yul\":17099:17108   */\n      dup4\n        /* \"#utility.yul\":17095:17112   */\n      add\n        /* \"#utility.yul\":17088:17135   */\n      mstore\n        /* \"#utility.yul\":17152:17283   */\n      tag_339\n        /* \"#utility.yul\":17278:17282   */\n      dup2\n        /* \"#utility.yul\":17152:17283   */\n      tag_158\n      jump\t// in\n    tag_339:\n        /* \"#utility.yul\":17144:17283   */\n      swap1\n      pop\n        /* \"#utility.yul\":16871:17290   */\n      swap2\n      swap1\n      pop\n      jump\t// out\n        /* \"#utility.yul\":17296:17476   */\n    tag_159:\n        /* \"#utility.yul\":17344:17421   */\n      0x4e487b7100000000000000000000000000000000000000000000000000000000\n        /* \"#utility.yul\":17341:17342   */\n      0x00\n        /* \"#utility.yul\":17334:17422   */\n      mstore\n        /* \"#utility.yul\":17441:17445   */\n      0x11\n        /* \"#utility.yul\":17438:17439   */\n      0x04\n        /* \"#utility.yul\":17431:17446   */\n      mstore\n        /* \"#utility.yul\":17465:17469   */\n      0x24\n        /* \"#utility.yul\":17462:17463   */\n      0x00\n        /* \"#utility.yul\":17455:17470   */\n      revert\n        /* \"#utility.yul\":17482:17673   */\n    tag_101:\n        /* \"#utility.yul\":17522:17525   */\n      0x00\n        /* \"#utility.yul\":17541:17561   */\n      tag_342\n        /* \"#utility.yul\":17559:17560   */\n      dup3\n        /* \"#utility.yul\":17541:17561   */\n      tag_109\n      jump\t// in\n    tag_342:\n        /* \"#utility.yul\":17536:17561   */\n      swap2\n      pop\n        /* \"#utility.yul\":17575:17595   */\n      tag_343\n        /* \"#utility.yul\":17593:17594   */\n      dup4\n        /* \"#utility.yul\":17575:17595   */\n      tag_109\n      jump\t// in\n    tag_343:\n        /* \"#utility.yul\":17570:17595   */\n      swap3\n      pop\n        /* \"#utility.yul\":17618:17619   */\n      dup3\n        /* \"#utility.yul\":17615:17616   */\n      dup3\n        /* \"#utility.yul\":17611:17620   */\n      add\n        /* \"#utility.yul\":17604:17620   */\n      swap1\n      pop\n        /* \"#utility.yul\":17639:17642   */\n      dup1\n        /* \"#utility.yul\":17636:17637   */\n      dup3\n        /* \"#utility.yul\":17633:17643   */\n      gt\n        /* \"#utility.yul\":17630:17666   */\n      iszero\n      tag_344\n      jumpi\n        /* \"#utility.yul\":17646:17664   */\n      tag_345\n      tag_159\n      jump\t// in\n    tag_345:\n        /* \"#utility.yul\":17630:17666   */\n    tag_344:\n        /* \"#utility.yul\":17482:17673   */\n      swap3\n      swap2\n      pop\n      pop\n      jump\t// out\n        /* \"#utility.yul\":17679:17833   */\n    tag_160:\n        /* \"#utility.yul\":17819:17825   */\n      0x766f746500000000000000000000000000000000000000000000000000000000\n        /* \"#utility.yul\":17815:17816   */\n      0x00\n        /* \"#utility.yul\":17807:17813   */\n      dup3\n        /* \"#utility.yul\":17803:17817   */\n      add\n        /* \"#utility.yul\":17796:17826   */\n      mstore\n        /* \"#utility.yul\":17679:17833   */\n      pop\n      jump\t// out\n        /* \"#utility.yul\":17839:18239   */\n    tag_161:\n        /* \"#utility.yul\":17999:18002   */\n      0x00\n        /* \"#utility.yul\":18020:18104   */\n      tag_348\n        /* \"#utility.yul\":18102:18103   */\n      0x04\n        /* \"#utility.yul\":18097:18100   */\n      dup4\n        /* \"#utility.yul\":18020:18104   */\n      tag_150\n      jump\t// in\n    tag_348:\n        /* \"#utility.yul\":18013:18104   */\n      swap2\n      pop\n        /* \"#utility.yul\":18113:18206   */\n      tag_349\n        /* \"#utility.yul\":18202:18205   */\n      dup3\n        /* \"#utility.yul\":18113:18206   */\n      tag_160\n      jump\t// in\n    tag_349:\n        /* \"#utility.yul\":18231:18232   */\n      0x04\n        /* \"#utility.yul\":18226:18229   */\n      dup3\n        /* \"#utility.yul\":18222:18233   */\n      add\n        /* \"#utility.yul\":18215:18233   */\n      swap1\n      pop\n        /* \"#utility.yul\":17839:18239   */\n      swap2\n      swap1\n      pop\n      jump\t// out\n        /* \"#utility.yul\":18245:18626   */\n    tag_103:\n        /* \"#utility.yul\":18430:18433   */\n      0x00\n        /* \"#utility.yul\":18452:18600   */\n      tag_351\n        /* \"#utility.yul\":18596:18599   */\n      dup3\n        /* \"#utility.yul\":18452:18600   */\n      tag_161\n      jump\t// in\n    tag_351:\n        /* \"#utility.yul\":18445:18600   */\n      swap2\n      pop\n        /* \"#utility.yul\":18617:18620   */\n      dup2\n        /* \"#utility.yul\":18610:18620   */\n      swap1\n      pop\n        /* \"#utility.yul\":18245:18626   */\n      swap2\n      swap1\n      pop\n      jump\t// out\n        /* \"#utility.yul\":18632:18964   */\n    tag_105:\n        /* \"#utility.yul\":18753:18757   */\n      0x00\n        /* \"#utility.yul\":18791:18793   */\n      0x40\n        /* \"#utility.yul\":18780:18789   */\n      dup3\n        /* \"#utility.yul\":18776:18794   */\n      add\n        /* \"#utility.yul\":18768:18794   */\n      swap1\n      pop\n        /* \"#utility.yul\":18804:18875   */\n      tag_353\n        /* \"#utility.yul\":18872:18873   */\n      0x00\n        /* \"#utility.yul\":18861:18870   */\n      dup4\n        /* \"#utility.yul\":18857:18874   */\n      add\n        /* \"#utility.yul\":18848:18854   */\n      dup6\n        /* \"#utility.yul\":18804:18875   */\n      tag_119\n      jump\t// in\n    tag_353:\n        /* \"#utility.yul\":18885:18957   */\n      tag_354\n        /* \"#utility.yul\":18953:18955   */\n      0x20\n        /* \"#utility.yul\":18942:18951   */\n      dup4\n        /* \"#utility.yul\":18938:18956   */\n      add\n        /* \"#utility.yul\":18929:18935   */\n      dup5\n        /* \"#utility.yul\":18885:18957   */\n      tag_120\n      jump\t// in\n    tag_354:\n        /* \"#utility.yul\":18632:18964   */\n      swap4\n      swap3\n      pop\n      pop\n      pop\n      jump\t// out\n\n    auxdata: 0xa26469706673582212201fdeeffff89b99482081f90f5c7bb21a083a2a9d1db69e92ccd0d8149da1152864736f6c63430008110033\n}\n",
				"bytecode": {
					"linkReferences": {},
					"object": "608060405234801561001057600080fd5b506113b6806100206000396000f3fe608060405234801561001057600080fd5b50600436106100935760003560e01c80633c795afc116100665780633c795afc1461015d578063429b92bf1461018d5780636f2a064c146101bd57806387ceff09146101ed578063e9511c6e1461020b57610093565b8063013cf08b146100985780630ce0ebf4146100cd578063101778d4146100fd57806333311aee1461012d575b600080fd5b6100b260048036038101906100ad91906109dc565b610227565b6040516100c496959493929190610b04565b60405180910390f35b6100e760048036038101906100e29190610ca8565b6103a0565b6040516100f49190610d33565b60405180910390f35b610117600480360381019061011291906109dc565b6104ac565b6040516101249190610d33565b60405180910390f35b610147600480360381019061014291906109dc565b6104cb565b6040516101549190610d4e565b60405180910390f35b61017760048036038101906101729190610d9c565b610572565b6040516101849190610d33565b60405180910390f35b6101a760048036038101906101a291906109dc565b61063a565b6040516101b49190610d4e565b60405180910390f35b6101d760048036038101906101d291906109dc565b6106e1565b6040516101e49190610d33565b60405180910390f35b6101f5610700565b6040516102029190610d33565b60405180910390f35b610225600480360381019061022091906109dc565b610708565b005b600060205280600052604060002060009150905080600001805461024a90610e0b565b80601f016020809104026020016040519081016040528092919081815260200182805461027690610e0b565b80156102c35780601f10610298576101008083540402835291602001916102c3565b820191906000526020600020905b8154815290600101906020018083116102a657829003601f168201915b5050505050908060010180546102d890610e0b565b80601f016020809104026020016040519081016040528092919081815260200182805461030490610e0b565b80156103515780601f1061032657610100808354040283529160200191610351565b820191906000526020600020905b81548152906001019060200180831161033457829003601f168201915b5050505050908060020160009054906101000a900473ffffffffffffffffffffffffffffffffffffffff16908060030154908060040160009054906101000a900460ff16908060050154905086565b60008042905060008060008381526020019081526020016000209050858160000190816103cd9190610fe8565b50848160010190816103df9190610fe8565b50338160020160006101000a81548173ffffffffffffffffffffffffffffffffffffffff021916908373ffffffffffffffffffffffffffffffffffffffff16021790555060018160040160006101000a81548160ff0219169083151502179055508381600501819055506000816003018190555060405161045f90611111565b60405180910390207fbc0e6e5d3bae05319a46934c70314dba18cc2304e08b29496d03832071aff7e08386604051610498929190611126565b60405180910390a281925050509392505050565b6000806000838152602001908152602001600020600301549050919050565b606060008083815260200190815260200160002060010180546104ed90610e0b565b80601f016020809104026020016040519081016040528092919081815260200182805461051990610e0b565b80156105665780601f1061053b57610100808354040283529160200191610566565b820191906000526020600020905b81548152906001019060200180831161054957829003601f168201915b50505050509050919050565b600080151560008085815260200190815260200160002060040160009054906101000a900460ff161515036105dc576040517f08c379a00000000000000000000000000000000000000000000000000000000081526004016105d39061119b565b60405180910390fd5b60008084815260200190815260200160002060060160008373ffffffffffffffffffffffffffffffffffffffff1673ffffffffffffffffffffffffffffffffffffffff16815260200190815260200160002060000154905092915050565b6060600080838152602001908152602001600020600001805461065c90610e0b565b80601f016020809104026020016040519081016040528092919081815260200182805461068890610e0b565b80156106d55780601f106106aa576101008083540402835291602001916106d5565b820191906000526020600020905b8154815290600101906020018083116106b857829003601f168201915b50505050509050919050565b6000806000838152602001908152602001600020600501549050919050565b600042905090565b6000151560008083815260200190815260200160002060040160009054906101000a900460ff16151503610771576040517f08c379a00000000000000000000000000000000000000000000000000000000081526004016107689061119b565b60405180910390fd5b6000429050806000808481526020019081526020016000206005015410156107ce576040517f08c379a00000000000000000000000000000000000000000000000000000000081526004016107c590611207565b60405180910390fd5b6001151560008084815260200190815260200160002060060160003373ffffffffffffffffffffffffffffffffffffffff1673ffffffffffffffffffffffffffffffffffffffff16815260200190815260200160002060010160009054906101000a900460ff16151503610877576040517f08c379a000000000000000000000000000000000000000000000000000000000815260040161086e90611273565b60405180910390fd5b600060405180604001604052804281526020016001151581525090508060008085815260200190815260200160002060060160003373ffffffffffffffffffffffffffffffffffffffff1673ffffffffffffffffffffffffffffffffffffffff1681526020019081526020016000206000820151816000015560208201518160010160006101000a81548160ff0219169083151502179055509050506001600080858152602001908152602001600020600301600082825461093991906112c2565b9250508190555060405161094c90611342565b60405180910390207f6e1d6794e13b69f31305f22ea91ab03481b376fdf800c35bb36b6b582c25f1933342604051610985929190611357565b60405180910390a2505050565b6000604051905090565b600080fd5b600080fd5b6000819050919050565b6109b9816109a6565b81146109c457600080fd5b50565b6000813590506109d6816109b0565b92915050565b6000602082840312156109f2576109f161099c565b5b6000610a00848285016109c7565b91505092915050565b600081519050919050565b600082825260208201905092915050565b60005b83811015610a43578082015181840152602081019050610a28565b60008484015250505050565b6000601f19601f8301169050919050565b6000610a6b82610a09565b610a758185610a14565b9350610a85818560208601610a25565b610a8e81610a4f565b840191505092915050565b600073ffffffffffffffffffffffffffffffffffffffff82169050919050565b6000610ac482610a99565b9050919050565b610ad481610ab9565b82525050565b610ae3816109a6565b82525050565b60008115159050919050565b610afe81610ae9565b82525050565b600060c0820190508181036000830152610b1e8189610a60565b90508181036020830152610b328188610a60565b9050610b416040830187610acb565b610b4e6060830186610ada565b610b5b6080830185610af5565b610b6860a0830184610ada565b979650505050505050565b600080fd5b600080fd5b7f4e487b7100000000000000000000000000000000000000000000000000000000600052604160045260246000fd5b610bb582610a4f565b810181811067ffffffffffffffff82111715610bd457610bd3610b7d565b5b80604052505050565b6000610be7610992565b9050610bf38282610bac565b919050565b600067ffffffffffffffff821115610c1357610c12610b7d565b5b610c1c82610a4f565b9050602081019050919050565b82818337600083830152505050565b6000610c4b610c4684610bf8565b610bdd565b905082815260208101848484011115610c6757610c66610b78565b5b610c72848285610c29565b509392505050565b600082601f830112610c8f57610c8e610b73565b5b8135610c9f848260208601610c38565b91505092915050565b600080600060608486031215610cc157610cc061099c565b5b600084013567ffffffffffffffff811115610cdf57610cde6109a1565b5b610ceb86828701610c7a565b935050602084013567ffffffffffffffff811115610d0c57610d0b6109a1565b5b610d1886828701610c7a565b9250506040610d29868287016109c7565b9150509250925092565b6000602082019050610d486000830184610ada565b92915050565b60006020820190508181036000830152610d688184610a60565b905092915050565b610d7981610ab9565b8114610d8457600080fd5b50565b600081359050610d9681610d70565b92915050565b60008060408385031215610db357610db261099c565b5b6000610dc1858286016109c7565b9250506020610dd285828601610d87565b9150509250929050565b7f4e487b7100000000000000000000000000000000000000000000000000000000600052602260045260246000fd5b60006002820490506001821680610e2357607f821691505b602082108103610e3657610e35610ddc565b5b50919050565b60008190508160005260206000209050919050565b60006020601f8301049050919050565b600082821b905092915050565b600060088302610e9e7fffffffffffffffffffffffffffffffffffffffffffffffffffffffffffffffff82610e61565b610ea88683610e61565b95508019841693508086168417925050509392505050565b6000819050919050565b6000610ee5610ee0610edb846109a6565b610ec0565b6109a6565b9050919050565b6000819050919050565b610eff83610eca565b610f13610f0b82610eec565b848454610e6e565b825550505050565b600090565b610f28610f1b565b610f33818484610ef6565b505050565b5b81811015610f5757610f4c600082610f20565b600181019050610f39565b5050565b601f821115610f9c57610f6d81610e3c565b610f7684610e51565b81016020851015610f85578190505b610f99610f9185610e51565b830182610f38565b50505b505050565b600082821c905092915050565b6000610fbf60001984600802610fa1565b1980831691505092915050565b6000610fd88383610fae565b9150826002028217905092915050565b610ff182610a09565b67ffffffffffffffff81111561100a57611009610b7d565b5b6110148254610e0b565b61101f828285610f5b565b600060209050601f8311600181146110525760008415611040578287015190505b61104a8582610fcc565b8655506110b2565b601f19841661106086610e3c565b60005b8281101561108857848901518255600182019150602085019450602081019050611063565b868310156110a557848901516110a1601f891682610fae565b8355505b6001600288020188555050505b505050505050565b600081905092915050565b7f70726f706f736500000000000000000000000000000000000000000000000000600082015250565b60006110fb6007836110ba565b9150611106826110c5565b600782019050919050565b600061111c826110ee565b9150819050919050565b600060408201905061113b6000830185610ada565b6111486020830184610ada565b9392505050565b7f70726f706f73616c206e6f742065786973740000000000000000000000000000600082015250565b6000611185601283610a14565b91506111908261114f565b602082019050919050565b600060208201905081810360008301526111b481611178565b9050919050565b7f65786365656420766f74696e672074696d650000000000000000000000000000600082015250565b60006111f1601283610a14565b91506111fc826111bb565b602082019050919050565b60006020820190508181036000830152611220816111e4565b9050919050565b7f616c726561647920766f74650000000000000000000000000000000000000000600082015250565b600061125d600c83610a14565b915061126882611227565b602082019050919050565b6000602082019050818103600083015261128c81611250565b9050919050565b7f4e487b7100000000000000000000000000000000000000000000000000000000600052601160045260246000fd5b60006112cd826109a6565b91506112d8836109a6565b92508282019050808211156112f0576112ef611293565b5b92915050565b7f766f746500000000000000000000000000000000000000000000000000000000600082015250565b600061132c6004836110ba565b9150611337826112f6565b600482019050919050565b600061134d8261131f565b9150819050919050565b600060408201905061136c6000830185610acb565b6113796020830184610ada565b939250505056fea26469706673582212201fdeeffff89b99482081f90f5c7bb21a083a2a9d1db69e92ccd0d8149da1152864736f6c63430008110033",
					"opcodes": "PUSH1 0x80 PUSH1 0x40 MSTORE CALLVALUE DUP1 ISZERO PUSH2 0x10 JUMPI PUSH1 0x0 DUP1 REVERT JUMPDEST POP PUSH2 0x13B6 DUP1 PUSH2 0x20 PUSH1 0x0 CODECOPY PUSH1 0x0 RETURN INVALID PUSH1 0x80 PUSH1 0x40 MSTORE CALLVALUE DUP1 ISZERO PUSH2 0x10 JUMPI PUSH1 0x0 DUP1 REVERT JUMPDEST POP PUSH1 0x4 CALLDATASIZE LT PUSH2 0x93 JUMPI PUSH1 0x0 CALLDATALOAD PUSH1 0xE0 SHR DUP1 PUSH4 0x3C795AFC GT PUSH2 0x66 JUMPI DUP1 PUSH4 0x3C795AFC EQ PUSH2 0x15D JUMPI DUP1 PUSH4 0x429B92BF EQ PUSH2 0x18D JUMPI DUP1 PUSH4 0x6F2A064C EQ PUSH2 0x1BD JUMPI DUP1 PUSH4 0x87CEFF09 EQ PUSH2 0x1ED JUMPI DUP1 PUSH4 0xE9511C6E EQ PUSH2 0x20B JUMPI PUSH2 0x93 JUMP JUMPDEST DUP1 PUSH4 0x13CF08B EQ PUSH2 0x98 JUMPI DUP1 PUSH4 0xCE0EBF4 EQ PUSH2 0xCD JUMPI DUP1 PUSH4 0x101778D4 EQ PUSH2 0xFD JUMPI DUP1 PUSH4 0x33311AEE EQ PUSH2 0x12D JUMPI JUMPDEST PUSH1 0x0 DUP1 REVERT JUMPDEST PUSH2 0xB2 PUSH1 0x4 DUP1 CALLDATASIZE SUB DUP2 ADD SWAP1 PUSH2 0xAD SWAP2 SWAP1 PUSH2 0x9DC JUMP JUMPDEST PUSH2 0x227 JUMP JUMPDEST PUSH1 0x40 MLOAD PUSH2 0xC4 SWAP7 SWAP6 SWAP5 SWAP4 SWAP3 SWAP2 SWAP1 PUSH2 0xB04 JUMP JUMPDEST PUSH1 0x40 MLOAD DUP1 SWAP2 SUB SWAP1 RETURN JUMPDEST PUSH2 0xE7 PUSH1 0x4 DUP1 CALLDATASIZE SUB DUP2 ADD SWAP1 PUSH2 0xE2 SWAP2 SWAP1 PUSH2 0xCA8 JUMP JUMPDEST PUSH2 0x3A0 JUMP JUMPDEST PUSH1 0x40 MLOAD PUSH2 0xF4 SWAP2 SWAP1 PUSH2 0xD33 JUMP JUMPDEST PUSH1 0x40 MLOAD DUP1 SWAP2 SUB SWAP1 RETURN JUMPDEST PUSH2 0x117 PUSH1 0x4 DUP1 CALLDATASIZE SUB DUP2 ADD SWAP1 PUSH2 0x112 SWAP2 SWAP1 PUSH2 0x9DC JUMP JUMPDEST PUSH2 0x4AC JUMP JUMPDEST PUSH1 0x40 MLOAD PUSH2 0x124 SWAP2 SWAP1 PUSH2 0xD33 JUMP JUMPDEST PUSH1 0x40 MLOAD DUP1 SWAP2 SUB SWAP1 RETURN JUMPDEST PUSH2 0x147 PUSH1 0x4 DUP1 CALLDATASIZE SUB DUP2 ADD SWAP1 PUSH2 0x142 SWAP2 SWAP1 PUSH2 0x9DC JUMP JUMPDEST PUSH2 0x4CB JUMP JUMPDEST PUSH1 0x40 MLOAD PUSH2 0x154 SWAP2 SWAP1 PUSH2 0xD4E JUMP JUMPDEST PUSH1 0x40 MLOAD DUP1 SWAP2 SUB SWAP1 RETURN JUMPDEST PUSH2 0x177 PUSH1 0x4 DUP1 CALLDATASIZE SUB DUP2 ADD SWAP1 PUSH2 0x172 SWAP2 SWAP1 PUSH2 0xD9C JUMP JUMPDEST PUSH2 0x572 JUMP JUMPDEST PUSH1 0x40 MLOAD PUSH2 0x184 SWAP2 SWAP1 PUSH2 0xD33 JUMP JUMPDEST PUSH1 0x40 MLOAD DUP1 SWAP2 SUB SWAP1 RETURN JUMPDEST PUSH2 0x1A7 PUSH1 0x4 DUP1 CALLDATASIZE SUB DUP2 ADD SWAP1 PUSH2 0x1A2 SWAP2 SWAP1 PUSH2 0x9DC JUMP JUMPDEST PUSH2 0x63A JUMP JUMPDEST PUSH1 0x40 MLOAD PUSH2 0x1B4 SWAP2 SWAP1 PUSH2 0xD4E JUMP JUMPDEST PUSH1 0x40 MLOAD DUP1 SWAP2 SUB SWAP1 RETURN JUMPDEST PUSH2 0x1D7 PUSH1 0x4 DUP1 CALLDATASIZE SUB DUP2 ADD SWAP1 PUSH2 0x1D2 SWAP2 SWAP1 PUSH2 0x9DC JUMP JUMPDEST PUSH2 0x6E1 JUMP JUMPDEST PUSH1 0x40 MLOAD PUSH2 0x1E4 SWAP2 SWAP1 PUSH2 0xD33 JUMP JUMPDEST PUSH1 0x40 MLOAD DUP1 SWAP2 SUB SWAP1 RETURN JUMPDEST PUSH2 0x1F5 PUSH2 0x700 JUMP JUMPDEST PUSH1 0x40 MLOAD PUSH2 0x202 SWAP2 SWAP1 PUSH2 0xD33 JUMP JUMPDEST PUSH1 0x40 MLOAD DUP1 SWAP2 SUB SWAP1 RETURN JUMPDEST PUSH2 0x225 PUSH1 0x4 DUP1 CALLDATASIZE SUB DUP2 ADD SWAP1 PUSH2 0x220 SWAP2 SWAP1 PUSH2 0x9DC JUMP JUMPDEST PUSH2 0x708 JUMP JUMPDEST STOP JUMPDEST PUSH1 0x0 PUSH1 0x20 MSTORE DUP1 PUSH1 0x0 MSTORE PUSH1 0x40 PUSH1 0x0 KECCAK256 PUSH1 0x0 SWAP2 POP SWAP1 POP DUP1 PUSH1 0x0 ADD DUP1 SLOAD PUSH2 0x24A SWAP1 PUSH2 0xE0B JUMP JUMPDEST DUP1 PUSH1 0x1F ADD PUSH1 0x20 DUP1 SWAP2 DIV MUL PUSH1 0x20 ADD PUSH1 0x40 MLOAD SWAP1 DUP2 ADD PUSH1 0x40 MSTORE DUP1 SWAP3 SWAP2 SWAP1 DUP2 DUP2 MSTORE PUSH1 0x20 ADD DUP3 DUP1 SLOAD PUSH2 0x276 SWAP1 PUSH2 0xE0B JUMP JUMPDEST DUP1 ISZERO PUSH2 0x2C3 JUMPI DUP1 PUSH1 0x1F LT PUSH2 0x298 JUMPI PUSH2 0x100 DUP1 DUP4 SLOAD DIV MUL DUP4 MSTORE SWAP2 PUSH1 0x20 ADD SWAP2 PUSH2 0x2C3 JUMP JUMPDEST DUP3 ADD SWAP2 SWAP1 PUSH1 0x0 MSTORE PUSH1 0x20 PUSH1 0x0 KECCAK256 SWAP1 JUMPDEST DUP2 SLOAD DUP2 MSTORE SWAP1 PUSH1 0x1 ADD SWAP1 PUSH1 0x20 ADD DUP1 DUP4 GT PUSH2 0x2A6 JUMPI DUP3 SWAP1 SUB PUSH1 0x1F AND DUP3 ADD SWAP2 JUMPDEST POP POP POP POP POP SWAP1 DUP1 PUSH1 0x1 ADD DUP1 SLOAD PUSH2 0x2D8 SWAP1 PUSH2 0xE0B JUMP JUMPDEST DUP1 PUSH1 0x1F ADD PUSH1 0x20 DUP1 SWAP2 DIV MUL PUSH1 0x20 ADD PUSH1 0x40 MLOAD SWAP1 DUP2 ADD PUSH1 0x40 MSTORE DUP1 SWAP3 SWAP2 SWAP1 DUP2 DUP2 MSTORE PUSH1 0x20 ADD DUP3 DUP1 SLOAD PUSH2 0x304 SWAP1 PUSH2 0xE0B JUMP JUMPDEST DUP1 ISZERO PUSH2 0x351 JUMPI DUP1 PUSH1 0x1F LT PUSH2 0x326 JUMPI PUSH2 0x100 DUP1 DUP4 SLOAD DIV MUL DUP4 MSTORE SWAP2 PUSH1 0x20 ADD SWAP2 PUSH2 0x351 JUMP JUMPDEST DUP3 ADD SWAP2 SWAP1 PUSH1 0x0 MSTORE PUSH1 0x20 PUSH1 0x0 KECCAK256 SWAP1 JUMPDEST DUP2 SLOAD DUP2 MSTORE SWAP1 PUSH1 0x1 ADD SWAP1 PUSH1 0x20 ADD DUP1 DUP4 GT PUSH2 0x334 JUMPI DUP3 SWAP1 SUB PUSH1 0x1F AND DUP3 ADD SWAP2 JUMPDEST POP POP POP POP POP SWAP1 DUP1 PUSH1 0x2 ADD PUSH1 0x0 SWAP1 SLOAD SWAP1 PUSH2 0x100 EXP SWAP1 DIV PUSH20 0xFFFFFFFFFFFFFFFFFFFFFFFFFFFFFFFFFFFFFFFF AND SWAP1 DUP1 PUSH1 0x3 ADD SLOAD SWAP1 DUP1 PUSH1 0x4 ADD PUSH1 0x0 SWAP1 SLOAD SWAP1 PUSH2 0x100 EXP SWAP1 DIV PUSH1 0xFF AND SWAP1 DUP1 PUSH1 0x5 ADD SLOAD SWAP1 POP DUP7 JUMP JUMPDEST PUSH1 0x0 DUP1 TIMESTAMP SWAP1 POP PUSH1 0x0 DUP1 PUSH1 0x0 DUP4 DUP2 MSTORE PUSH1 0x20 ADD SWAP1 DUP2 MSTORE PUSH1 0x20 ADD PUSH1 0x0 KECCAK256 SWAP1 POP DUP6 DUP2 PUSH1 0x0 ADD SWAP1 DUP2 PUSH2 0x3CD SWAP2 SWAP1 PUSH2 0xFE8 JUMP JUMPDEST POP DUP5 DUP2 PUSH1 0x1 ADD SWAP1 DUP2 PUSH2 0x3DF SWAP2 SWAP1 PUSH2 0xFE8 JUMP JUMPDEST POP CALLER DUP2 PUSH1 0x2 ADD PUSH1 0x0 PUSH2 0x100 EXP DUP2 SLOAD DUP2 PUSH20 0xFFFFFFFFFFFFFFFFFFFFFFFFFFFFFFFFFFFFFFFF MUL NOT AND SWAP1 DUP4 PUSH20 0xFFFFFFFFFFFFFFFFFFFFFFFFFFFFFFFFFFFFFFFF AND MUL OR SWAP1 SSTORE POP PUSH1 0x1 DUP2 PUSH1 0x4 ADD PUSH1 0x0 PUSH2 0x100 EXP DUP2 SLOAD DUP2 PUSH1 0xFF MUL NOT AND SWAP1 DUP4 ISZERO ISZERO MUL OR SWAP1 SSTORE POP DUP4 DUP2 PUSH1 0x5 ADD DUP2 SWAP1 SSTORE POP PUSH1 0x0 DUP2 PUSH1 0x3 ADD DUP2 SWAP1 SSTORE POP PUSH1 0x40 MLOAD PUSH2 0x45F SWAP1 PUSH2 0x1111 JUMP JUMPDEST PUSH1 0x40 MLOAD DUP1 SWAP2 SUB SWAP1 KECCAK256 PUSH32 0xBC0E6E5D3BAE05319A46934C70314DBA18CC2304E08B29496D03832071AFF7E0 DUP4 DUP7 PUSH1 0x40 MLOAD PUSH2 0x498 SWAP3 SWAP2 SWAP1 PUSH2 0x1126 JUMP JUMPDEST PUSH1 0x40 MLOAD DUP1 SWAP2 SUB SWAP1 LOG2 DUP2 SWAP3 POP POP POP SWAP4 SWAP3 POP POP POP JUMP JUMPDEST PUSH1 0x0 DUP1 PUSH1 0x0 DUP4 DUP2 MSTORE PUSH1 0x20 ADD SWAP1 DUP2 MSTORE PUSH1 0x20 ADD PUSH1 0x0 KECCAK256 PUSH1 0x3 ADD SLOAD SWAP1 POP SWAP2 SWAP1 POP JUMP JUMPDEST PUSH1 0x60 PUSH1 0x0 DUP1 DUP4 DUP2 MSTORE PUSH1 0x20 ADD SWAP1 DUP2 MSTORE PUSH1 0x20 ADD PUSH1 0x0 KECCAK256 PUSH1 0x1 ADD DUP1 SLOAD PUSH2 0x4ED SWAP1 PUSH2 0xE0B JUMP JUMPDEST DUP1 PUSH1 0x1F ADD PUSH1 0x20 DUP1 SWAP2 DIV MUL PUSH1 0x20 ADD PUSH1 0x40 MLOAD SWAP1 DUP2 ADD PUSH1 0x40 MSTORE DUP1 SWAP3 SWAP2 SWAP1 DUP2 DUP2 MSTORE PUSH1 0x20 ADD DUP3 DUP1 SLOAD PUSH2 0x519 SWAP1 PUSH2 0xE0B JUMP JUMPDEST DUP1 ISZERO PUSH2 0x566 JUMPI DUP1 PUSH1 0x1F LT PUSH2 0x53B JUMPI PUSH2 0x100 DUP1 DUP4 SLOAD DIV MUL DUP4 MSTORE SWAP2 PUSH1 0x20 ADD SWAP2 PUSH2 0x566 JUMP JUMPDEST DUP3 ADD SWAP2 SWAP1 PUSH1 0x0 MSTORE PUSH1 0x20 PUSH1 0x0 KECCAK256 SWAP1 JUMPDEST DUP2 SLOAD DUP2 MSTORE SWAP1 PUSH1 0x1 ADD SWAP1 PUSH1 0x20 ADD DUP1 DUP4 GT PUSH2 0x549 JUMPI DUP3 SWAP1 SUB PUSH1 0x1F AND DUP3 ADD SWAP2 JUMPDEST POP POP POP POP POP SWAP1 POP SWAP2 SWAP1 POP JUMP JUMPDEST PUSH1 0x0 DUP1 ISZERO ISZERO PUSH1 0x0 DUP1 DUP6 DUP2 MSTORE PUSH1 0x20 ADD SWAP1 DUP2 MSTORE PUSH1 0x20 ADD PUSH1 0x0 KECCAK256 PUSH1 0x4 ADD PUSH1 0x0 SWAP1 SLOAD SWAP1 PUSH2 0x100 EXP SWAP1 DIV PUSH1 0xFF AND ISZERO ISZERO SUB PUSH2 0x5DC JUMPI PUSH1 0x40 MLOAD PUSH32 0x8C379A000000000000000000000000000000000000000000000000000000000 DUP2 MSTORE PUSH1 0x4 ADD PUSH2 0x5D3 SWAP1 PUSH2 0x119B JUMP JUMPDEST PUSH1 0x40 MLOAD DUP1 SWAP2 SUB SWAP1 REVERT JUMPDEST PUSH1 0x0 DUP1 DUP5 DUP2 MSTORE PUSH1 0x20 ADD SWAP1 DUP2 MSTORE PUSH1 0x20 ADD PUSH1 0x0 KECCAK256 PUSH1 0x6 ADD PUSH1 0x0 DUP4 PUSH20 0xFFFFFFFFFFFFFFFFFFFFFFFFFFFFFFFFFFFFFFFF AND PUSH20 0xFFFFFFFFFFFFFFFFFFFFFFFFFFFFFFFFFFFFFFFF AND DUP2 MSTORE PUSH1 0x20 ADD SWAP1 DUP2 MSTORE PUSH1 0x20 ADD PUSH1 0x0 KECCAK256 PUSH1 0x0 ADD SLOAD SWAP1 POP SWAP3 SWAP2 POP POP JUMP JUMPDEST PUSH1 0x60 PUSH1 0x0 DUP1 DUP4 DUP2 MSTORE PUSH1 0x20 ADD SWAP1 DUP2 MSTORE PUSH1 0x20 ADD PUSH1 0x0 KECCAK256 PUSH1 0x0 ADD DUP1 SLOAD PUSH2 0x65C SWAP1 PUSH2 0xE0B JUMP JUMPDEST DUP1 PUSH1 0x1F ADD PUSH1 0x20 DUP1 SWAP2 DIV MUL PUSH1 0x20 ADD PUSH1 0x40 MLOAD SWAP1 DUP2 ADD PUSH1 0x40 MSTORE DUP1 SWAP3 SWAP2 SWAP1 DUP2 DUP2 MSTORE PUSH1 0x20 ADD DUP3 DUP1 SLOAD PUSH2 0x688 SWAP1 PUSH2 0xE0B JUMP JUMPDEST DUP1 ISZERO PUSH2 0x6D5 JUMPI DUP1 PUSH1 0x1F LT PUSH2 0x6AA JUMPI PUSH2 0x100 DUP1 DUP4 SLOAD DIV MUL DUP4 MSTORE SWAP2 PUSH1 0x20 ADD SWAP2 PUSH2 0x6D5 JUMP JUMPDEST DUP3 ADD SWAP2 SWAP1 PUSH1 0x0 MSTORE PUSH1 0x20 PUSH1 0x0 KECCAK256 SWAP1 JUMPDEST DUP2 SLOAD DUP2 MSTORE SWAP1 PUSH1 0x1 ADD SWAP1 PUSH1 0x20 ADD DUP1 DUP4 GT PUSH2 0x6B8 JUMPI DUP3 SWAP1 SUB PUSH1 0x1F AND DUP3 ADD SWAP2 JUMPDEST POP POP POP POP POP SWAP1 POP SWAP2 SWAP1 POP JUMP JUMPDEST PUSH1 0x0 DUP1 PUSH1 0x0 DUP4 DUP2 MSTORE PUSH1 0x20 ADD SWAP1 DUP2 MSTORE PUSH1 0x20 ADD PUSH1 0x0 KECCAK256 PUSH1 0x5 ADD SLOAD SWAP1 POP SWAP2 SWAP1 POP JUMP JUMPDEST PUSH1 0x0 TIMESTAMP SWAP1 POP SWAP1 JUMP JUMPDEST PUSH1 0x0 ISZERO ISZERO PUSH1 0x0 DUP1 DUP4 DUP2 MSTORE PUSH1 0x20 ADD SWAP1 DUP2 MSTORE PUSH1 0x20 ADD PUSH1 0x0 KECCAK256 PUSH1 0x4 ADD PUSH1 0x0 SWAP1 SLOAD SWAP1 PUSH2 0x100 EXP SWAP1 DIV PUSH1 0xFF AND ISZERO ISZERO SUB PUSH2 0x771 JUMPI PUSH1 0x40 MLOAD PUSH32 0x8C379A000000000000000000000000000000000000000000000000000000000 DUP2 MSTORE PUSH1 0x4 ADD PUSH2 0x768 SWAP1 PUSH2 0x119B JUMP JUMPDEST PUSH1 0x40 MLOAD DUP1 SWAP2 SUB SWAP1 REVERT JUMPDEST PUSH1 0x0 TIMESTAMP SWAP1 POP DUP1 PUSH1 0x0 DUP1 DUP5 DUP2 MSTORE PUSH1 0x20 ADD SWAP1 DUP2 MSTORE PUSH1 0x20 ADD PUSH1 0x0 KECCAK256 PUSH1 0x5 ADD SLOAD LT ISZERO PUSH2 0x7CE JUMPI PUSH1 0x40 MLOAD PUSH32 0x8C379A000000000000000000000000000000000000000000000000000000000 DUP2 MSTORE PUSH1 0x4 ADD PUSH2 0x7C5 SWAP1 PUSH2 0x1207 JUMP JUMPDEST PUSH1 0x40 MLOAD DUP1 SWAP2 SUB SWAP1 REVERT JUMPDEST PUSH1 0x1 ISZERO ISZERO PUSH1 0x0 DUP1 DUP5 DUP2 MSTORE PUSH1 0x20 ADD SWAP1 DUP2 MSTORE PUSH1 0x20 ADD PUSH1 0x0 KECCAK256 PUSH1 0x6 ADD PUSH1 0x0 CALLER PUSH20 0xFFFFFFFFFFFFFFFFFFFFFFFFFFFFFFFFFFFFFFFF AND PUSH20 0xFFFFFFFFFFFFFFFFFFFFFFFFFFFFFFFFFFFFFFFF AND DUP2 MSTORE PUSH1 0x20 ADD SWAP1 DUP2 MSTORE PUSH1 0x20 ADD PUSH1 0x0 KECCAK256 PUSH1 0x1 ADD PUSH1 0x0 SWAP1 SLOAD SWAP1 PUSH2 0x100 EXP SWAP1 DIV PUSH1 0xFF AND ISZERO ISZERO SUB PUSH2 0x877 JUMPI PUSH1 0x40 MLOAD PUSH32 0x8C379A000000000000000000000000000000000000000000000000000000000 DUP2 MSTORE PUSH1 0x4 ADD PUSH2 0x86E SWAP1 PUSH2 0x1273 JUMP JUMPDEST PUSH1 0x40 MLOAD DUP1 SWAP2 SUB SWAP1 REVERT JUMPDEST PUSH1 0x0 PUSH1 0x40 MLOAD DUP1 PUSH1 0x40 ADD PUSH1 0x40 MSTORE DUP1 TIMESTAMP DUP2 MSTORE PUSH1 0x20 ADD PUSH1 0x1 ISZERO ISZERO DUP2 MSTORE POP SWAP1 POP DUP1 PUSH1 0x0 DUP1 DUP6 DUP2 MSTORE PUSH1 0x20 ADD SWAP1 DUP2 MSTORE PUSH1 0x20 ADD PUSH1 0x0 KECCAK256 PUSH1 0x6 ADD PUSH1 0x0 CALLER PUSH20 0xFFFFFFFFFFFFFFFFFFFFFFFFFFFFFFFFFFFFFFFF AND PUSH20 0xFFFFFFFFFFFFFFFFFFFFFFFFFFFFFFFFFFFFFFFF AND DUP2 MSTORE PUSH1 0x20 ADD SWAP1 DUP2 MSTORE PUSH1 0x20 ADD PUSH1 0x0 KECCAK256 PUSH1 0x0 DUP3 ADD MLOAD DUP2 PUSH1 0x0 ADD SSTORE PUSH1 0x20 DUP3 ADD MLOAD DUP2 PUSH1 0x1 ADD PUSH1 0x0 PUSH2 0x100 EXP DUP2 SLOAD DUP2 PUSH1 0xFF MUL NOT AND SWAP1 DUP4 ISZERO ISZERO MUL OR SWAP1 SSTORE POP SWAP1 POP POP PUSH1 0x1 PUSH1 0x0 DUP1 DUP6 DUP2 MSTORE PUSH1 0x20 ADD SWAP1 DUP2 MSTORE PUSH1 0x20 ADD PUSH1 0x0 KECCAK256 PUSH1 0x3 ADD PUSH1 0x0 DUP3 DUP3 SLOAD PUSH2 0x939 SWAP2 SWAP1 PUSH2 0x12C2 JUMP JUMPDEST SWAP3 POP POP DUP2 SWAP1 SSTORE POP PUSH1 0x40 MLOAD PUSH2 0x94C SWAP1 PUSH2 0x1342 JUMP JUMPDEST PUSH1 0x40 MLOAD DUP1 SWAP2 SUB SWAP1 KECCAK256 PUSH32 0x6E1D6794E13B69F31305F22EA91AB03481B376FDF800C35BB36B6B582C25F193 CALLER TIMESTAMP PUSH1 0x40 MLOAD PUSH2 0x985 SWAP3 SWAP2 SWAP1 PUSH2 0x1357 JUMP JUMPDEST PUSH1 0x40 MLOAD DUP1 SWAP2 SUB SWAP1 LOG2 POP POP POP JUMP JUMPDEST PUSH1 0x0 PUSH1 0x40 MLOAD SWAP1 POP SWAP1 JUMP JUMPDEST PUSH1 0x0 DUP1 REVERT JUMPDEST PUSH1 0x0 DUP1 REVERT JUMPDEST PUSH1 0x0 DUP2 SWAP1 POP SWAP2 SWAP1 POP JUMP JUMPDEST PUSH2 0x9B9 DUP2 PUSH2 0x9A6 JUMP JUMPDEST DUP2 EQ PUSH2 0x9C4 JUMPI PUSH1 0x0 DUP1 REVERT JUMPDEST POP JUMP JUMPDEST PUSH1 0x0 DUP2 CALLDATALOAD SWAP1 POP PUSH2 0x9D6 DUP2 PUSH2 0x9B0 JUMP JUMPDEST SWAP3 SWAP2 POP POP JUMP JUMPDEST PUSH1 0x0 PUSH1 0x20 DUP3 DUP5 SUB SLT ISZERO PUSH2 0x9F2 JUMPI PUSH2 0x9F1 PUSH2 0x99C JUMP JUMPDEST JUMPDEST PUSH1 0x0 PUSH2 0xA00 DUP5 DUP3 DUP6 ADD PUSH2 0x9C7 JUMP JUMPDEST SWAP2 POP POP SWAP3 SWAP2 POP POP JUMP JUMPDEST PUSH1 0x0 DUP2 MLOAD SWAP1 POP SWAP2 SWAP1 POP JUMP JUMPDEST PUSH1 0x0 DUP3 DUP3 MSTORE PUSH1 0x20 DUP3 ADD SWAP1 POP SWAP3 SWAP2 POP POP JUMP JUMPDEST PUSH1 0x0 JUMPDEST DUP4 DUP2 LT ISZERO PUSH2 0xA43 JUMPI DUP1 DUP3 ADD MLOAD DUP2 DUP5 ADD MSTORE PUSH1 0x20 DUP2 ADD SWAP1 POP PUSH2 0xA28 JUMP JUMPDEST PUSH1 0x0 DUP5 DUP5 ADD MSTORE POP POP POP POP JUMP JUMPDEST PUSH1 0x0 PUSH1 0x1F NOT PUSH1 0x1F DUP4 ADD AND SWAP1 POP SWAP2 SWAP1 POP JUMP JUMPDEST PUSH1 0x0 PUSH2 0xA6B DUP3 PUSH2 0xA09 JUMP JUMPDEST PUSH2 0xA75 DUP2 DUP6 PUSH2 0xA14 JUMP JUMPDEST SWAP4 POP PUSH2 0xA85 DUP2 DUP6 PUSH1 0x20 DUP7 ADD PUSH2 0xA25 JUMP JUMPDEST PUSH2 0xA8E DUP2 PUSH2 0xA4F JUMP JUMPDEST DUP5 ADD SWAP2 POP POP SWAP3 SWAP2 POP POP JUMP JUMPDEST PUSH1 0x0 PUSH20 0xFFFFFFFFFFFFFFFFFFFFFFFFFFFFFFFFFFFFFFFF DUP3 AND SWAP1 POP SWAP2 SWAP1 POP JUMP JUMPDEST PUSH1 0x0 PUSH2 0xAC4 DUP3 PUSH2 0xA99 JUMP JUMPDEST SWAP1 POP SWAP2 SWAP1 POP JUMP JUMPDEST PUSH2 0xAD4 DUP2 PUSH2 0xAB9 JUMP JUMPDEST DUP3 MSTORE POP POP JUMP JUMPDEST PUSH2 0xAE3 DUP2 PUSH2 0x9A6 JUMP JUMPDEST DUP3 MSTORE POP POP JUMP JUMPDEST PUSH1 0x0 DUP2 ISZERO ISZERO SWAP1 POP SWAP2 SWAP1 POP JUMP JUMPDEST PUSH2 0xAFE DUP2 PUSH2 0xAE9 JUMP JUMPDEST DUP3 MSTORE POP POP JUMP JUMPDEST PUSH1 0x0 PUSH1 0xC0 DUP3 ADD SWAP1 POP DUP2 DUP2 SUB PUSH1 0x0 DUP4 ADD MSTORE PUSH2 0xB1E DUP2 DUP10 PUSH2 0xA60 JUMP JUMPDEST SWAP1 POP DUP2 DUP2 SUB PUSH1 0x20 DUP4 ADD MSTORE PUSH2 0xB32 DUP2 DUP9 PUSH2 0xA60 JUMP JUMPDEST SWAP1 POP PUSH2 0xB41 PUSH1 0x40 DUP4 ADD DUP8 PUSH2 0xACB JUMP JUMPDEST PUSH2 0xB4E PUSH1 0x60 DUP4 ADD DUP7 PUSH2 0xADA JUMP JUMPDEST PUSH2 0xB5B PUSH1 0x80 DUP4 ADD DUP6 PUSH2 0xAF5 JUMP JUMPDEST PUSH2 0xB68 PUSH1 0xA0 DUP4 ADD DUP5 PUSH2 0xADA JUMP JUMPDEST SWAP8 SWAP7 POP POP POP POP POP POP POP JUMP JUMPDEST PUSH1 0x0 DUP1 REVERT JUMPDEST PUSH1 0x0 DUP1 REVERT JUMPDEST PUSH32 0x4E487B7100000000000000000000000000000000000000000000000000000000 PUSH1 0x0 MSTORE PUSH1 0x41 PUSH1 0x4 MSTORE PUSH1 0x24 PUSH1 0x0 REVERT JUMPDEST PUSH2 0xBB5 DUP3 PUSH2 0xA4F JUMP JUMPDEST DUP2 ADD DUP2 DUP2 LT PUSH8 0xFFFFFFFFFFFFFFFF DUP3 GT OR ISZERO PUSH2 0xBD4 JUMPI PUSH2 0xBD3 PUSH2 0xB7D JUMP JUMPDEST JUMPDEST DUP1 PUSH1 0x40 MSTORE POP POP POP JUMP JUMPDEST PUSH1 0x0 PUSH2 0xBE7 PUSH2 0x992 JUMP JUMPDEST SWAP1 POP PUSH2 0xBF3 DUP3 DUP3 PUSH2 0xBAC JUMP JUMPDEST SWAP2 SWAP1 POP JUMP JUMPDEST PUSH1 0x0 PUSH8 0xFFFFFFFFFFFFFFFF DUP3 GT ISZERO PUSH2 0xC13 JUMPI PUSH2 0xC12 PUSH2 0xB7D JUMP JUMPDEST JUMPDEST PUSH2 0xC1C DUP3 PUSH2 0xA4F JUMP JUMPDEST SWAP1 POP PUSH1 0x20 DUP2 ADD SWAP1 POP SWAP2 SWAP1 POP JUMP JUMPDEST DUP3 DUP2 DUP4 CALLDATACOPY PUSH1 0x0 DUP4 DUP4 ADD MSTORE POP POP POP JUMP JUMPDEST PUSH1 0x0 PUSH2 0xC4B PUSH2 0xC46 DUP5 PUSH2 0xBF8 JUMP JUMPDEST PUSH2 0xBDD JUMP JUMPDEST SWAP1 POP DUP3 DUP2 MSTORE PUSH1 0x20 DUP2 ADD DUP5 DUP5 DUP5 ADD GT ISZERO PUSH2 0xC67 JUMPI PUSH2 0xC66 PUSH2 0xB78 JUMP JUMPDEST JUMPDEST PUSH2 0xC72 DUP5 DUP3 DUP6 PUSH2 0xC29 JUMP JUMPDEST POP SWAP4 SWAP3 POP POP POP JUMP JUMPDEST PUSH1 0x0 DUP3 PUSH1 0x1F DUP4 ADD SLT PUSH2 0xC8F JUMPI PUSH2 0xC8E PUSH2 0xB73 JUMP JUMPDEST JUMPDEST DUP2 CALLDATALOAD PUSH2 0xC9F DUP5 DUP3 PUSH1 0x20 DUP7 ADD PUSH2 0xC38 JUMP JUMPDEST SWAP2 POP POP SWAP3 SWAP2 POP POP JUMP JUMPDEST PUSH1 0x0 DUP1 PUSH1 0x0 PUSH1 0x60 DUP5 DUP7 SUB SLT ISZERO PUSH2 0xCC1 JUMPI PUSH2 0xCC0 PUSH2 0x99C JUMP JUMPDEST JUMPDEST PUSH1 0x0 DUP5 ADD CALLDATALOAD PUSH8 0xFFFFFFFFFFFFFFFF DUP2 GT ISZERO PUSH2 0xCDF JUMPI PUSH2 0xCDE PUSH2 0x9A1 JUMP JUMPDEST JUMPDEST PUSH2 0xCEB DUP7 DUP3 DUP8 ADD PUSH2 0xC7A JUMP JUMPDEST SWAP4 POP POP PUSH1 0x20 DUP5 ADD CALLDATALOAD PUSH8 0xFFFFFFFFFFFFFFFF DUP2 GT ISZERO PUSH2 0xD0C JUMPI PUSH2 0xD0B PUSH2 0x9A1 JUMP JUMPDEST JUMPDEST PUSH2 0xD18 DUP7 DUP3 DUP8 ADD PUSH2 0xC7A JUMP JUMPDEST SWAP3 POP POP PUSH1 0x40 PUSH2 0xD29 DUP7 DUP3 DUP8 ADD PUSH2 0x9C7 JUMP JUMPDEST SWAP2 POP POP SWAP3 POP SWAP3 POP SWAP3 JUMP JUMPDEST PUSH1 0x0 PUSH1 0x20 DUP3 ADD SWAP1 POP PUSH2 0xD48 PUSH1 0x0 DUP4 ADD DUP5 PUSH2 0xADA JUMP JUMPDEST SWAP3 SWAP2 POP POP JUMP JUMPDEST PUSH1 0x0 PUSH1 0x20 DUP3 ADD SWAP1 POP DUP2 DUP2 SUB PUSH1 0x0 DUP4 ADD MSTORE PUSH2 0xD68 DUP2 DUP5 PUSH2 0xA60 JUMP JUMPDEST SWAP1 POP SWAP3 SWAP2 POP POP JUMP JUMPDEST PUSH2 0xD79 DUP2 PUSH2 0xAB9 JUMP JUMPDEST DUP2 EQ PUSH2 0xD84 JUMPI PUSH1 0x0 DUP1 REVERT JUMPDEST POP JUMP JUMPDEST PUSH1 0x0 DUP2 CALLDATALOAD SWAP1 POP PUSH2 0xD96 DUP2 PUSH2 0xD70 JUMP JUMPDEST SWAP3 SWAP2 POP POP JUMP JUMPDEST PUSH1 0x0 DUP1 PUSH1 0x40 DUP4 DUP6 SUB SLT ISZERO PUSH2 0xDB3 JUMPI PUSH2 0xDB2 PUSH2 0x99C JUMP JUMPDEST JUMPDEST PUSH1 0x0 PUSH2 0xDC1 DUP6 DUP3 DUP7 ADD PUSH2 0x9C7 JUMP JUMPDEST SWAP3 POP POP PUSH1 0x20 PUSH2 0xDD2 DUP6 DUP3 DUP7 ADD PUSH2 0xD87 JUMP JUMPDEST SWAP2 POP POP SWAP3 POP SWAP3 SWAP1 POP JUMP JUMPDEST PUSH32 0x4E487B7100000000000000000000000000000000000000000000000000000000 PUSH1 0x0 MSTORE PUSH1 0x22 PUSH1 0x4 MSTORE PUSH1 0x24 PUSH1 0x0 REVERT JUMPDEST PUSH1 0x0 PUSH1 0x2 DUP3 DIV SWAP1 POP PUSH1 0x1 DUP3 AND DUP1 PUSH2 0xE23 JUMPI PUSH1 0x7F DUP3 AND SWAP2 POP JUMPDEST PUSH1 0x20 DUP3 LT DUP2 SUB PUSH2 0xE36 JUMPI PUSH2 0xE35 PUSH2 0xDDC JUMP JUMPDEST JUMPDEST POP SWAP2 SWAP1 POP JUMP JUMPDEST PUSH1 0x0 DUP2 SWAP1 POP DUP2 PUSH1 0x0 MSTORE PUSH1 0x20 PUSH1 0x0 KECCAK256 SWAP1 POP SWAP2 SWAP1 POP JUMP JUMPDEST PUSH1 0x0 PUSH1 0x20 PUSH1 0x1F DUP4 ADD DIV SWAP1 POP SWAP2 SWAP1 POP JUMP JUMPDEST PUSH1 0x0 DUP3 DUP3 SHL SWAP1 POP SWAP3 SWAP2 POP POP JUMP JUMPDEST PUSH1 0x0 PUSH1 0x8 DUP4 MUL PUSH2 0xE9E PUSH32 0xFFFFFFFFFFFFFFFFFFFFFFFFFFFFFFFFFFFFFFFFFFFFFFFFFFFFFFFFFFFFFFFF DUP3 PUSH2 0xE61 JUMP JUMPDEST PUSH2 0xEA8 DUP7 DUP4 PUSH2 0xE61 JUMP JUMPDEST SWAP6 POP DUP1 NOT DUP5 AND SWAP4 POP DUP1 DUP7 AND DUP5 OR SWAP3 POP POP POP SWAP4 SWAP3 POP POP POP JUMP JUMPDEST PUSH1 0x0 DUP2 SWAP1 POP SWAP2 SWAP1 POP JUMP JUMPDEST PUSH1 0x0 PUSH2 0xEE5 PUSH2 0xEE0 PUSH2 0xEDB DUP5 PUSH2 0x9A6 JUMP JUMPDEST PUSH2 0xEC0 JUMP JUMPDEST PUSH2 0x9A6 JUMP JUMPDEST SWAP1 POP SWAP2 SWAP1 POP JUMP JUMPDEST PUSH1 0x0 DUP2 SWAP1 POP SWAP2 SWAP1 POP JUMP JUMPDEST PUSH2 0xEFF DUP4 PUSH2 0xECA JUMP JUMPDEST PUSH2 0xF13 PUSH2 0xF0B DUP3 PUSH2 0xEEC JUMP JUMPDEST DUP5 DUP5 SLOAD PUSH2 0xE6E JUMP JUMPDEST DUP3 SSTORE POP POP POP POP JUMP JUMPDEST PUSH1 0x0 SWAP1 JUMP JUMPDEST PUSH2 0xF28 PUSH2 0xF1B JUMP JUMPDEST PUSH2 0xF33 DUP2 DUP5 DUP5 PUSH2 0xEF6 JUMP JUMPDEST POP POP POP JUMP JUMPDEST JUMPDEST DUP2 DUP2 LT ISZERO PUSH2 0xF57 JUMPI PUSH2 0xF4C PUSH1 0x0 DUP3 PUSH2 0xF20 JUMP JUMPDEST PUSH1 0x1 DUP2 ADD SWAP1 POP PUSH2 0xF39 JUMP JUMPDEST POP POP JUMP JUMPDEST PUSH1 0x1F DUP3 GT ISZERO PUSH2 0xF9C JUMPI PUSH2 0xF6D DUP2 PUSH2 0xE3C JUMP JUMPDEST PUSH2 0xF76 DUP5 PUSH2 0xE51 JUMP JUMPDEST DUP2 ADD PUSH1 0x20 DUP6 LT ISZERO PUSH2 0xF85 JUMPI DUP2 SWAP1 POP JUMPDEST PUSH2 0xF99 PUSH2 0xF91 DUP6 PUSH2 0xE51 JUMP JUMPDEST DUP4 ADD DUP3 PUSH2 0xF38 JUMP JUMPDEST POP POP JUMPDEST POP POP POP JUMP JUMPDEST PUSH1 0x0 DUP3 DUP3 SHR SWAP1 POP SWAP3 SWAP2 POP POP JUMP JUMPDEST PUSH1 0x0 PUSH2 0xFBF PUSH1 0x0 NOT DUP5 PUSH1 0x8 MUL PUSH2 0xFA1 JUMP JUMPDEST NOT DUP1 DUP4 AND SWAP2 POP POP SWAP3 SWAP2 POP POP JUMP JUMPDEST PUSH1 0x0 PUSH2 0xFD8 DUP4 DUP4 PUSH2 0xFAE JUMP JUMPDEST SWAP2 POP DUP3 PUSH1 0x2 MUL DUP3 OR SWAP1 POP SWAP3 SWAP2 POP POP JUMP JUMPDEST PUSH2 0xFF1 DUP3 PUSH2 0xA09 JUMP JUMPDEST PUSH8 0xFFFFFFFFFFFFFFFF DUP2 GT ISZERO PUSH2 0x100A JUMPI PUSH2 0x1009 PUSH2 0xB7D JUMP JUMPDEST JUMPDEST PUSH2 0x1014 DUP3 SLOAD PUSH2 0xE0B JUMP JUMPDEST PUSH2 0x101F DUP3 DUP3 DUP6 PUSH2 0xF5B JUMP JUMPDEST PUSH1 0x0 PUSH1 0x20 SWAP1 POP PUSH1 0x1F DUP4 GT PUSH1 0x1 DUP2 EQ PUSH2 0x1052 JUMPI PUSH1 0x0 DUP5 ISZERO PUSH2 0x1040 JUMPI DUP3 DUP8 ADD MLOAD SWAP1 POP JUMPDEST PUSH2 0x104A DUP6 DUP3 PUSH2 0xFCC JUMP JUMPDEST DUP7 SSTORE POP PUSH2 0x10B2 JUMP JUMPDEST PUSH1 0x1F NOT DUP5 AND PUSH2 0x1060 DUP7 PUSH2 0xE3C JUMP JUMPDEST PUSH1 0x0 JUMPDEST DUP3 DUP2 LT ISZERO PUSH2 0x1088 JUMPI DUP5 DUP10 ADD MLOAD DUP3 SSTORE PUSH1 0x1 DUP3 ADD SWAP2 POP PUSH1 0x20 DUP6 ADD SWAP5 POP PUSH1 0x20 DUP2 ADD SWAP1 POP PUSH2 0x1063 JUMP JUMPDEST DUP7 DUP4 LT ISZERO PUSH2 0x10A5 JUMPI DUP5 DUP10 ADD MLOAD PUSH2 0x10A1 PUSH1 0x1F DUP10 AND DUP3 PUSH2 0xFAE JUMP JUMPDEST DUP4 SSTORE POP JUMPDEST PUSH1 0x1 PUSH1 0x2 DUP9 MUL ADD DUP9 SSTORE POP POP POP JUMPDEST POP POP POP POP POP POP JUMP JUMPDEST PUSH1 0x0 DUP2 SWAP1 POP SWAP3 SWAP2 POP POP JUMP JUMPDEST PUSH32 0x70726F706F736500000000000000000000000000000000000000000000000000 PUSH1 0x0 DUP3 ADD MSTORE POP JUMP JUMPDEST PUSH1 0x0 PUSH2 0x10FB PUSH1 0x7 DUP4 PUSH2 0x10BA JUMP JUMPDEST SWAP2 POP PUSH2 0x1106 DUP3 PUSH2 0x10C5 JUMP JUMPDEST PUSH1 0x7 DUP3 ADD SWAP1 POP SWAP2 SWAP1 POP JUMP JUMPDEST PUSH1 0x0 PUSH2 0x111C DUP3 PUSH2 0x10EE JUMP JUMPDEST SWAP2 POP DUP2 SWAP1 POP SWAP2 SWAP1 POP JUMP JUMPDEST PUSH1 0x0 PUSH1 0x40 DUP3 ADD SWAP1 POP PUSH2 0x113B PUSH1 0x0 DUP4 ADD DUP6 PUSH2 0xADA JUMP JUMPDEST PUSH2 0x1148 PUSH1 0x20 DUP4 ADD DUP5 PUSH2 0xADA JUMP JUMPDEST SWAP4 SWAP3 POP POP POP JUMP JUMPDEST PUSH32 0x70726F706F73616C206E6F742065786973740000000000000000000000000000 PUSH1 0x0 DUP3 ADD MSTORE POP JUMP JUMPDEST PUSH1 0x0 PUSH2 0x1185 PUSH1 0x12 DUP4 PUSH2 0xA14 JUMP JUMPDEST SWAP2 POP PUSH2 0x1190 DUP3 PUSH2 0x114F JUMP JUMPDEST PUSH1 0x20 DUP3 ADD SWAP1 POP SWAP2 SWAP1 POP JUMP JUMPDEST PUSH1 0x0 PUSH1 0x20 DUP3 ADD SWAP1 POP DUP2 DUP2 SUB PUSH1 0x0 DUP4 ADD MSTORE PUSH2 0x11B4 DUP2 PUSH2 0x1178 JUMP JUMPDEST SWAP1 POP SWAP2 SWAP1 POP JUMP JUMPDEST PUSH32 0x65786365656420766F74696E672074696D650000000000000000000000000000 PUSH1 0x0 DUP3 ADD MSTORE POP JUMP JUMPDEST PUSH1 0x0 PUSH2 0x11F1 PUSH1 0x12 DUP4 PUSH2 0xA14 JUMP JUMPDEST SWAP2 POP PUSH2 0x11FC DUP3 PUSH2 0x11BB JUMP JUMPDEST PUSH1 0x20 DUP3 ADD SWAP1 POP SWAP2 SWAP1 POP JUMP JUMPDEST PUSH1 0x0 PUSH1 0x20 DUP3 ADD SWAP1 POP DUP2 DUP2 SUB PUSH1 0x0 DUP4 ADD MSTORE PUSH2 0x1220 DUP2 PUSH2 0x11E4 JUMP JUMPDEST SWAP1 POP SWAP2 SWAP1 POP JUMP JUMPDEST PUSH32 0x616C726561647920766F74650000000000000000000000000000000000000000 PUSH1 0x0 DUP3 ADD MSTORE POP JUMP JUMPDEST PUSH1 0x0 PUSH2 0x125D PUSH1 0xC DUP4 PUSH2 0xA14 JUMP JUMPDEST SWAP2 POP PUSH2 0x1268 DUP3 PUSH2 0x1227 JUMP JUMPDEST PUSH1 0x20 DUP3 ADD SWAP1 POP SWAP2 SWAP1 POP JUMP JUMPDEST PUSH1 0x0 PUSH1 0x20 DUP3 ADD SWAP1 POP DUP2 DUP2 SUB PUSH1 0x0 DUP4 ADD MSTORE PUSH2 0x128C DUP2 PUSH2 0x1250 JUMP JUMPDEST SWAP1 POP SWAP2 SWAP1 POP JUMP JUMPDEST PUSH32 0x4E487B7100000000000000000000000000000000000000000000000000000000 PUSH1 0x0 MSTORE PUSH1 0x11 PUSH1 0x4 MSTORE PUSH1 0x24 PUSH1 0x0 REVERT JUMPDEST PUSH1 0x0 PUSH2 0x12CD DUP3 PUSH2 0x9A6 JUMP JUMPDEST SWAP2 POP PUSH2 0x12D8 DUP4 PUSH2 0x9A6 JUMP JUMPDEST SWAP3 POP DUP3 DUP3 ADD SWAP1 POP DUP1 DUP3 GT ISZERO PUSH2 0x12F0 JUMPI PUSH2 0x12EF PUSH2 0x1293 JUMP JUMPDEST JUMPDEST SWAP3 SWAP2 POP POP JUMP JUMPDEST PUSH32 0x766F746500000000000000000000000000000000000000000000000000000000 PUSH1 0x0 DUP3 ADD MSTORE POP JUMP JUMPDEST PUSH1 0x0 PUSH2 0x132C PUSH1 0x4 DUP4 PUSH2 0x10BA JUMP JUMPDEST SWAP2 POP PUSH2 0x1337 DUP3 PUSH2 0x12F6 JUMP JUMPDEST PUSH1 0x4 DUP3 ADD SWAP1 POP SWAP2 SWAP1 POP JUMP JUMPDEST PUSH1 0x0 PUSH2 0x134D DUP3 PUSH2 0x131F JUMP JUMPDEST SWAP2 POP DUP2 SWAP1 POP SWAP2 SWAP1 POP JUMP JUMPDEST PUSH1 0x0 PUSH1 0x40 DUP3 ADD SWAP1 POP PUSH2 0x136C PUSH1 0x0 DUP4 ADD DUP6 PUSH2 0xACB JUMP JUMPDEST PUSH2 0x1379 PUSH1 0x20 DUP4 ADD DUP5 PUSH2 0xADA JUMP JUMPDEST SWAP4 SWAP3 POP POP POP JUMP INVALID LOG2 PUSH5 0x6970667358 0x22 SLT KECCAK256 0x1F 0xDE 0xEF SELFDESTRUCT 0xF8 SWAP12 SWAP10 BASEFEE KECCAK256 DUP2 0xF9 0xF 0x5C PUSH28 0xB21A083A2A9D1DB69E92CCD0D8149DA1152864736F6C634300081100 CALLER "
				},
				"gasEstimates": {
					"creation": {
						"codeDepositCost": "1009200",
						"executionCost": "1047",
						"totalCost": "1010247"
					},
					"external": {
						"createProposal(string,string,uint256)": "infinite",
						"doVoting(uint256)": "infinite",
						"getBlockTime()": "402",
						"getProposalCtx(uint256)": "infinite",
						"getProposalLimit(uint256)": "infinite",
						"getProposalName(uint256)": "infinite",
						"getProposalVCnt(uint256)": "infinite",
						"proposals(uint256)": "infinite",
						"queryVoting(uint256,address)": "infinite"
					}
				},
				"methodIdentifiers": {
					"createProposal(string,string,uint256)": "0ce0ebf4",
					"doVoting(uint256)": "e9511c6e",
					"getBlockTime()": "87ceff09",
					"getProposalCtx(uint256)": "33311aee",
					"getProposalLimit(uint256)": "6f2a064c",
					"getProposalName(uint256)": "429b92bf",
					"getProposalVCnt(uint256)": "101778d4",
					"proposals(uint256)": "013cf08b",
					"queryVoting(uint256,address)": "3c795afc"
				}
			},
			"storageLayout": {
				"storage": [
					{
						"astId": 29,
						"contract": "公共政策平台/EthVoting.sol:EthVoting",
						"label": "proposals",
						"offset": 0,
						"slot": "0",
						"type": "t_mapping(t_uint256,t_struct(Proposal)24_storage)"
					}
				],
				"types": {
					"t_address": {
						"encoding": "inplace",
						"label": "address",
						"numberOfBytes": "20"
					},
					"t_bool": {
						"encoding": "inplace",
						"label": "bool",
						"numberOfBytes": "1"
					},
					"t_mapping(t_address,t_struct(Voter)6_storage)": {
						"encoding": "mapping",
						"key": "t_address",
						"label": "mapping(address => struct EthVoting.Voter)",
						"numberOfBytes": "32",
						"value": "t_struct(Voter)6_storage"
					},
					"t_mapping(t_uint256,t_struct(Proposal)24_storage)": {
						"encoding": "mapping",
						"key": "t_uint256",
						"label": "mapping(uint256 => struct EthVoting.Proposal)",
						"numberOfBytes": "32",
						"value": "t_struct(Proposal)24_storage"
					},
					"t_string_storage": {
						"encoding": "bytes",
						"label": "string",
						"numberOfBytes": "32"
					},
					"t_struct(Proposal)24_storage": {
						"encoding": "inplace",
						"label": "struct EthVoting.Proposal",
						"members": [
							{
								"astId": 8,
								"contract": "公共政策平台/EthVoting.sol:EthVoting",
								"label": "pName",
								"offset": 0,
								"slot": "0",
								"type": "t_string_storage"
							},
							{
								"astId": 10,
								"contract": "公共政策平台/EthVoting.sol:EthVoting",
								"label": "pCtx",
								"offset": 0,
								"slot": "1",
								"type": "t_string_storage"
							},
							{
								"astId": 12,
								"contract": "公共政策平台/EthVoting.sol:EthVoting",
								"label": "chairperson",
								"offset": 0,
								"slot": "2",
								"type": "t_address"
							},
							{
								"astId": 14,
								"contract": "公共政策平台/EthVoting.sol:EthVoting",
								"label": "voteCount",
								"offset": 0,
								"slot": "3",
								"type": "t_uint256"
							},
							{
								"astId": 16,
								"contract": "公共政策平台/EthVoting.sol:EthVoting",
								"label": "initialized",
								"offset": 0,
								"slot": "4",
								"type": "t_bool"
							},
							{
								"astId": 18,
								"contract": "公共政策平台/EthVoting.sol:EthVoting",
								"label": "limitTime",
								"offset": 0,
								"slot": "5",
								"type": "t_uint256"
							},
							{
								"astId": 23,
								"contract": "公共政策平台/EthVoting.sol:EthVoting",
								"label": "voters",
								"offset": 0,
								"slot": "6",
								"type": "t_mapping(t_address,t_struct(Voter)6_storage)"
							}
						],
						"numberOfBytes": "224"
					},
					"t_struct(Voter)6_storage": {
						"encoding": "inplace",
						"label": "struct EthVoting.Voter",
						"members": [
							{
								"astId": 3,
								"contract": "公共政策平台/EthVoting.sol:EthVoting",
								"label": "voteTimeStamp",
								"offset": 0,
								"slot": "0",
								"type": "t_uint256"
							},
							{
								"astId": 5,
								"contract": "公共政策平台/EthVoting.sol:EthVoting",
								"label": "initialized",
								"offset": 0,
								"slot": "1",
								"type": "t_bool"
							}
						],
						"numberOfBytes": "64"
					},
					"t_uint256": {
						"encoding": "inplace",
						"label": "uint256",
						"numberOfBytes": "32"
					}
				}
			},
			"userdoc": {
				"kind": "user",
				"methods": {},
				"version": 1
			}
		}
	}
}